:10000000020C68020BC953F7F8EF24FC600B146074
:100010000C2402700B43F7032243F7042243F70535
:0200200022229A
:03002300020FA326
:03002B00020EDFE3
:10003300020F569000B77401F0E4A3F0A3F0FD7F24
:100043000A120E66E4FD7F0B120E667D017F080225
:020053000E6637
:03005B000210D9B7
:100063000207D3EF131313541FFEEF54079000F24C
:10007300F0EE700743DF0143E70122EEB4010743CB
:10008300DF0243E70222EEB4020643DF0443E70440
:0B00930022EF8FF553B4EF22020B2286
:0300A300020A7BD3
:1000AB000209D4BB010689828A83E0225002E7222F
:1000BB00BBFE02E32289828A83E49322BB010CE517
:1000CB008229F582E5833AF583E0225006E9258201
:1000DB00F8E622BBFE06E92582F8E222E58229F545
:1000EB0082E5833AF583E49322BB010689828A83F6
:1000FB00F0225002F722BBFE01F322F8BB010DE503
:10010B008229F582E5833AF583E8F0225006E9254A
:10011B0082C8F622BBFE05E92582C8F222C5F0F89B
:10012B00A3E028F0C5F0F8E582158270021583E094
:10013B0038F022A3F8E0C5F025F0F0E582158270C7
:10014B00021583E0C838F0E822EF2BFFEE3AFEED04
:10015B0039FDEC38FC22E88FF0A4CC8BF0A42CFCFE
:10016B00E98EF0A42CFC8AF0EDA42CFCEA8EF0A412
:10017B00CDA8F08BF0A42DCC3825F0FDE98FF0A4A1
:10018B002CCD35F0FCEB8EF0A4FEA9F0EB8FF0A498
:10019B00CFC5F02ECD39FEE43CFCEAA42DCE35F0D4
:1001AB00FDE43CFC2275F008758200EF2FFFEE3367
:1001BB00FECD33CDCC33CCC58233C5829BED9AECCF
:1001CB0099E58298400CF582EE9BFEED9AFDEC9939
:1001DB00FC0FD5F0D6E4CEFBE4CDFAE4CCF9A88243
:1001EB0022B800C1B90059BA002DEC8BF084CFCEE8
:1001FB00CDFCE5F0CBF97818EF2FFFEE33FEED33A6
:10020B00FDEC33FCEB33FB10D703994004EB99FB6C
:10021B000FD8E5E4F9FA227818EF2FFFEE33FEED55
:10022B0033FDEC33FCC933C910D7059BE99A400762
:10023B00EC9BFCE99AF90FD8E0E4C9FAE4CCFB2279
:10024B0075F010EF2FFFEE33FEED33FDCC33CCC842
:10025B0033C810D7079BEC9AE899400AED9BFDEC4D
:10026B009AFCE899F80FD5F0DAE4CDFBE4CCFAE48C
:10027B00C8F922EF4BFFEE4AFEED49FDEC48FC229C
:10028B00EB9FF5F0EA9E42F0E99D42F0E89C45F0C9
:10029B0022E8600FECC313FCED13FDEE13FEEF131E
:1002AB00FFD8F122E8600FEFC333FFEE33FEED33DF
:1002BB00FDEC33FCD8F122BB010DE58229F582E57B
:1002CB00833AF5830202F25007E92582F802040B08
:1002DB00BBFE07E92582F8020417E58229F582E5C2
:1002EB00833AF583020423E0FCA3E0FDA3E0FEA325
:1002FB00E0FF22E0F8A3E0F9A3E0FAA3E0FB22740D
:10030B0001FF3395E0FEFDFCA3A3A3E0CF2FF0E5A7
:10031B0082158270021583E0CE3EF0E58215827065
:10032B00021583E0CD3DF0E582158270021583E066
:10033B00CC3CF022ECF0A3EDF0A3EEF0A3EFF02217
:10034B00A8828583F0D083D08212036212036212DB
:10035B000362120362E473E493A3C583C5F0C58300
:10036B00C8C582C8F0A3C583C5F0C583C8C582C8FC
:10037B0022E0FBA3E0FAA3E0F922F8E0FBA3A3E061
:10038B00F925F0F0E582158270021583E0FA38F05A
:10039B0022EBF0A3EAF0A3E9F022D083D082F8E4B9
:1003AB00937012740193700DA3A393F8740193F5DA
:1003BB00828883E4737402936860EFA3A3A380DF46
:1003CB00D083D082E4937012740193700DA3A39326
:1003DB00F8740193F5828883E4737402936C701242
:1003EB007403936D700C7404936E70067405936FA5
:1003FB0060DDA3A3A3A3A3A380CA8A838982E4732A
:10040B00E6FC08E6FD08E6FE08E6FF22E2FC08E251
:10041B00FD08E2FE08E2FF22E493FC740193FD74F5
:10042B000293FE740393FF229000F212033F90009D
:10043B00F612034B0000000043F804E5F830E5FB2F
:10044B009091AAE0FFE4FCFDFE78101202AFC0040D
:10045B00C005C006C007A3E0FFE4FCFDFE78181240
:10046B0002AFD003D002D001D00012027EC004C074
:10047B0005C006C0079091A9E0FFE4FCFDFE7808DB
:10048B001202AFD003D002D001D00012027EA8041A
:10049B00A905AA06AB079091A8E0FFE4FCFDFE12AC
:1004AB00027E9000EA12033F7FC07E0A7D707C01C2
:1004BB009000EA1202FED312028B50167F407E612F
:1004CB007D6C7C019000EA1202FEC312028B40028B
:1004DB00801274FFFFFEFDFC9000EA1202FEC312B5
:1004EB00028B700C9000F612034B02DC6C00801533
:1004FB00E47F02FEFDFC9000EA1202FE1201619005
:10050B0000F612033F9000F21202F21203CB053FEA
:10051B0000B71B00053700F42400052F016E3600D1
:10052B000000053775EE01E47B02800E75EE02E4E8
:10053B007B03800675EE03E47B04FAF9F89000F672
:10054B001202F21201EC9000EE12033F53F8FE532D
:10055B00D9F8224400EE000000004400EA0000003D
:10056B00004200AE00004200B500004200B300C8DC
:10057B004200B000004200B800004200AC00004155
:10058B0000B7004100B2004100AB006048006300BF
:10059B000000000000000000000000000000000050
:1005AB000000000000000000000000000000000040
:1005BB000000000000000000000000000000000030
:1005CB000000000000000000000000000000000020
:1005DB00000000000000004100FA004300FB000097
:1005EB00004300FE0000004900C6000000000000B0
:1005FB000000004900CF000000000000000000498F
:10060B0000D80000000000000000004C00BA000001
:10061B000000000000000000000041010100490043
:10062B00E100000000000000000041001B00410041
:10063B0004004400000000000042000500004200DE
:10064B005D000242005F00004200610000C102C178
:10065B0001C10000AC07EF131313541F9000F2F00D
:10066B00EF5407A3F0ED6060EC75F003A42463F581
:10067B0082E43400F58312039CD2AFD2A8120FEDA3
:10068B009000F2E0FF7011A3E0FE7401A806088051
:10069B0002C333D8FC42E922EFB401139000F3E01C
:1006AB00FF7401A807088002C333D8FC42EA2290EA
:1006BB0000F2E06402705CA3E0FF7401A8070880FD
:1006CB0002C333D8FC42EB22C2A89000F2E0FF70C9
:1006DB0012A3E0FE7401A806088002C333D8FCF411
:1006EB0052E922EFB401149000F3E0FF7401A80764
:1006FB00088002C333D8FCF452EA229000F2E0B433
:10070B000211A3E0FF7401A807088002C333D8FCD1
:10071B00F452EB22EF131313541FFEEF5407FFEDAC
:10072B00604FEE701690C000C083C082E0FE740173
:10073B00A807088002C333D8FC8033EEB4011690AF
:10074B00C001C083C082E0FE7401A807088002C309
:10075B0033D8FC8019EE6402706D90C002C083C068
:10076B0082E0FE7401A807088002C333D8FC4E80D8
:10077B0051EE701890C000C083C082E0FE7401A8D7
:10078B0007088002C333D8FCF45E8036EEB4011840
:10079B0090C001C083C082E0FE7401A807088002EC
:1007AB00C333D8FCF45E801AEEB4021B90C002C0B7
:1007BB0083C082E0FE7401A807088002C333D8FC13
:1007CB00F45ED082D083F022C0E0C0F0C083C08240
:1007DB00C0D075D000C000C001C002C003C004C0AF
:1007EB0005C006C00790C809E030E01790C808E0C4
:1007FB0030E010A37401F09000BA12037CE94A6058
:10080B005D805890C809E030E11790C808E030E1EE
:10081B0010A37402F09000BD12037CE94A603F8084
:10082B003A90C809E030E21790C808E030E210A314
:10083B007404F09000C012037CE94A6021801C9084
:10084B00C809E030E31890C808E030E311A374083E
:10085B00F09000C312037CE94A6003120405D00731
:10086B00D006D005D004D003D002D001D000D0D018
:10087B00D082D083D0F0D0E03290C018E4F07F0863
:10088B00120066E4FD7F08120D74E4FD7F08120D63
:10089B00ED7D017F08120E6690C01AE4F07F0A12FC
:1008AB000066E4FD7F0A120D74E4FD7F0A120DED64
:1008BB007D017F0A120E6690C01BE4F07F0B1200C5
:1008CB0066E4FD7F0B120D74E4FD7F0B120DEDE45E
:1008DB00FD7F0B120E6653B0FD43B00190C01C742C
:1008EB0020F07F0C1200667D017F0C120D74E4FD6D
:1008FB007F0C120DED7D017F0C12071F7BFF7A0021
:10090B0079217D017F0C12065F90C01DE4F07F0DF5
:10091B001200667D017F0D120D747D017F0D0207A4
:10092B001F9000F212039C90C9057407F0EF64014D
:10093B00704FED24FE601C14602E2402703D90005D
:10094B00F212037C9000C612039C90C904E0440190
:10095B00F080289000F212037C9000C912039C9047
:10096B00C904E04402F080139000F212037C900063
:10097B00CC12039C90C904E04404F0D2AF43B801FD
:10098B0022ED24FE601B14602C2402703B9000F2BD
:10099B0012037C9000C612039C90C904E044FEF045
:1009AB00229000F212037C9000C912039C90C904A0
:1009BB00E044FDF0229000F212037C9000CC120375
:1009CB009C90C904E044FBF022C0E0C0F0C083C09F
:1009DB0082C0D075D000C000C001C002C003C004EB
:1009EB00C005C006C00790C905E030E01C90C904E3
:1009FB00E030E0159000C612037CE94A6003120454
:100A0B000590C9057401F0804C90C905E030E11CDC
:100A1B0090C904E030E1159000C912037CE94A60EB
:100A2B000312040590C9057402F0802990C905E0F2
:100A3B0030E21C90C904E030E2159000CC12037C2C
:100A4B00E94A600312040590C9057404F08006900E
:100A5B00C9057407F0D007D006D005D004D003D059
:100A6B0002D001D000D0D0D082D083D0F0D0E032F1
:100A7B00C0E0C0F0C083C082C0D075D000C000C041
:100A8B0001C002C003C004C005C006C00790CA0560
:100A9B00E030E01C90CA04E030E0159000CF120368
:100AAB007CE94A600312040590CA057401F0804C7E
:100ABB0090CA05E030E11C90CA04E030E1159000CB
:100ACB00D212037CE94A600312040590CA05740232
:100ADB00F0802990CA05E030E21C90CA04E030E2B5
:100AEB00159000D512037CE94A600312040590CAE5
:100AFB00057404F0800690CA057407F0D007D00681
:100B0B00D005D004D003D002D001D000D0D0D082F9
:100B1B00D083D0F0D0E032C0E0C0F0C083C082C040
:100B2B00D075D000C000C001C002C003C004C00516
:100B3B00C006C00790CB05E030E01C90CB04E03042
:100B4B00E0159000D812037CE94A6003120405906B
:100B5B00CB057401F0804C90CB05E030E11C90CBC1
:100B6B0004E030E1159000DB12037CE94A600312CC
:100B7B00040590CB057402F0802990CB05E030E2A0
:100B8B001C90CB04E030E2159000DE12037CE94AA6
:100B9B00600312040590CB057404F0800690CB051E
:100BAB007407F0D007D006D005D004D003D002D004
:100BBB0001D000D0D0D082D083D0F0D0E032C0E0D2
:100BCB00C0F0C083C082C0D075D000C000C001C0CF
:100BDB0002C003C004C005C006C0077F0C12102F53
:100BEB00EF605F7F0C120FED90C900E054FEF090A8
:100BFB0000ABE004F0E0B43207E4F09000B704F08F
:100C0B0090C90AE4F0A3F09000B875F00112012826
:100C1B00C39000B9E094029000B8E09400401C7DB2
:100C2B00017F0A120E667D017F0B120E66E4FD7FBB
:100C3B0008120E669000B8E4F0A3F090C900E044EF
:100C4B0001F0D007D006D005D004D003D002D001DC
:100C5B00D000D0D0D082D083D0F0D0E032787FE4F7
:100C6B00F6D8FD758120020CAF020CF4E493A3F8C7
:100C7B00E493A34003F68001F208DFF48029E493A8
:100C8B00A3F85407240CC8C333C4540F4420C8839F
:100C9B004004F456800146F6DFE4800B01020408A1
:100CAB001020408090055EE47E019360BCA3FF544E
:100CBB003F30E509541FFEE493A360010ECF54C0EF
:100CCB0025E060A840B8E493A3FAE493A3F8E49377
:100CDB00A3C8C582C8CAC583CAF0A3C8C582C8CA7F
:100CEB00C583CADFE9DEE780BE121133A2DFE4332E
:100CFB009000B2F0C2DF1211277F0112113E1208D1
:100D0B00847F011211477F011211477D177C007FF1
:100D1B00987E0812106A7BFF7A0079367D017F017D
:100D2B0012092C1211507F011211479000F6740119
:100D3B00F07B047A00E4FD7F011210A37F03120005
:100D4B00067F06120094E4FF1211097F011210F7BF
:100D5B007F0112111B7F011211479000B7E060FA5F
:100D6B00E4F07F0112114780F1EF131313541FFEB0
:100D7B00EF5407FFED6034EE700D04A807088002F6
:100D8B00C333D8FC42F922EEB4010E7401A8070854
:100D9B008002C333D8FC42FA22EE6402704304A8EB
:100DAB0007088002C333D8FC42FB22EE700E04A866
:100DBB0007088002C333D8FCF452F922EEB4010FBA
:100DCB007401A807088002C333D8FCF452FA22EE50
:100DDB00B4020E7401A807088002C333D8FCF45286
:100DEB00FB22EF131313541FFEEF5407FFED603478
:100DFB00EE700D04A807088002C333D8FC4297227B
:100E0B00EEB4010E7401A807088002C333D8FC426C
:100E1B00E522EE6402704304A807088002C333D8AE
:100E2B00FC42FC22EE700E04A807088002C333D8E4
:100E3B00FCF4529722EEB4010F7401A8070880024C
:100E4B00C333D8FCF452E522EEB4020E7401A807AA
:100E5B00088002C333D8FCF452FC22EF1313135453
:100E6B001FFEEF5407FFED6034EE700D04A807086A
:100E7B008002C333D8FC428022EEB4010E7401A869
:100E8B0007088002C333D8FC429022EE6402704301
:100E9B0004A807088002C333D8FC42A022EE700ED0
:100EAB0004A807088002C333D8FCF4528022EEB4A6
:100EBB00010F7401A807088002C333D8FCF45290C9
:100ECB0022EEB4020E7401A807088002C333D8FCCB
:100EDB00F452A022C0E0C0F0C083C082C0D075D055
:100EEB0000C000C001C002C003C004C005C006C0E2
:100EFB0007E5C830E11053C8FD9000E112037CE90F
:100F0B004A6003120405E5C930E11053C9FD900096
:100F1B00E412037CE94A6003120405E5CA30E110D0
:100F2B0053CAFD9000E712037CE94A6003120405E3
:100F3B00D007D006D005D004D003D002D001D0000A
:100F4B00D0D0D082D083D0F0D0E032C0E0C0F0C09F
:100F5B0083C082C0D075D000C000C001C002C003E6
:100F6B00C004C005C006C007E5F630E00D9000FEDA
:100F7B0012037CE94A600312040575F601D007D011
:100F8B0006D005D004D003D002D001D000D0D0D0F1
:100F9B0082D083D0F0D0E032C0E0C0F0C083C082FA
:100FAB00C0D075D000C000C001C002C003C004C0D7
:100FBB0005C006C00730980F9000FB12037CE94A6E
:100FCB006003120405C298D007D006D005D004D018
:100FDB0003D002D001D000D0D0D082D083D0F0D0BB
:100FEB00E032EF131313541FFEEF5407FFEE700E96
:100FFB0004A807088002C333D8FCF452E122EEB4F4
:10100B00010F7401A807088002C333D8FCF452E225
:10101B0022EEB4020E7401A807088002C333D8FC79
:10102B00F452E322EF131313541FFEEF5407FFEE9A
:10103B00700DE5E1A807088002C313D8FC801CEEF5
:10104B00B4010DE5E2A807088002C313D8FC800B9E
:10105B00E5E3A807088002C313D8FC5401FF22ABB9
:10106B0007AA0643DF0843E70890C900E04440F0B5
:10107B00EC90C90DF0ED90C90CF0EB24FFEA34FFB6
:10108B0090C90FF0EB1490C90EF090C9067401F0E3
:10109B0090C905E04401F0229000F6E0640170274E
:1010AB0043DE1043E610EFC4333354C0FFE5AC54BA
:1010BB00BF4FF5ACE4F5FEF5FFEBF5FEEAF5FFE50A
:1010CB00FD54FE4DF5FD2253DEEF53E6EF22C0E05B
:1010DB00C083C082E5A630E3099001017401F0756D
:1010EB00A32075A3FFD082D083D0E032EFB40107E9
:1010FB0053ADFE53ADFD2243AD0243AD012243ACD4
:10110B0020EF700553ACFD800343AC0253B5FE22B8
:10111B00EFB4010443AC012253ACFE2243F8084365
:10112B00DE0443E604D2DE227F007E367D6E7C0138
:10113B00020433EF540753D8F842D822EF54075325
:0D114B00D8F842D82290C900E04401F022FB
:00000001FF
