:020000040800F2
:1000000060020020D90000084D0D0008050D000811
:1000100000000000000000000000000000000000E0
:10002000000000000000000000000000390E000881
:1000300000000000000000004F0D0008A50F0008A0
:10004000EB000008EB00000800000000EB000008D7
:10005000EB000008EB000008EB000008FB020008C2
:100060000000000000000000000000000000000090
:100070000F020008EB000008EB0000080000000081
:10008000FD0F00080000000000000000EB00000869
:10009000000000000000000000000000EB0000086D
:1000A00000000000EB00000800000000EB0000086A
:1000B000EB0000080000000000000000000000004D
:1000C0000448854600F02CF800480047BB120008A1
:1000D000C046C046600200200448804704480047EC
:1000E000FEE7FEE7FEE7FEE7FEE7FEE7BD0F0008DE
:1000F000C100000830B50B46014600202022012433
:1001000009E00D46D5409D4205D31D469540491B4B
:100110002546954040191546521E002DF1DC30BD94
:10012000064C0125064E05E0E36807CC2B430C3C4A
:1001300098471034B442F7D3FFF7C6FFC81200083F
:10014000E8120008002904D0826E01231A43826657
:1001500003E0826E5208520082667047426E1209B6
:1001600012010B071B0F1A434266704770B507292F
:1001700011DD0B46083BD9B2036E8D000F24AC4055
:10018000A3438D001446AC408E000F25B5402C4093
:10019000234303660DE0C36D8D000F24AC40A343E1
:1001A0008D001446AC408E000F25B5402C402343F3
:1001B000C36570BD012902D10122426103E0022919
:1001C00001D1022242617047002904D04268012314
:1001D0001A43426003E0426852085200426070478E
:1001E00010B504460548844207D10121401500F0AE
:1001F000CFFD0021601500F0CBFD10BD00240140B3
:1002000002468B0010461830C05880B2704710B5B7
:1002100000F0CCF910BD10B5002A0DD0012904D191
:10022000836801242343836012E0022910D183688C
:100230000224234383600BE0012903D183688B43AD
:10024000836005E0022903D183680224A34383600D
:1002500010BD000010B54268174B1A40164CE4431D
:100260004B6823401A43426042680723DB019A43EC
:100270000724E4010B6823401A434260826801238B
:10028000DB029A430124E4020B6923401A43826093
:10029000826803235B029A43032464028B68234031
:1002A0001A4382608268054B1A40044CE443CB68D1
:1002B00023401A43826010BD8FBFFFFF8FFFF9FFFD
:1002C00042680F239B029A430B401A4342607047D7
:1002D000002905D08268FF2301331A43826004E0BD
:1002E0008268FF2301339A438260704700210160D6
:1002F000416081600161C160704710B5802000F0ED
:100300000FF8002804D0802000F004F800F05AFA1A
:1003100010BD000001494861704700000004014021
:100320000146074840690840002806D00448006894
:100330000840002801D0012070470020FCE70000A1
:10034000000401408179002948D02D4909680268DC
:1003500091432B4A11601146496802689143284A2B
:1003600051600179002906D11146096802681143DC
:10037000234A116005E02249496802681143204A76
:1003800051601F498968026891431D4A9160114676
:10039000C968026891431A4AD160417910290CD189
:1003A0001146896802681143154A91601146C9686F
:1003B00002681143124AD16020E04179082906D130
:1003C0000F498968026811430D4A916016E00C4993
:1003D000C968026811430A4AD1600FE00179002917
:1003E00006D10749096802689143054A116005E092
:1003F0000349496802689143014A5160704700000F
:10040000000401400021016001710C2141710021B3
:1004100081717047F8B50246CD782F073F0FCD7830
:1004200010263540002D01D08D782F431446002032
:1004300011E085062B0E0D88012686403540002DE3
:1004400007D025680F269E40B5433E469E40354363
:100450002560451CE8B20828EBDB141D0D882D1221
:100460000095002011E085062B0E01258540009E99
:100470003540002D07D025680F269E40B5433E46E7
:100480009E4035432560451CE8B20828EBDBCD785B
:10049000282D04D155690E883543556106E0CD7885
:1004A000482D03D115690E8835431561F8BD4161AA
:1004B00070470021C9430180032181700421C1706C
:1004C0007047002A01D0016100E0416170470000DF
:1004D00000B587B00121480200F04AFC3148FFF71F
:1004E0007FFE02A8FFF702FF002002907020039019
:1004F00001204002049000200590069002A929489E
:10050000FFF7A8FE072189022648FFF7D9FE00223F
:1005100011462448FFF72AFE012211462148FFF721
:1005200025FE022211461F48FFF720FE0322114636
:100530001C48FFF71BFE052204211A48FFF716FE90
:1005400004211848FFF70AFE01211648FFF7FAFDBB
:1005500000201549087001211248FFF72BFE0122E7
:1005600011461048FFF757FE0C2000F03FFE022115
:100570000C2000F057FE0C2000F044FE0121094839
:10058000FFF722FE0020019003E000BF0198401C0D
:10059000019001984028F8D301210248FFF798FE06
:1005A00007B000BD002401403200002010B52248F1
:1005B0004069C007C00F00283CD001211E48FFF74A
:1005C000F9FD1E480078052804D21C480078401C1C
:1005D0001A4908701948007805282BD300201749BC
:1005E000087000211448FFF70BFE1549088001210F
:1005F0001148FFF705FE1249488002210E48FFF717
:10060000FFFD0F49888003210B48FFF7F9FD0C49D6
:10061000C88005210848FFF7F3FD0949088109480A
:100620000068401C0749086000F00EF801210248EC
:10063000FFF74EFE10BD00000024014032000020F4
:1006400050000020040000207047000002465318AC
:100650000248834200D9034698B27047FFFF00006A
:1006600010B500F08DF900F083FA00F00FFA00F0F9
:1006700061F9FFF72DFF00200E4908700E49087040
:100680000E4908700E4908800E4908600E4908603E
:100690000E49087000F0D4FA00200D4908700D4989
:1006A00008700D4908700D49086000F01BF800F053
:1006B000F7FA10BD30000020310000200C000020AF
:1006C0000E00002010000020140000201800002060
:1006D00028000020290000202A0000202C000020F3
:1006E00070470000F8B517480078002801D10120B4
:1006F00000E0002004462546002C01D1012000E046
:100700000020074601232A4659020920C00600F0AE
:10071000DFFA01233A4619020920C00600F0D8FA90
:1007200009480078012802D10648067800E02646EC
:1007300000233246012189020920C00600F0C8FAD0
:10074000F8BD00000C0000203300002070B5044606
:1007500046212046FFF7CEFC0D46284670BD00001E
:1007600070B5124800781249097845180A2D00D250
:1007700070BD0E4800780F4908700D4800780E498A
:1007800008700A480078072801D9012400E00024F5
:100790000A4804700A480068401C0949086020465D
:1007A00000F06AFA00F04CFA00BFE1E726000020F2
:1007B0002700002028000020290000202A00002017
:1007C0002C000020F8B54C480068401C4A490860DD
:1007D00041274B20009049480078002817D101207C
:1007E0004649087000204649088000F029FA002098
:1007F00044490880444908804449088044490880A5
:100800004449087000F0F8F900F09AF9F8BD424840
:1008100000F036FC86B23A4801883046FFF716FFF2
:10082000044639480680394804803648048020460A
:1008300000F0FAF8054637490D70002D22D000204F
:100840002F4908803249088000F0D6F900F078F985
:1008500032480068401C31490860314800780A2855
:1008600004D22F480078401C2D4908702D4800788C
:100870000A2804D22B480078401C2A490870FFF748
:100880006FFF36E0BC4208DA27480068401C264962
:1008900008600020234908702BE00098844223DD83
:1008A00021480068401C2049086020480068401C1E
:1008B0001E4908601E4800780A2804D21C480078A7
:1008C000401C1B4908702046FFF740FF0C49088078
:1008D000084600880E49088000F08EF90020114972
:1008E0000870FFF73DFF04E00F480068401C0E4908
:1008F000086000BF8AE700000800002031000020E7
:100900001A0000200E0000202000002022000020FD
:100910002400002018000020002C014010000020BE
:100920002600002030000020140000201C000020C1
:10093000270000201CB50121880700F019FA0721C3
:10094000002000F07BFA8020FFF7E4FC6846FFF708
:1009500059FD802000900021684601710C214171F1
:1009600001218171FFF7EEFC072000F03FFC002120
:10097000072000F057FC072000F044FC1CBD0000DD
:1009800008B501210320400400F0E2F90F2109021B
:100990000920C006FFF78BFD6846FFF78AFD0F218F
:1009A000090268460180032181701021C1706946E7
:1009B0000920C006FFF72EFD6846FFF77AFD80216B
:1009C00068460180032181700421C17069460920B5
:1009D000C006FFF71FFD6846FFF76BFD104968462C
:1009E0000180012181700021C17069460920C00683
:1009F000FFF710FD6846FFF75CFD032168460180A4
:100A0000012181700021C17069460648FFF702FD8F
:100A10000121C9020920C006FFF749FD08BD0000F9
:100A20000C1000000004004810B5014641234B247F
:100A30000A469A4203D3A24201D8012010BD0020E9
:100A4000FCE7000010B501210D4800F01CFB002858
:100A500015D001210A4800F0D8FA0021084800F01A
:100A6000D7FA00F0DDF80020064908800649088022
:100A700000F0F0F800F0E4F8002000F0FDF810BD00
:100A8000000400401A0000202400002030B585B08A
:100A90000121022000F06CF9264800F0C5FA254833
:100AA00000F0FEFA054624492846FFF723FB0446DA
:100AB000002C07D020492846FFF71CFB002901D154
:100AC00000BF01E000BFFEE7684600F085FB601E46
:100AD00081B26846018000200190184802900020F1
:100AE00003900021684601746946124800F046FBF5
:100AF0000821104800F038FB01210E4800F085FA6B
:100B0000012211460B4800F025FB102000F06EFB7F
:100B10000121102000F086FB102000F073FB002163
:100B2000044800F028FB0021024800F071FA05B0EB
:100B300030BD00000004004040420F00DB05000013
:100B400010B50021094800F063FA0121074800F0C0
:100B50005CFA102000F04AFB0021044800F00BFB77
:100B60000121024800F054FA10BD000000040040CA
:100B700030B585B00121042000F0FAF81B4800F0E0
:100B800053FA1A4800F08CFA054619492846FFF72F
:100B9000B1FA0446002C05D015492846FFF7AAFAF9
:100BA000002901D000BFFEE7684600F015FB601E7B
:100BB00081B268460180002001900E48029000201A
:100BC00003900021684601746946084800F0D6FA8F
:100BD0000121064800F016FA0021044800F0CBFA83
:100BE0000021024800F014FA05B030BD002C01408D
:100BF00040420F00FFFF000010B50021074800F041
:100C000007FA0121054800F0FDF90021034800F032
:100C1000B2FA0121014800F0FBF910BD002C01409F
:100C200010B50021054800F0F3F90121034800F058
:100C3000E9F90021014800F09EFA10BD002C0140A6
:100C40000020024908700249087070472600002001
:100C50002700002000200449087004490870044956
:100C600008800449087070473100002030000020DF
:100C70000E0000201800002070B50446002C01D0A2
:100C8000012000E00020054604480078A84203D077
:100C900002480570FFF726FD70BD00000C00002023
:100CA00010B5084800F04CF8032007494860074891
:100CB0008860002000F030F800F026F800F038F8E6
:100CC00010BD00005555000000300040C309000071
:100CD000F8B506460F4614461D46002D06D0002CDA
:100CE00001D0012000E00020009005E0002C01D19F
:100CF000012000E00020009039463046009AFFF7BE
:100D0000E0FBF8BD00BFFEE70148024908607047FC
:100D1000CCCC000000300040044909694908490072
:100D2000C207D20F1143014A1161704700300040E1
:100D30000148024908607047AAAA0000003000403C
:100D4000014908607047000000300040704770475C
:100D5000002905D0054A52690243044B5A6104E058
:100D6000024A52698243014B5A61704700100240A7
:100D7000002905D0054AD2690243044BDA6104E038
:100D8000024AD2698243014BDA6170470010024087
:100D9000002905D0054A12690243044B1A6104E098
:100DA000024A12698243014B1A61704700100240E7
:100DB00010B5002100221A4B5B680C242340194611
:100DC000002906D0042907D0082908D00C290CD105
:100DD00008E0144B03600BE0124B036008E0124B79
:100DE000036005E0114B036002E00E4B036000BF9F
:100DF00000BF0B4B5B68F024234019090C4B5A5C75
:100E00000368D3404360064B5B68072424022340F9
:100E1000190A084B5A5C4368D340836010BD000038
:100E20000010024000127A00006CDC02409C0000BE
:100E300034000020440000207047000030B500223C
:100E40008B071C0F0F23A3401A468B10002B0ED1CB
:100E5000224B9B689343214CA36023469B688C07DD
:100E6000250F0446AC4023431C4CA36034E08B1098
:100E7000012B0ED1194BDB689343184CE3602346DA
:100E8000DB688C07250F0446AC402343134CE3601A
:100E900022E08B10022B0ED1104B1B6993430F4C99
:100EA000236123461B698C07250F0446AC4023436E
:100EB0000A4C236110E08B10032B0DD1074B5B69AB
:100EC0009343064C636123465B698C07250F0446F8
:100ED000AC402343014C636130BD00000000014081
:100EE0001CB50020019001200090002428480068D3
:100EF000012108432649086000BF254800680221F7
:100F000008400028F9D02348234908602348006896
:100F1000C008C00021490860084600681021084345
:100F20001E4908601C490968481E1D49FFF7E2F880
:100F30000446012C00D901241848006820431749B1
:100F4000086013484468F02120468843044600BFE7
:100F50000F4844604468072109022046884304463C
:100F600000BF0B4844604068800880000849486022
:100F700008464068022108430549486000E000BF78
:100F8000034840680C2108400828F8D11CBD000027
:100F900000100240006CDC024C00002000200240E7
:100FA00000366E0104480068002804D0024800683A
:100FB000401E0149086070470000002010B50D4830
:100FC0000068012108430B490860084640680A4947
:100FD0000840084948600846006801210904884320
:100FE000044908600020C043886000208860FFF743
:100FF00077FF10BD001002400CF8FFF810B5FFF7A6
:1010000021FD10BDCA4302617047CA4302617047A7
:10101000002904D0026801231A43026003E0026839
:10102000520852000260704710B5044611488442CD
:1010300008D101210420FFF7ABFE00210420FFF7B7
:10104000A7FE16E00C48844208D101210220FFF7D8
:101050009FFE00210220FFF79BFE0AE00748844222
:1010600007D101210820FFF793FE00210820FFF798
:101070008FFE10BD002C01400004004000400140E4
:101080000146486A7047024610690840002805D0AA
:10109000D0680840002801D0012070470020FCE7FC
:1010A000F0B58BB00646002400200A9000250027EA
:1010B00020A103C90991089020A001460EC9C0686B
:1010C000069305920491079001A8FFF771FE039C17
:1010D0001E484068072109020840050A1C4886424C
:1010E0001DD11A484068F0210840070904A8C05DD6
:1010F000002808D108A8405D002801D1204600E062
:1011000060000A9013E008A8405D002801D160004B
:1011100000E0A00004A9C95DC8400A9007E008A843
:10112000405D002801D1204600E060000A900A9846
:101130000BB0F0BD00000000020408100000000029
:101140000000000001020304060708090010024025
:10115000002C0140002A03D0C3680B43C36002E0A7
:10116000C3688B43C3607047026808239A430B40EF
:101170001A430260704741627047000010B5026870
:1011800003231B029A4303242402CB6823401A43FF
:1011900002600F4A904202D00E4A904207D1026884
:1011A00070239A4370244B6823401A430260084A14
:1011B000904205D1026B120A12020B7C1A430263A1
:1011C0008A68C2620A8882620122426110BD000000
:1011D000002C0140000400400021C943816000212F
:1011E0000180C1604160017470470000002805DB88
:1011F000C206D20E01219140014A116070470000E1
:1012000080E200E0002809DB00BF00BFC206D20E6A
:1012100001219140024A116000BF00BF70470000E9
:1012200000E100E010B5002819DB1A4A03231B0275
:10123000D21883089B00D2588307DC0EFF23A340FB
:101240009A438B071B0E8407E40EA3401A43114BED
:10125000032424021B198408A4001A5118E00E4A22
:1012600003071B0F083B9B089B00D2588307DC0E2B
:10127000FF23A3409A438B071B0E8407E40EA34071
:101280001A43054B0407240F083CA408A4001A5174
:1012900010BD000000E100E01CED00E002E008C825
:1012A000121F08C1002AFAD170477047002001E0E0
:1012B00001C1121F002AFBD17047FFF7D1F901E0ED
:1012C000FFF70EFAFCE70000E8120008000000201B
:1012D000500000009C120008381300085000002045
:1012E00010020000AC120008000000000000000026
:1012F00000000000000000000000000000000000EE
:1013000000000000000000000000000000000000DD
:1013100000000000000000000000000000000000CD
:101320000000000001020304060708090000000095
:0813300001020304006CDC0261
:04000005080000C12E
:00000001FF
