:10000000020EB902121812172BAD07AC06121775A3
:100010009000B7ECF0A3EDF0E49000B9F0A3F0028B
:09002000178C22021362AF992231
:03002B000211A11E
:10003300021315E5B7540FFEAFB6D3EF9401EE9458
:1000430000400774052FFFE43EFED3EF94FFEE94C8
:0B0053000F40047E0F7FFF220216D634
:100063000208DFAB07AA06121827C3EF9BEE9A40DC
:1000730007EF9BFFEE9A800EC374E89BFD74039A0F
:10008300FCED2FFFEC3E9000DBF0A3EFF09000DBE4
:06009300E0FEA3E0FF22E5
:03009B00020C2E26
:0300A300020B87C6
:1000AB00020AE0BB010689828A83E0225002E72222
:1000BB00BBFE02E32289828A83E49322BB010CE517
:1000CB008229F582E5833AF583E0225006E9258201
:1000DB00F8E622BBFE06E92582F8E222E58229F545
:1000EB0082E5833AF583E49322BB010689828A83F6
:1000FB00F0225002F722BBFE01F322F8BB010DE503
:10010B008229F582E5833AF583E8F0225006E9254A
:10011B0082C8F622BBFE05E92582C8F222C5F0F89B
:10012B00A3E028F0C5F0F8E582158270021583E094
:10013B0038F022A3F8E0C5F025F0F0E582158270C7
:10014B00021583E0C838F0E822BB010A89828A8352
:10015B00F0E5F0A3F0225006F709A7F01922BBFE39
:10016B0006F3E5F009F31922EF2BFFEE3AFEED391A
:10017B00FDEC38FC22E88FF0A4CC8BF0A42CFCE92E
:10018B008EF0A42CFC8AF0EDA42CFCEA8EF0A4CD0E
:10019B00A8F08BF0A42DCC3825F0FDE98FF0A42C22
:1001AB00CD35F0FCEB8EF0A4FEA9F0EB8FF0A4CFD5
:1001BB00C5F02ECD39FEE43CFCEAA42DCE35F0FD86
:1001CB00E43CFC2275F008758200EF2FFFEE33FE46
:1001DB00CD33CDCC33CCC58233C5829BED9AEC9914
:1001EB00E58298400CF582EE9BFEED9AFDEC99FCB6
:1001FB000FD5F0D6E4CEFBE4CDFAE4CCF9A88222FD
:10020B00B800C1B90059BA002DEC8BF084CFCECD1C
:10021B00FCE5F0CBF97818EF2FFFEE33FEED33FD55
:10022B00EC33FCEB33FB10D703994004EB99FB0F3A
:10023B00D8E5E4F9FA227818EF2FFFEE33FEED3311
:10024B00FDEC33FCC933C910D7059BE99A4007EC89
:10025B009BFCE99AF90FD8E0E4C9FAE4CCFB2275D0
:10026B00F010EF2FFFEE33FEED33FDCC33CCC83364
:10027B00C810D7079BEC9AE899400AED9BFDEC9AC6
:10028B00FCE899F80FD5F0DAE4CDFBE4CCFAE4C83E
:10029B00F922EF4BFFEE4AFEED49FDEC48FC22EB59
:1002AB009FF5F0EA9E42F0E99D42F0E89C45F02272
:1002BB00E8600FECC313FCED13FDEE13FEEF13FF21
:1002CB00D8F122E8600FEFC333FFEE33FEED33FDC1
:1002DB00EC33FCD8F122BB010DE58229F582E583D5
:1002EB003AF5830203115007E92582F802042ABB71
:1002FB00FE07E92582F8020436E58229F582E583BB
:10030B003AF583020442E0FCA3E0FDA3E0FEA3E088
:10031B00FF22E0F8A3E0F9A3E0FAA3E0FB227401CB
:10032B00FF3395E0FEFDFCA3A3A3E0CF2FF0E58206
:10033B00158270021583E0CE3EF0E58215827002C5
:10034B001583E0CD3DF0E582158270021583E0CC7C
:10035B003CF022ECF0A3EDF0A3EEF0A3EFF022A81B
:10036B00828583F0D083D082120381120381120322
:10037B0081120381E473E493A3C583C5F0C583C8DD
:10038B00C582C8F0A3C583C5F0C583C8C582C82282
:10039B00E0FBA3E0FAA3E0F922F8E0FBA3A3E0F96A
:1003AB0025F0F0E582158270021583E0FA38F02211
:1003BB00EBF0A3EAF0A3E9F022D083D082F8E49328
:1003CB007012740193700DA3A393F8740193F582CB
:1003DB008883E4737402936860EFA3A3A380DFD0D8
:1003EB0083D082E4937012740193700DA3A393F8DE
:1003FB00740193F5828883E4737402936C701274A6
:10040B0003936D700C7404936E70067405936F6098
:10041B00DDA3A3A3A3A3A380CA8A838982E473E683
:10042B00FC08E6FD08E6FE08E6FF22E2FC08E2FD1A
:10043B0008E2FE08E2FF22E493FC740193FD7402D0
:10044B0093FE740393FF224401110000000044014A
:10045B000D000000004200B100004200BF0000424E
:10046B0000BD00C84200B300004200C900004200BA
:10047B00AF00004100C5004100AE004100C4004187
:10048B0000AB004100B6004100BC004100B500418B
:10049B0000C1004100AD004200C700004100C60092
:1004AB004100AC004200B900004200B703704200AB
:1004BB00C200004100BB0060480063000000000068
:1004CB000000000000000000000000000000000021
:1004DB000000000000000000000000000000000011
:1004EB000000000000000000000000000000000001
:1004FB0000000000000000000000000000000000F1
:10050B0000000041011500430116000000430119D2
:10051B000000004900E90000000000000000004955
:10052B0000F20000000000000000004900FB00008A
:10053B00000000000000004C00DD00000000000087
:10054B0000000000000041011C00490104000000F4
:10055B0000000000000041001B00410004004400AB
:10056B000000000000420005000042005D00024256
:10057B00005F00004200610000C102C101C1000028
:10058B009000CB12035E9000CF12036A00000000B4
:10059B0043F804E5F830E5FB9091AAE0FFE4FCFD9D
:1005AB00FE78101202CEC004C005C006C007A3E03F
:1005BB00FFE4FCFDFE78181202CED003D002D0016E
:1005CB00D00012029DC004C005C006C0079091A9BF
:1005DB00E0FFE4FCFDFE78081202CED003D002D07F
:1005EB0001D00012029DA804A905AA06AB079091A1
:1005FB00A8E0FFE4FCFDFE12029D90010D12035ECC
:10060B007FC07E0A7D707C0190010D12031DD312F9
:10061B0002AA50167F407E617D6C7C0190010D1209
:10062B00031DC31202AA4002801274FFFFFEFDFCE1
:10063B0090010D12031DC31202AA700C9000CF1271
:10064B00036A02DC6C008015E47F02FEFDFC900166
:10065B000D12031D1201809000CF12035E9000CB90
:10066B001203111203EA069700B71B00068F00F462
:10067B0024000687016E36000000068F75EE01E43C
:10068B007B02800E75EE02E47B03800675EE03E4BD
:10069B007B04FAF9F89000CF12031112020B9001B0
:1006AB001112035E53F8FE53D9F822AC07EF131364
:1006BB0013541F9000CDF0EF5407A3F0ED6060ECE6
:1006CB0075F003A42463F582E43400F5831203BBB5
:1006DB00D2AFD2A81214319000CDE0FF7011A3E07D
:1006EB00FE7401A806088002C333D8FC42E922EF4E
:1006FB00B401139000CEE0FF7401A807088002C379
:10070B0033D8FC42EA229000CDE06402705CA3E097
:10071B00FF7401A807088002C333D8FC42EB22C246
:10072B00A89000CDE0FF7012A3E0FE7401A80608AC
:10073B008002C333D8FCF452E922EFB401149000C9
:10074B00CEE0FF7401A807088002C333D8FCF45233
:10075B00EA229000CDE0B40211A3E0FF7401A807D8
:10076B00088002C333D8FCF452EB229000CDEFF09B
:10077B00A3ECF0A3EDF0A31203BB9000D712036A16
:10078B0000000000E49000D5F0A3F01218279000B1
:10079B00D3EEF0A3EFF0E4FD7F081210B19000CD83
:1007AB00E0FF121657C3EF94FEEE947F501C90009F
:1007BB00D712031DE4FCFD1201739000D712035EE8
:1007CB009000D5E475F0011201289000D3E0FEA350
:1007DB00E0FF120066D39000CFE09F9000CEE09E2A
:1007EB0050BB7D017F081210B19000D012039BE922
:1007FB004A600D9000D5E0FFA3E0CF8FF0120154BB
:10080B009000D5E0FCA3E0FD4C70047E80FF22AB92
:10081B0005AA04E4F9F89000D712031112020B2277
:10082B00EF131313541FFEEF5407FFED604FEE70E1
:10083B001690C000C083C082E0FE7401A807088038
:10084B0002C333D8FC8033EEB4011690C001C083D1
:10085B00C082E0FE7401A807088002C333D8FC8075
:10086B0019EE6402706D90C002C083C082E0FE740A
:10087B0001A807088002C333D8FC4E8051EE7018D4
:10088B0090C000C083C082E0FE7401A807088002FC
:10089B00C333D8FCF45E8036EEB4011890C001C0AF
:1008AB0083C082E0FE7401A807088002C333D8FC22
:1008BB00F45E801AEEB4021B90C002C083C082E0CB
:1008CB00FE7401A807088002C333D8FCF45ED08203
:1008DB00D083F022C0E0C0F0C083C082C0D075D0FE
:1008EB0000C000C001C002C003C004C005C006C0E8
:1008FB000790C809E030E01790C808E030E010A37B
:10090B007401F09000DD12039BE94A605D80589002
:10091B00C809E030E11790C808E030E110A3740279
:10092B00F09000E012039BE94A603F803A90C809BF
:10093B00E030E21790C808E030E210A37404F090A6
:10094B0000E312039BE94A6021801C90C809E03048
:10095B00E31890C808E030E311A37408F09000E6A8
:10096B0012039BE94A6003120424D007D006D0057A
:10097B00D004D003D002D001D000D0D0D082D0830D
:10098B00D0F0D0E0329000CB1203BB90C9057407B6
:10099B00F0EF6401704FED24FE601C14602E2402F6
:1009AB00703D9000CB12039B9000E91203BB90C9E2
:1009BB0004E04401F080289000CB12039B9000ECE4
:1009CB001203BB90C904E04402F080139000CB12D9
:1009DB00039B9000EF1203BB90C904E04404F0D2D8
:1009EB00AF43B80122ED24FE601B14602C2402706F
:1009FB003B9000CB12039B9000E91203BB90C90400
:100A0B00E044FEF0229000CB12039B9000EC12030B
:100A1B00BB90C904E044FDF0229000CB12039B90E5
:100A2B0000EF1203BB90C904E044FBF0229000CB13
:100A3B001203BB90CA057407F0EF6401704FED24ED
:100A4B00FE601C14602E2402703D9000CB12039BA1
:100A5B009000F21203BB90CA04E04401F08028908E
:100A6B0000CB12039B9000F51203BB90CA04E04429
:100A7B0002F080139000CB12039B9000F81203BB83
:100A8B0090CA04E04404F0D2AF43B80422ED24FE34
:100A9B00601B14602C2402703B9000CB12039B90C4
:100AAB0000F21203BB90CA04E044FEF0229000CB8C
:100ABB0012039B9000F51203BB90CA04E044FDF0B7
:100ACB00229000CB12039B9000F81203BB90CA0438
:100ADB00E044FBF022C0E0C0F0C083C082C0D07500
:100AEB00D000C000C001C002C003C004C005C006D6
:100AFB00C00790C905E030E01C90C904E030E01558
:100B0B009000E912039BE94A600312042490C90583
:100B1B007401F0804C90C905E030E11C90C904E0F1
:100B2B0030E1159000EC12039BE94A600312042498
:100B3B0090C9057402F0802990C905E030E21C9041
:100B4B00C904E030E2159000EF12039BE94A600301
:100B5B0012042490C9057404F0800690C90574072B
:100B6B00F0D007D006D005D004D003D002D001D0EE
:100B7B0000D0D0D082D083D0F0D0E032C0E0C0F033
:100B8B00C083C082C0D075D000C000C001C002C0FD
:100B9B0003C004C005C006C00790CA05E030E01CC6
:100BAB0090CA04E030E0159000F212039BE94A6012
:100BBB000312042490CA057401F0804C90CA05E01E
:100BCB0030E11C90CA04E030E1159000F512039B54
:100BDB00E94A600312042490CA057402F08029903C
:100BEB00CA05E030E21C90CA04E030E2159000F830
:100BFB0012039BE94A600312042490CA057404F0A3
:100C0B00800690CA057407F0D007D006D005D00433
:100C1B00D003D002D001D000D0D0D082D083D0F07E
:100C2B00D0E032C0E0C0F0C083C082C0D075D0002D
:100C3B00C000C001C002C003C004C005C006C0078D
:100C4B0090CB05E030E01C90CB04E030E015900039
:100C5B00FB12039BE94A600312042490CB05740139
:100C6B00F0804C90CB05E030E11C90CB04E030E100
:100C7B00159000FE12039BE94A600312042490CBEB
:100C8B00057402F0802990CB05E030E21C90CB0478
:100C9B00E030E21590010112039BE94A6003120454
:100CAB002490CB057404F0800690CB057407F0D02C
:100CBB0007D006D005D004D003D002D001D000D08D
:100CCB00D0D082D083D0F0D0E03290C018E4F07F47
:100CDB0008121607E4FD7F08120FBFE4FD7F081210
:100CEB0010387D017F081210B190C01AE4F07F0A12
:100CFB00121607E4FD7F0A120FBFE4FD7F0A1210E4
:100D0B0038E4FD7F0A1210B190C01BE4F07F0B1288
:100D1B001607E4FD7F0B120FBFE4FD7F0B1210389B
:100D2B00E4FD7F0B1210B17F0C1216077D017F0CB7
:100D3B00120FBFE4FD7F0C1210387D017F0C1208DF
:100D4B002B7BFF7A0079227D017F0C1206B653B004
:100D5B00FD43B00190C01C7420F0A3E4F07F0D1292
:100D6B0016077D017F0D120FBF7D017F0D02082B32
:100D7B009000ABE07003020E19E49000CBF0A3F0EF
:100D8B007B017A0079CB7D64FC7F021207769000A1
:100D9B00B1EEF0A3EFF09000CBE0FCA3E0FD9000F0
:100DAB00BFECF0A3EDF09000C9ECF0A3EDF09000D8
:100DBB00B9E0FDA3E09000C2CDF0A3EDF0121274E8
:100DCB009000BBEFF060249000C5E0C39403500388
:100DDB00E004F09000C4E0702CA3E0C39403402522
:100DEB009000C47401F012180B801A9000AEE0C38F
:100DFB0094035003E004F09000AEE0C3940340056D
:100E0B007F061212C79000ABE060031213EF2212A1
:100E1B001840120CD51217447D177C007FE87E0317
:100E2B001215287BFF7A1379AC7D017F0112099093
:100E3B007D177C007FD07E071215617BFF7A1679B8
:100E4B00F47D017F01120A381217FC12175D900016
:100E5B00CF7401F07B047A00E4FD7F011215D17F82
:100E6B00031217107F0612184BE4FF1217D97F01DC
:100E7B001217C77F011218341218191217A39000FA
:100E8B00BCE0600BE4F09000ABE0700312147390C5
:100E9B0000B5E060031214B19000C1E060031216BC
:100EAB00B89000B6E060D7E4F0120D7B80D0787F6D
:100EBB00E4F6D8FD758120020F00020E1AE493A30D
:100ECB00F8E493A34003F68001F208DFF48029E4F1
:100EDB0093A3F85407240CC8C333C4540F4420C83D
:100EEB00834004F456800146F6DFE4800B010204D4
:100EFB000810204080900452E47E019360BCA3FF55
:100F0B00543F30E509541FFEE493A360010ECF5408
:100F1B00C025E060A840B8E493A3FAE493A3F8E4F7
:100F2B0093A3C8C582C8CAC583CAF0A3C8C582C863
:100F3B00CAC583CADFE9DEE780BEEF1203C40F65C3
:100F4B00010F6F020F79040F83080F8D100F97207D
:100F5B000FA1400FAB8000000FB5E5B454F0440176
:100F6B00F5B48049E5B454F04402F5B4803FE5B4E0
:100F7B0054F04403F5B48035E5B454F04404F5B4AF
:100F8B00802BE5B454F04405F5B48021E5B454F05E
:100F9B004406F5B48017E5B454F04407F5B4800D5E
:100FAB00E5B454F04408F5B4800353B4F053ADFBEF
:100FBB0043AD0422EF131313541FFEEF5407FFED41
:100FCB006034EE700D04A807088002C333D8FC42CE
:100FDB00F922EEB4010E7401A807088002C333D8BE
:100FEB00FC42FA22EE6402704304A807088002C395
:100FFB0033D8FC42FB22EE700E04A807088002C314
:10100B0033D8FCF452F922EEB4010F7401A807088F
:10101B008002C333D8FCF452FA22EEB4020E7401F0
:10102B00A807088002C333D8FCF452FB22EF13133A
:10103B0013541FFEEF5407FFED6034EE700D04A840
:10104B0007088002C333D8FC429722EEB4010E741A
:10105B0001A807088002C333D8FC42E522EE6402E4
:10106B00704304A807088002C333D8FC42FC22EE6D
:10107B00700E04A807088002C333D8FCF4529722E1
:10108B00EEB4010F7401A807088002C333D8FCF437
:10109B0052E522EEB4020E7401A807088002C33396
:1010AB00D8FCF452FC22EF131313541FFEEF54071A
:1010BB00FFED6034EE700D04A807088002C333D82F
:1010CB00FC428022EEB4010E7401A807088002C313
:1010DB0033D8FC429022EE6402704304A8070880C8
:1010EB0002C333D8FC42A022EE700E04A80708807E
:1010FB0002C333D8FCF4528022EEB4010F7401A862
:10110B0007088002C333D8FCF4529022EEB4020ECF
:10111B007401A807088002C333D8FCF452A02290B4
:10112B0000CF12035EE47F10FEFDFC9000D3120390
:10113B001D1201809000D712035EE47B02FAF9F8CE
:10114B009000D712031112020B9000CF12031D1245
:10115B0001739000D712031D12020B9000D71203DC
:10116B005E9000D712031DC3E49BFF74049AFEE448
:10117B0099FDE498FC9000D712035E9000D7120300
:10118B001178081202BBAB079000D7120311EB5476
:10119B0003F5BA8FAA22C0E0C0F0C083C082C0D0D2
:1011AB0075D000C000C001C002C003C004C005C0A0
:1011BB0006C007E5C830E11053C8FD9001041203C7
:1011CB009BE94A6003120424E5C930E11053C9FDC1
:1011DB0090010712039BE94A6003120424E5CA300D
:1011EB00E11053CAFD90010A12039BE94A600312F6
:1011FB000424D007D006D005D004D003D002D001F0
:10120B00D000D0D0D082D083D0F0D0E032C0E0C0BC
:10121B00F0C083C082C0D075D000C000C001C00236
:10122B00C003C004C005C006C0077F0C1214EDEF4D
:10123B00601C7F0C1214319000ABE070119000BC5D
:10124B00E0700B9000C1E070059000BC04F0D0077B
:10125B00D006D005D004D003D002D001D000D0D01E
:10126B00D082D083D0F0D0E032AD07AC06C3ED9482
:10127B00FEEC947F4007E49000C6F0FF229000BD87
:10128B00E0FFA3E09000CDCFF0A3EFF01216989003
:10129B0000C6E07015D39000CEE09D9000CDE09C91
:1012AB0050149000C67401F0800CD3ED9FEC9E504F
:1012BB0005E49000C6F09000C6E0FF22E4FF90002A
:1012CB00C5F09000AEF09000ABF09000B6F090003F
:1012DB00BCF09000B5F09000C1F09000ADF0900024
:1012EB00C7F0A3F09000C6F09000ACF09000B9F0FE
:1012FB00A3F09000BBF01217FC12175D1218199097
:10130B0000C4E06002E4F00217A3C0E0C0F0C083A9
:10131B00C082C0D075D000C000C001C002C003C0E5
:10132B0004C005C006C007E5F630E00D90011912A8
:10133B00039BE94A600312042475F601D007D0061B
:10134B00D005D004D003D002D001D000D0D0D082B1
:10135B00D083D0F0D0E032C0E0C0F0C083C082C0F8
:10136B00D075D000C000C001C002C003C004C005CE
:10137B00C006C00730980F90011612039BE94A6014
:10138B0003120424C298D007D006D005D004D00392
:10139B00D002D001D000D0D0D082D083D0F0D0E01A
:1013AB00329000ABE07011A3F090C900E054FEF056
:1013BB0090C90AE4F0A3F0229000ACE06013E4F0D3
:1013CB009000B7E0FFA3E09000B9CFF0A3EFF0805F
:1013DB000A9000B97403F0A374E8F09000B6E070C3
:1013EB000204F0229000ABE070079000C7F0A3F06E
:1013FB0022C39000C8E094FF9000C7E094FF500711
:10140B00E475F001120128C39000C8E0940390002A
:10141B00C7E09400400F9000B57401F0E49000C554
:10142B00F09000AEF022EF131313541FFEEF54078E
:10143B00FFEE700E04A807088002C333D8FCF452E9
:10144B00E122EEB4010F7401A807088002C333D860
:10145B00FCF452E222EEB4020E7401A807088002DB
:10146B00C333D8FCF452E32212175D9000AB740126
:10147B00F0E49000B6F09000BCF09000B5F0900056
:10148B00C7F0A3F09000C5F09000AEF09000C6F04E
:10149B009000AC04F0E49000B9F0A3F09000BBF026
:1014AB001217B5020006E49000B5F09000C7F0A348
:1014BB00F09000ABF09000B6F09000BCF09000C143
:1014CB00F09000ADF09000C6F09000ACF09000B939
:1014DB00F0A3F01217FC9000C4E060031216780220
:1014EB0017A3EF131313541FFEEF5407FFEE700DEA
:1014FB00E5E1A807088002C313D8FC801CEEB401F9
:10150B000DE5E2A807088002C313D8FC800BE5E3C6
:10151B00A807088002C313D8FC5401FF22AB07AA0B
:10152B000643DF0843E70890C900E04440F0EC9025
:10153B00C90DF0ED90C90CF0EB24FFEA34FF90C914
:10154B000FF0EB1490C90EF090C9067401F090C91E
:10155B0005E04401F022AB07AA0643DF2043E72056
:10156B0090CA00E04440F0EC90CA0DF0ED90CA0C2C
:10157B00F0EB24FFEA34FF90CA0FF0EB1490CA0E85
:10158B00F090CA067401F090CA05E04401F0229075
:10159B0000CB12035E43DE0143E601439E01E49060
:1015AB000115F0C29FD29EC299C2989000CB120334
:1015BB00119000D312035E90011112031112112A24
:1015CB00D29C53F33F229000CFE06401702743DE9F
:1015DB001043E610EFC4333354C0FFE5AC54BF4F98
:1015EB00F5ACE4F5FEF5FFEBF5FEEAF5FFE5FD5492
:1015FB00FE4DF5FD2253DEEF53E6EF22EF131313EF
:10160B00541FFEEF54079000CBF0EE700743DF0141
:10161B0043E70122EEB4010743DF0243E70222EE68
:10162B00B4020643DF0443E7042212002690005F56
:10163B00E475F00112013EFC741C25F0F582740078
:10164B003CF583EFF090005C7401F022120F45E53E
:10165B00AD20E2FBE5F630E0FB75F601120036D368
:10166B00EF94FFEE940F40047E0F7FFF22E4900077
:10167B00C1F09000AD04F090CA00E054FEF090CAA7
:10168B000AE4F0A3F090CA00E04401F022D39000EA
:10169B00BEE094649000BDE09400400DA3E0249C58
:1016AB00FF9000BDE034FFFE22E4FEFF229000C15C
:1016BB00E06017E4F09000ADF09000ABE0700B90A1
:1016CB0000C4E060057F091212C722C0E0C083C0CE
:1016DB0082E5A630E30990011C7401F075A3207517
:1016EB00A3FFD082D083D0E03290CA00E054FEF04A
:1016FB0090CA0AE4F0A3F09000ADE06007E4F0902C
:10170B0000C104F02253F7F8EF24FC600B14600CBB
:10171B002402700B43F7032243F7042243F70522FD
:10172B007F707E03EF4E7003FE7F01D3EF94E8EEE4
:10173B00940340047E037FE822E490005CF0FF7E7C
:10174B00C27D01FC12159A7BFF7A1679357F010257
:10175B0017EBE49000ADF09000C1F090CA00E0549C
:10176B00FEF090CA0AE4F0A3F022C3EF94E8EE94E3
:10177B00034004E4FEFF22C374E89FFF74039EFE44
:10178B002290C900E054FEF0EF90C90AF0EEA3F0EE
:10179B0090C900E04401F0227F0C1214317BFF7AD8
:1017AB000079227D017F0C0206B67F0C1214317B6F
:1017BB00FF7A007922E4FD7F0C0206B6EFB4010735
:1017CB0053ADFE53ADFD2243AD0243AD012243ACFD
:1017DB0020EF700553ACFD800343AC0253B5FE22E2
:1017EB00EFB4010AD2AFD2AC9001160203BBC2AC6C
:1017FB002290C900E054FEF090C90AE4F0A3F02255
:10180B007D017F0A1210B17D017F0B0210B1E4FD47
:10181B007F0A1210B1E4FD7F0B0210B190C90AE0F0
:10182B00FDA3E0FCEDAE04FF22EFB4010443AC01D9
:10183B002253ACFE227F007E367D6E7C0102058B2F
:07184B00EF8FF553B4EF220B
:00000001FF
