:020000040800F2
:1000000038020020D90000080D0C0008090C000877
:1000100000000000000000000000000000000000E0
:10002000000000000000000000000000F90C0008C3
:1000300000000000000000000F0C0008650E000822
:10004000EB000008EB00000800000000EB000008D7
:10005000EB000008EB000008EB0000089F0300081D
:100060000000000000000000000000000000000090
:10007000B3020008EB000008EB00000800000000DD
:10008000BD0E00080000000000000000EB000008AA
:10009000000000000000000000000000EB0000086D
:1000A00000000000EB00000800000000EB0000086A
:1000B000EB0000080000000000000000000000004D
:1000C0000448854600F07EF8004800478712000883
:1000D000C046C04638020020044880470448004714
:1000E000FEE7FEE7FEE7FEE7FEE7FEE77D0E00081F
:1000F000C100000830B50B46014600202022012433
:1001000009E00D46D5409D4205D31D469540491B4B
:100110002546954040191546521E002DF1DC30BD94
:10012000F0B51FB40646002082B005464024019178
:1001300000901BE0019922460F46304600F030F84F
:10014000049A059B801A994110D3104619462246FD
:1001500000F016F8361A8F4101972246012000213F
:10016000009F00F00DF838184D4100902046641EA5
:100170000028DFDC019B00982946324607B0F0BD1D
:1001800010B5202A04DB0146203A9140002010BD22
:10019000914020239C1A0346E3401943904010BD30
:1001A00010B5202A04DB0846203AD040002110BDBB
:1001B0000B46D340D0402024A21A91400843194650
:1001C00010BD0000064C0125064E05E0E36807CC93
:1001D0002B430C3C98471034B442F7D3FFF774FF1D
:1001E00094120008B4120008002904D0826E012382
:1001F0001A43826603E0826E52085200826670479C
:10020000426E120912010B071B0F1A434266704718
:1002100070B5072911DD0B46083BD9B2036E8D007E
:100220000F24AC40A3438D001446AC408E000F2534
:10023000B5402C40234303660DE0C36D8D000F24B1
:10024000AC40A3438D001446AC408E000F25B54052
:100250002C402343C36570BD012902D101224261B4
:1002600003E0022901D1022242617047002904D033
:10027000426801231A43426003E042685208520078
:100280004260704710B504460548844207D10121F9
:10029000401500F0DDFC0021601500F0D9FC10BD18
:1002A0000024014002468B0010461830C05880B22E
:1002B000704710B500F0E0F910BD10B5002A0DD060
:1002C000012904D1836801242343836012E00229B9
:1002D00010D183680224234383600BE0012903D1FA
:1002E00083688B43836005E0022903D1836802247D
:1002F000A343836010BD000010B54268174B1A403D
:10030000164CE4434B6823401A434260426807237B
:10031000DB019A430724E4010B6823401A4342603F
:1003200082680123DB029A430124E4020B69234023
:100330001A438260826803235B029A4303246402A7
:100340008B6823401A4382608268054B1A40044C34
:10035000E443CB6823401A43826010BD8FBFFFFF88
:100360008FFFF9FF42680F239B029A430B401A4309
:1003700042607047002905D08268FF2301331A4389
:10038000826004E08268FF2301339A4382607047F1
:1003900000210160416081600161C160704710B55A
:1003A000802000F00FF8002804D0802000F004F82E
:1003B00000F000FA10BD00000149486170470000DC
:1003C000000401400146074840690840002806D063
:1003D000044800680840002801D001207047002030
:1003E000FCE70000000401408179002948D02D4934
:1003F0000968026891432B4A1160114649680268F6
:100400009143284A51600179002906D111460968B3
:1004100002681143234A116005E0224949680268D5
:100420001143204A51601F498968026891431D4A5F
:1004300091601146C968026891431A4AD1604179B6
:1004400010290CD11146896802681143154A916040
:100450001146C96802681143124AD16020E041790F
:10046000082906D10F498968026811430D4A916035
:1004700016E00C49C968026811430A4AD1600FE0CE
:100480000179002906D10749096802689143054AA4
:10049000116005E00349496802689143014A5160CF
:1004A00070470000000401400021016001710C212F
:1004B0004171002181717047F8B50246CD782F0750
:1004C0003F0FCD7810263540002D01D08D782F4379
:1004D0001446002011E085062B0E0D88012686406B
:1004E0003540002D07D025680F269E40B5433E4677
:1004F0009E4035432560451CE8B20828EBDB141DFF
:100500000D882D120095002011E085062B0E012587
:100510008540009E3540002D07D025680F269E405F
:10052000B5433E469E4035432560451CE8B2082849
:10053000EBDBCD78282D04D155690E883543556104
:1005400006E0CD78482D03D115690E883543156135
:10055000F8BD70B54D07EB0E082902DA05462035C7
:1005600001E0054624352C460F269E402568B543FC
:1005700016469E403543256070BD4161704700219D
:10058000C9430180032181700421C1707047002A92
:1005900001D0016100E041617047000000B587B003
:1005A0000121480200F044FB3148FFF76BFE02A82E
:1005B000FFF7EEFE00200290702003900120400221
:1005C000049000200590069002A92948FFF794FEA8
:1005D000072189022648FFF7C5FE0022114624485C
:1005E000FFF716FE012211462148FFF711FE0222F5
:1005F00011461F48FFF70CFE032211461C48FFF767
:1006000007FE052204211A48FFF702FE04211848BC
:10061000FFF7F6FD01211648FFF7E6FD002015491A
:10062000087001211248FFF717FE012211461048F9
:10063000FFF743FE0C2000F0BFFD02210C2000F06C
:10064000D7FD0C2000F0C4FD01210948FFF70EFE84
:100650000020019003E000BF0198401C0190019828
:100660004028F8D301210248FFF784FE07B000BDFF
:10067000002401400E00002010B522484069C00748
:10068000C00F00283CD001211E48FFF7E5FD1E48A1
:100690000078052804D21C480078401C1A490870CC
:1006A0001948007805282BD300201749087000212D
:1006B0001448FFF7F7FD1549088001211148FFF79D
:1006C000F1FD1249488002210E48FFF7EBFD0F496A
:1006D000888003210B48FFF7E5FD0C49C880052100
:1006E0000848FFF7DFFD0949088109480068401CF8
:1006F0000749086000F00EF801210248FFF73AFEB2
:1007000010BD0000002401400E0000202C0000203D
:10071000040000207047000010B500F031FA00F02E
:100720008DF800F0F9F800F063F8FFF737FF0020CC
:10073000044908700449087000F00AF800F05AF9FA
:1007400010BD00000D0000200C00002070470000CC
:10075000F8B516480078002801D1012000E00020FB
:1007600004462546002C01D1012000E00020074668
:1007700001232A4659020920C00600F02BFA012362
:100780003A4619020920C00600F024FA0848007809
:10079000012802D10548067800E0264601233246AA
:1007A00099020920C00600F015FAF8BD0C000020DF
:1007B0000F00002010B50C480068401C0A49086072
:1007C00000F000F909480078032804D207480078AF
:1007D000401C0649087005480078032802D3012010
:1007E00000F0BAF910BD0000080000200D00002044
:1007F0001CB50121880700F01BFA0721002000F03A
:100800007DFA8020FFF7D8FD6846FFF74DFE802077
:1008100000900021684601710C2141710121817114
:10082000FFF7E2FD072000F0C7FC0021072000F0E1
:10083000DFFC072000F0CCFC1CBD000008B5012146
:100840000320400400F0E4F90F2109020920C0064A
:10085000FFF793FE6846FFF792FE072109026846FC
:100860000180032181701021C17069460920C006F2
:10087000FFF722FE6846FFF782FE8021684601806E
:10088000032181700421C17069460920C006FFF769
:1008900013FE6846FFF773FE104968460180012188
:1008A00081700021C17069460920C006FFF704FE6F
:1008B0006846FFF764FE03216846018001218170CC
:1008C0000021C17069460648FFF7F6FD0121C90203
:1008D0000920C006FFF751FE08BD00000C10000003
:1008E0000004004810B50121094800F041FB002830
:1008F0000CD00121064800F0F1FA0021044800F074
:10090000F0FA00200349087000F026F910BD00003D
:10091000000400400D00002030B585B00121022008
:1009200000F086F9244800F0F7FA234800F02EFB87
:10093000054622492846FFF7DDFB0446002C07D078
:100940001E492846FFF7D6FB002901D100BF01E070
:1009500000BFFEE7684600F00DFC601E81B26846ED
:100960000180002001901648029000200390002191
:10097000684601746946104800F0CEFB08210E4815
:1009800000F0C1FB00210C4800F0ABFA01210A483D
:1009900000F0A4FA102000F00FFC012211460648D6
:1009A00000F04EFB0121102000F022FC102000F08E
:1009B0000FFC05B030BD00000004004040420F00B5
:1009C000DB05000010B50021094800F08AFA01217A
:1009D000074800F083FA102000F0EEFB00210448E5
:1009E00000F098FB0121024800F07BFA10BD0000E6
:1009F00000040040F0B595B05449002002910390E6
:100A0000534A002303990298FFF78AFB00214A40CA
:100A10004B401A4301D000BFFEE74D4A0023039923
:100A20000298FFF77DFB0446002C03D00120000450
:100A3000844201D900BFFEE72046322100F0A3FB2B
:100A400005460E463146FF23F5330022E818514192
:100A50005A00002301910090FFF762FB0490049874
:100A6000A04200D904940121082000F0E1F839489F
:100A700000F052FA374800F089FA05903449059899
:100A8000FFF738FB0746002F09D031490598FFF7DB
:100A900031FB002903D101200004874201D900BFA6
:100AA000FEE70121C9020920C006FFF766FD032207
:100AB0000B210920C006FFF74CFD13A8FFF75FFDCF
:100AC0000121C90210A88181032181731821C173FA
:100AD00013A90920C006FFF7EFFC0EA800F04AFB9F
:100AE000781E81B26846018700200F90601E10902A
:100AF00000201190002110A801720EA9154800F0E5
:100B00000BFB06A800F0F5FA0620069001200790DE
:100B10000498099000200A9006A90E4800F09AFA5D
:100B200008210C4800F0DEFA01210A4800F0CAF959
:100B30000021084800F0EEFA0121064800F0DDF936
:100B40000121044800F0CDF915B0F0BD00CA9A3B70
:100B500040420F000040014070B50446002C01D017
:100B6000012000E00020054604480078A84203D098
:100B700002480570FFF7ECFD70BD00000C0000207E
:100B80003EB5684600F074F87D21C9000198FFF772
:100B9000B1FA0446601E0D49884201D901200CE0DB
:100BA000601E0B4948610321081F00F021FB002053
:100BB00007498861072008610020002801D000BF94
:100BC000FEE70321081F00F013FB3EBDFFFFFF00FF
:100BD00000E000E0F8B506460F4614461D46002D1D
:100BE00006D0002C01D0012000E00020009005E09C
:100BF000002C01D1012000E0002000903946304651
:100C0000009AFFF7C4FCF8BD00BFFEE770477047CD
:100C1000002905D0054A52690243044B5A6104E099
:100C2000024A52698243014B5A61704700100240E8
:100C3000002905D0054AD2690243044BDA6104E079
:100C4000024AD2698243014BDA61704700100240C8
:100C5000002905D0054A12690243044B1A6104E0D9
:100C6000024A12698243014B1A6170470010024028
:100C700010B5002100221A4B5B680C242340194652
:100C8000002906D0042907D0082908D00C290CD146
:100C900008E0144B03600BE0124B036008E0124BBA
:100CA000036005E0114B036002E00E4B036000BFE0
:100CB00000BF0B4B5B68F024234019090C4B5A5CB6
:100CC0000368D3404360064B5B680724240223403B
:100CD000190A084B5A5C4368D340836010BD00007A
:100CE0000010024000127A00006CDC02409C000000
:100CF00010000020200000207047000030B50022C6
:100D00008B071C0F0F23A3401A468B10002B0ED10C
:100D1000224B9B689343214CA36023469B688C071E
:100D2000250F0446AC4023431C4CA36034E08B10D9
:100D3000012B0ED1194BDB689343184CE36023461B
:100D4000DB688C07250F0446AC402343134CE3605B
:100D500022E08B10022B0ED1104B1B6993430F4CDA
:100D6000236123461B698C07250F0446AC402343AF
:100D70000A4C236110E08B10032B0DD1074B5B69EC
:100D80009343064C636123465B698C07250F044639
:100D9000AC402343014C636130BD000000000140C2
:100DA0001CB5002001900120009000242848006814
:100DB000012108432649086000BF25480068022138
:100DC00008400028F9D023482349086023480068D8
:100DD000C008C00021490860084600681021084387
:100DE0001E4908601C490968481E1D49FFF782F921
:100DF0000446012C00D901241848006820431749F3
:100E0000086013484468F02120468843044600BF28
:100E10000F4844604468072109022046884304467D
:100E200000BF0B4844604068800880000849486063
:100E300008464068022108430549486000E000BFB9
:100E4000034840680C2108400828F8D11CBD000068
:100E500000100240006CDC0228000020002002404C
:100E600000366E0104480068002804D0024800687B
:100E7000401E0149086070470000002010B50D4871
:100E80000068012108430B490860084640680A4988
:100E90000840084948600846006801210904884361
:100EA000044908600020C043886000208860FFF784
:100EB00077FF10BD001002400CF8FFF810B5FFF7E7
:100EC00011FD10BD002904D0026880231A4302607E
:100ED00003E0026880239A4302607047CA430261BC
:100EE0007047002904D0026801231A43026003E01E
:100EF00002685208520002607047002905D0426C17
:100F00000123DB031A43426404E0426C0123DB0348
:100F10009A4342647047000010B504461148844269
:100F200008D101210420FFF793FE00210420FFF7E0
:100F30008FFE16E00C48844208D101210220FFF701
:100F400087FE00210220FFF783FE0AE00748844263
:100F500007D101210820FFF77BFE00210820FFF7C1
:100F600077FE10BD002C014000040040004001400D
:100F7000024610690840002805D0D06808400028C3
:100F800001D0012070470020FCE70000F0B58BB0D5
:100F90000646002400200A900025002720A103C94E
:100FA0000991089020A001460EC9C06806930592D9
:100FB0000491079001A8FFF75BFE039C1E48406860
:100FC000072109020840050A1C4886421DD11A481B
:100FD0004068F0210840070904A8C05D002808D136
:100FE00008A8405D002801D1204600E060000A907A
:100FF00013E008A8405D002801D1600000E0A000D7
:1010000004A9C95DC8400A9007E008A8405D00280F
:1010100001D1204600E060000A900A980BB0F0BDB4
:1010200000000000020408100000000000000000A2
:10103000010203040607080900100240002C0140C9
:10104000002A03D0C3680B43C36002E0C3688B432C
:10105000C360704710B5826970239A430B681B0107
:10106000702423401A438261026A520852000B79AD
:10107000DB07DB0F1A430262026A02239A430B6901
:101080005B00022423401A430262CA684263144A86
:10109000904223D1026A04239A438B689B00042464
:1010A00023401A430262026A08239A434B69DB0019
:1010B000082423401A430262426883159A438B69CD
:1010C0001B02841523401A434260426843159A4329
:1010D000CB695B02441523401A43426010BD0000F7
:1010E000002C0140826908239A430B401A43826115
:1010F00070470021016041608160C1600161416110
:101100008161C1617047026808239A430B401A430A
:10111000026070474162704710B5026803231B02EA
:101120009A4303242402CB6823401A4302600F4AE7
:10113000904202D00E4A904207D1026870239A432F
:1011400070244B6823401A430260084A904205D13C
:10115000026B120A12020B7C1A4302638A68C26293
:101160000A8882620122426110BD0000002C014009
:10117000000400400021C943816000210180C1605A
:10118000416001747047F8B582B28BB2040C0D0C4B
:1011900010465843002126465E43370C360480191A
:1011A000794116466E43370C36048019794126463C
:1011B0006E438919F8BD0000002805DBC206D20E77
:1011C00001219140014A11607047000080E200E077
:1011D000002809DB00BF00BFC206D20E01219140EA
:1011E000024A116000BF00BF7047000000E100E04C
:1011F00010B5002819DB1A4A03231B02D2188308F2
:101200009B00D2588307DC0EFF23A3409A438B0731
:101210001B0E8407E40EA3401A43114B032424023F
:101220001B198408A4001A5118E00E4A03071B0F6B
:10123000083B9B089B00D2588307DC0EFF23A3408A
:101240009A438B071B0E8407E40EA3401A43054BF9
:101250000407240F083CA408A4001A5110BD000084
:1012600000E100E01CED00E002E008C8121F08C128
:10127000002AFAD170477047002001E001C1121F17
:10128000002AFBD17047FFF747FA01E0FFF75EFA4B
:10129000FCE70000B4120008000000202C00000051
:1012A00068120008E01200082C0000200C02000068
:1012B000781200080000000000000000000000009C
:1012C0000000000000000000000000000102030414
:1012D000060708090000000001020304006CDC029C
:04000005080000C12E
:00000001FF
