:10000000021095021447121908AD07AC06121952D6
:100010009000F1ECF0A3EDF0E49000F3F0A3F00217
:09002000196922021539AF992279
:03002B0002137D40
:100033000214ECE5B7540FFEAFB6D3EF9401EE9480
:1000430000400774052FFFE43EFED3EF94FFEE94C8
:0B0053000F40047E0F7FFF220218B355
:10006300020B5AEF131313541FFEEF54079000AB08
:10007300F0EE700743DF0143E70122EEB4010743CB
:10008300DF0243E70222EEB4020643DF0443E70440
:0B00930022EF8FF553B4EF22020EA9FC
:0300A300020E0248
:1000AB00020D5BBB010689828A83E0225002E722A4
:1000BB00BBFE02E32289828A83E49322BB010CE517
:1000CB008229F582E5833AF583E0225006E9258201
:1000DB00F8E622BBFE06E92582F8E222E58229F545
:1000EB0082E5833AF583E49322BB010689828A83F6
:1000FB00F0225002F722BBFE01F322F8BB010DE503
:10010B008229F582E5833AF583E8F0225006E9254A
:10011B0082C8F622BBFE05E92582C8F222C5F0F89B
:10012B00A3E028F0C5F0F8E582158270021583E094
:10013B0038F022A3F8E0C5F025F0F0E582158270C7
:10014B00021583E0C838F0E822BB010A89828A8352
:10015B00F0E5F0A3F0225006F709A7F01922BBFE39
:10016B0006F3E5F009F31922EF2BFFEE3AFEED391A
:10017B00FDEC38FC22E88FF0A4CC8BF0A42CFCE92E
:10018B008EF0A42CFC8AF0EDA42CFCEA8EF0A4CD0E
:10019B00A8F08BF0A42DCC3825F0FDE98FF0A42C22
:1001AB00CD35F0FCEB8EF0A4FEA9F0EB8FF0A4CFD5
:1001BB00C5F02ECD39FEE43CFCEAA42DCE35F0FD86
:1001CB00E43CFC2275F008758200EF2FFFEE33FE46
:1001DB00CD33CDCC33CCC58233C5829BED9AEC9914
:1001EB00E58298400CF582EE9BFEED9AFDEC99FCB6
:1001FB000FD5F0D6E4CEFBE4CDFAE4CCF9A88222FD
:10020B00B800C1B90059BA002DEC8BF084CFCECD1C
:10021B00FCE5F0CBF97818EF2FFFEE33FEED33FD55
:10022B00EC33FCEB33FB10D703994004EB99FB0F3A
:10023B00D8E5E4F9FA227818EF2FFFEE33FEED3311
:10024B00FDEC33FCC933C910D7059BE99A4007EC89
:10025B009BFCE99AF90FD8E0E4C9FAE4CCFB2275D0
:10026B00F010EF2FFFEE33FEED33FDCC33CCC83364
:10027B00C810D7079BEC9AE899400AED9BFDEC9AC6
:10028B00FCE899F80FD5F0DAE4CDFBE4CCFAE4C83E
:10029B00F922EF4BFFEE4AFEED49FDEC48FC22EB59
:1002AB009FF5F0EA9E42F0E99D42F0E89C45F02272
:1002BB00E8600FECC313FCED13FDEE13FEEF13FF21
:1002CB00D8F122E8600FEFC333FFEE33FEED33FDC1
:1002DB00EC33FCD8F122BB010DE58229F582E583D5
:1002EB003AF5830203115007E92582F802042ABB71
:1002FB00FE07E92582F8020436E58229F582E583BB
:10030B003AF583020442E0FCA3E0FDA3E0FEA3E088
:10031B00FF22E0F8A3E0F9A3E0FAA3E0FB227401CB
:10032B00FF3395E0FEFDFCA3A3A3E0CF2FF0E58206
:10033B00158270021583E0CE3EF0E58215827002C5
:10034B001583E0CD3DF0E582158270021583E0CC7C
:10035B003CF022ECF0A3EDF0A3EEF0A3EFF022A81B
:10036B00828583F0D083D082120381120381120322
:10037B0081120381E473E493A3C583C5F0C583C8DD
:10038B00C582C8F0A3C583C5F0C583C8C582C82282
:10039B00E0FBA3E0FAA3E0F922F8E0FBA3A3E0F96A
:1003AB0025F0F0E582158270021583E0FA38F02211
:1003BB00EBF0A3EAF0A3E9F022D083D082F8E49328
:1003CB007012740193700DA3A393F8740193F582CB
:1003DB008883E4737402936860EFA3A3A380DFD0D8
:1003EB0083D082E4937012740193700DA3A393F8DE
:1003FB00740193F5828883E4737402936C701274A6
:10040B0003936D700C7404936E70067405936F6098
:10041B00DDA3A3A3A3A3A380CA8A838982E473E683
:10042B00FC08E6FD08E6FE08E6FF22E2FC08E2FD1A
:10043B0008E2FE08E2FF22E493FC740193FD7402D0
:10044B0093FE740393FF229000B6EFF0A3ECF0A39E
:10045B00EDF0A31203BBE49000CCF0A3F0A3F0A348
:10046B00F0A3F0A3F0A3F0A3F0A37480F0A3E4F047
:10047B00A3F0A3F0A3F0A3F0A3F0A3F0A3F0A3F0D9
:10048B00121A049000C8EEF0A3EFF0E4FD7F0812FF
:10049B00128D9000B6E0FF1218349000CAEEF0A354
:1004AB00EFF0121684C39000CFE094FF9000CEE0E3
:1004BB0094FF5007E475F0011201289000D6E0700C
:1004CB00139000CAE0FDA3E09000D4CDF0A3EDF0B3
:1004DB00A37401F09000CAE0FCA3E0FDC394FEEC12
:1004EB00947F5075A3E475F0011201289000D0E0C1
:1004FB00FAA3E0FBD3ED9BEC9A401E9000CAE0FD03
:10050B00A3E09000D0CDF0A3EDF09000CEE0FDA3E2
:10051B00E09000D2CDF0A3EDF0C39000CBE094902F
:10052B009000CAE0940140319000D8E094FF900015
:10053B00D7E094FF5007E475F0011201289000DD1D
:10054B00E0700E9000D9EEF0A3EFF09000DD740197
:10055B00F09000DBEEF0A3EFF0121684D39000B80E
:10056B00E09F9000B7E09E400302049D7D017F0851
:10057B0012128D9000B912039BE94A600D9000CCCA
:10058B00E0FFA3E0CF8FF01201549000BC12039B4D
:10059B00E94A600D9000D0E0FFA3E0CF8FF012018D
:1005AB00549000BF12039BE94A600D9000D2E0FF0C
:1005BB00A3E0CF8FF01201549000C212039BE94AC3
:1005CB00600D9000D7E0FFA3E0CF8FF012015490A5
:1005DB0000C512039BE94A60249000DDE06018908F
:1005EB0000D9E0FEA3E0FFC39000DCE09FFF90008A
:1005FB00DBE09E8FF08003E4F5F01201549000CC09
:10060B00E07002A3E060189000D6E07002801090BA
:10061B0000D4E0FCA3E0FDC394FEEC947F40057E88
:10062B00807F0022AF05AE042244013D0000000094
:10063B00440139000000004200E900004200F900CB
:10064B00004200ED00004200E400004200FC00000C
:10065B0042010700004200F703E84200EB000042B2
:10066B00010500004200E70000410101004100E6E6
:10067B0000410100004100E0004100F0004100F6A4
:10068B00004100EF004100FB004100E30042010389
:10069B000000410102004100E2004200F300004271
:1006AB0000F103704100E1004200FE00004100F543
:1006BB000060480063000000000000000000000024
:1006CB00000000000000000000000000000000001F
:1006DB00000000000000000000000000000000000F
:1006EB0000000000000000000000000000000000FF
:1006FB00000000000000000000000000004101416C
:10070B000043014200000043014500000049011570
:10071B0000000000000000000049011E0000000066
:10072B00000000000049012700000000000000004D
:10073B00004C010900000000000000000000000058
:10074B00410148004901300000000000000000009A
:10075B0041001B0041000400440000000000004267
:10076B000005000042005D000242005F00004200F5
:10077B00610000C102C101C100009000E0E0700304
:10078B000208BA900100E09000B5F0E49000ABF0E5
:10079B00A3F0A3F0A3F0A3F0A3F0A3F0A3F0A3F0B6
:1007AB00A3F07B017A0079AD9000BC1203BB7A00F9
:1007BB0079AF9000BF1203BB7A0079B19000C212DF
:1007CB0003BB7A0079B39000C51203BB7A0079ABF7
:1007DB007D647C007F021204529000E9EEF0A3EFDF
:1007EB00F09000ABE0FEA3E0FF9000F9EEF0A3EF7A
:1007FB00F09000ADE0FDA3E09000EDCDF0A3EDF0A7
:10080B009000AFE0FDA3E09000E4CDF0A3EDF090FD
:10081B0000B1E0FDA3E09000FCCDF0A3EDF0900063
:10082B00B3E0FDA3E0900107CDF0A3EDF09001053F
:10083B00EEF0A3EFF09000F3E0FFA3E09000FECF0B
:10084B00F0A3EFF09000EDE0FEA3E0FF1213F490A5
:10085B0000F5EFF0600B900101E0C39401500E80A6
:10086B00099000E6E0C394015003E004F09000E12E
:10087B00E004F0E0C39401402DE4F0900100E0703F
:10088B0011A3E0940140169001007401F01219E8D5
:10089B00800B9000E6E060057F0612149AE490014D
:1008AB0001F09000E6F09000E0E060031216FA22EF
:1008BB009000AB12035E9000AF12036A00000000C1
:1008CB0043F804E5F830E5FB9091AAE0FFE4FCFD6A
:1008DB00FE78101202CEC004C005C006C007A3E00C
:1008EB00FFE4FCFDFE78181202CED003D002D0013B
:1008FB00D00012029DC004C005C006C0079091A98C
:10090B00E0FFE4FCFDFE78081202CED003D002D04B
:10091B0001D00012029DA804A905AA06AB0790916D
:10092B00A8E0FFE4FCFDFE12029D90013912035E6C
:10093B007FC07E0A7D707C0190013912031DD3129A
:10094B0002AA50167F407E617D6C7C0190013912AA
:10095B00031DC31202AA4002801274FFFFFEFDFCAE
:10096B0090013912031DC31202AA700C9000AF1232
:10097B00036A02DC6C008015E47F02FEFDFC900133
:10098B003912031D1201809000AF12035E9000AB71
:10099B001203111203EA09C700B71B0009BF00F4C9
:1009AB00240009B7016E3600000009BF75EE01E4A3
:1009BB007B02800E75EE02E47B03800675EE03E48A
:1009CB007B04FAF9F89000AF12031112020B90019D
:1009DB003D12035E53F8FE53D9F822AC07EF131305
:1009EB0013541F9000B6F0EF5407A3F0ED6060ECCA
:1009FB0075F003A42463F582E43400F5831203BB82
:100A0B00D2AFD2A81215C89000B6E0FF7011A3E0C8
:100A1B00FE7401A806088002C333D8FC42E922EF1A
:100A2B00B401139000B7E0FF7401A807088002C35C
:100A3B0033D8FC42EA229000B6E06402705CA3E07B
:100A4B00FF7401A807088002C333D8FC42EB22C213
:100A5B00A89000B6E0FF7012A3E0FE7401A8060890
:100A6B008002C333D8FCF452E922EFB40114900096
:100A7B00B7E0FF7401A807088002C333D8FCF45217
:100A8B00EA229000B6E0B40211A3E0FF7401A807BC
:100A9B00088002C333D8FCF452EB22EF1313135428
:100AAB001FFEEF5407FFED604FEE701690C000C0B5
:100ABB0083C082E0FE7401A807088002C333D8FC10
:100ACB008033EEB4011690C001C083C082E0FE7487
:100ADB0001A807088002C333D8FC8019EE640270AA
:100AEB006D90C002C083C082E0FE7401A80708802D
:100AFB0002C333D8FC4E8051EE701890C000C083F7
:100B0B00C082E0FE7401A807088002C333D8FCF44E
:100B1B005E8036EEB4011890C001C083C082E0FE47
:100B2B007401A807088002C333D8FCF45E801AEE68
:100B3B00B4021B90C002C083C082E0FE7401A80700
:100B4B00088002C333D8FCF45ED082D083F022C07D
:100B5B00E0C0F0C083C082C0D075D000C000C0011F
:100B6B00C002C003C004C005C006C00790C809E09E
:100B7B0030E01790C808E030E010A37401F090014A
:100B8B000912039BE94A605D805890C809E030E187
:100B9B001790C808E030E110A37402F090010C121A
:100BAB00039BE94A603F803A90C809E030E2179016
:100BBB00C808E030E210A37404F090010F12039BFD
:100BCB00E94A6021801C90C809E030E31890C808FE
:100BDB00E030E311A37408F090011212039BE94A71
:100BEB006003120424D007D006D005D004D003D064
:100BFB0002D001D000D0D0D082D083D0F0D0E03260
:100C0B009000AB1203BB90C9057407F0EF64017041
:100C1B004FED24FE601C14602E2402703D9000AB3F
:100C2B0012039B9001151203BB90C904E04401F021
:100C3B0080289000AB12039B9001181203BB90C944
:100C4B0004E04402F080139000AB12039B90011B55
:100C5B001203BB90C904E04404F0D2AF43B80122A5
:100C6B00ED24FE601B14602C2402703B9000AB1231
:100C7B00039B9001151203BB90C904E044FEF022C4
:100C8B009000AB12039B9001181203BB90C904E0B8
:100C9B0044FDF0229000AB12039B90011B1203BB8F
:100CAB0090C904E044FBF0229000AB1203BB90CA46
:100CBB00057407F0EF6401704FED24FE601C1460A7
:100CCB002E2402703D9000AB12039B90011E120369
:100CDB00BB90CA04E04401F080289000AB12039B48
:100CEB009001211203BB90CA04E04402F0801390E0
:100CFB0000AB12039B9001241203BB90CA04E04487
:100D0B0004F0D2AF43B80422ED24FE601B14602C18
:100D1B002402703B9000AB12039B90011E1203BB8D
:100D2B0090CA04E044FEF0229000AB12039B9001AA
:100D3B00211203BB90CA04E044FDF0229000AB12D9
:100D4B00039B9001241203BB90CA04E044FBF022E6
:100D5B00C0E0C0F0C083C082C0D075D000C000C05E
:100D6B0001C002C003C004C005C006C00790C9057E
:100D7B00E030E01C90C904E030E01590011512033F
:100D8B009BE94A600312042490C9057401F0804C5E
:100D9B0090C905E030E11C90C904E030E1159001E9
:100DAB001812039BE94A600312042490C9057402CC
:100DBB00F0802990C905E030E21C90C904E030E2D4
:100DCB001590011B12039BE94A600312042490C97E
:100DDB00057404F0800690C9057407F0D007D0069F
:100DEB00D005D004D003D002D001D000D0D0D08217
:100DFB00D083D0F0D0E032C0E0C0F0C083C082C05E
:100E0B00D075D000C000C001C002C003C004C00533
:100E1B00C006C00790CA05E030E01C90CA04E03061
:100E2B00E01590011E12039BE94A60031204249003
:100E3B00CA057401F0804C90CA05E030E11C90CAE1
:100E4B0004E030E11590012112039BE94A60031283
:100E5B00042490CA057402F0802990CA05E030E2A0
:100E6B001C90CA04E030E21590012412039BE94A5E
:100E7B00600312042490CA057404F0800690CA051E
:100E8B007407F0D007D006D005D004D003D002D021
:100E9B0001D000D0D0D082D083D0F0D0E032C0E0EF
:100EAB00C0F0C083C082C0D075D000C000C001C0EC
:100EBB0002C003C004C005C006C00790CB05E030DC
:100ECB00E01C90CB04E030E01590012712039BE966
:100EDB004A600312042490CB057401F0804C90CB34
:100EEB0005E030E11C90CB04E030E11590012A12B3
:100EFB00039BE94A600312042490CB057402F08033
:100F0B002990CB05E030E21C90CB04E030E2159049
:100F1B00012D12039BE94A600312042490CB057444
:100F2B0004F0800690CB057407F0D007D006D005EF
:100F3B00D004D003D002D001D000D0D0D082D08347
:100F4B00D0F0D0E03290C018E4F07F08120066E4D5
:100F5B00FD7F0812119BE4FD7F081212147D017FA7
:100F6B000812128D90C01AE4F07F0A120066E4FD9D
:100F7B007F0A12119BE4FD7F0A121214E4FD7F0A13
:100F8B0012128D90C01BE4F07F0B120066E4FD7F04
:100F9B000B12119BE4FD7F0B121214E4FD7F0B125D
:100FAB00128D7F0C1200667D017F0C12119BE4FDEC
:100FBB007F0C1212147D017F0C120AA67BFF7A00A4
:100FCB0079227D017F0C1209E653B0FD43B00190ED
:100FDB00C01C7420F0A3E4F07F0D1200667D017F2E
:100FEB000D12119B7D017F0D020AA6121A1D120F05
:100FFB00501219217D177C007FE87E031217337B7B
:10100B00FF7A1579837D017F01120C0B7D177C0014
:10101B007FDC7E0512176C7BFF7A1879D17D017FFF
:10102B0001120CB31219D912193A9000AF7401F0D6
:10103B007B047A00E4FD7F011217DC7F031218EDAD
:10104B007F06120094E4FF1219B67F011219A47FD8
:10105B0001121A111219F61219809000F6E0600BAA
:10106B00E4F09000E0E0700312160A9000EFE060ED
:10107B00031216489000FBE060031218959000F0E5
:10108B00E060D7E4F012078580D0787FE4F6D8FDD6
:10109B007581200210DC020FF6E493A3F8E493A30E
:1010AB004003F68001F208DFF48029E493A3F8549F
:1010BB0007240CC8C333C4540F4420C8834004F422
:1010CB0056800146F6DFE4800B0102040810204035
:1010DB0080900634E47E019360BCA3FF543F30E55F
:1010EB0009541FFEE493A360010ECF54C025E060AA
:1010FB00A840B8E493A3FAE493A3F8E493A3C8C578
:10110B0082C8CAC583CAF0A3C8C582C8CAC583CA68
:10111B00DFE9DEE780BEEF1203C4114101114B0280
:10112B00115504115F08116910117320117D4011C5
:10113B00878000001191E5B454F04401F5B4804967
:10114B00E5B454F04402F5B4803FE5B454F04403E5
:10115B00F5B48035E5B454F04404F5B4802BE5B414
:10116B0054F04405F5B48021E5B454F04406F5B4CD
:10117B008017E5B454F04407F5B4800DE5B454F092
:10118B004408F5B4800353B4F053ADFB43AD0422D4
:10119B00EF131313541FFEEF5407FFED6034EE7083
:1011AB000D04A807088002C333D8FC42F922EEB421
:1011BB00010E7401A807088002C333D8FC42FA223F
:1011CB00EE6402704304A807088002C333D8FC42C4
:1011DB00FB22EE700E04A807088002C333D8FCF480
:1011EB0052F922EEB4010F7401A807088002C33331
:1011FB00D8FCF452FA22EEB4020E7401A807088050
:10120B0002C333D8FCF452FB22EF131313541FFE0B
:10121B00EF5407FFED6034EE700D04A80708800251
:10122B00C333D8FC429722EEB4010E7401A8070811
:10123B008002C333D8FC42E522EE6402704304A85B
:10124B0007088002C333D8FC42FC22EE700E04A8C0
:10125B0007088002C333D8FCF4529722EEB4010F77
:10126B007401A807088002C333D8FCF452E522EEC0
:10127B00B4020E7401A807088002C333D8FCF452E1
:10128B00FC22EF131313541FFEEF5407FFED6034D2
:10129B00EE700D04A807088002C333D8FC428022ED
:1012AB00EEB4010E7401A807088002C333D8FC42C8
:1012BB009022EE6402704304A807088002C333D85F
:1012CB00FC42A022EE700E04A807088002C333D89C
:1012DB00FCF4528022EEB4010F7401A807088002BF
:1012EB00C333D8FCF4529022EEB4020E7401A8075B
:1012FB00088002C333D8FCF452A0229000AF120333
:10130B005EE47F10FEFDFC9000B312031D12018002
:10131B009000B712035EE47B02FAF9F89000B71263
:10132B00031112020B9000AF12031D1201739000F8
:10133B00B712031D12020B9000B712035E9000B799
:10134B0012031DC3E49BFF74049AFEE499FDE49819
:10135B00FC9000B712035E9000B7120311780812CD
:10136B0002BBAB079000B7120311EB5403F5BA8F16
:10137B00AA22C0E0C0F0C083C082C0D075D000C02C
:10138B0000C001C002C003C004C005C006C007E511
:10139B00C830E11053C8FD90013012039BE94A603D
:1013AB0003120424E5C930E11053C9FD9001331237
:1013BB00039BE94A6003120424E5CA30E11053CAC7
:1013CB00FD90013612039BE94A6003120424D007F7
:1013DB00D006D005D004D003D002D001D000D0D09D
:1013EB00D082D083D0F0D0E032AD07AC06C3ED9401
:1013FB00FEEC947F4007E4900102F0FF229000F78F
:10140B00E0FFA3E09000B6CFF0A3EFF012187590B9
:10141B000102E07015D39000B7E09D9000B6E09C00
:10142B0050149001027401F0800CD3ED9FEC9E5090
:10143B0005E4900102F0900102E0FF22C0E0C0F051
:10144B00C083C082C0D075D000C000C001C002C034
:10145B0003C004C005C006C0077F0C1216BFEF60A7
:10146B00137F0C1215C89000E0E070089000F6E0B6
:10147B00700204F0D007D006D005D004D003D00200
:10148B00D001D000D0D0D082D083D0F0D0E032E4E5
:10149B00FF900101F09000E6F09000E0F09000F07A
:1014AB00F09000F6F09000EFF09000FBF09000E36E
:1014BB00F0900103F0A3F0900102F09000E2F090A5
:1014CB0000F3F0A3F09000F5F09000E1F01219D9C1
:1014DB0012193A1219F6900100E06002E4F00219B9
:1014EB0080C0E0C0F0C083C082C0D075D000C00007
:1014FB00C001C002C003C004C005C006C007E5F6AA
:10150B0030E00D90014512039BE94A60031204245D
:10151B0075F601D007D006D005D004D003D002D089
:10152B0001D000D0D0D082D083D0F0D0E032C0E058
:10153B00C0F0C083C082C0D075D000C000C001C055
:10154B0002C003C004C005C006C00730980F90014D
:10155B004212039BE94A6003120424C298D007D0BD
:10156B0006D005D004D003D002D001D000D0D0D00B
:10157B0082D083D0F0D0E0329000E0E07013900086
:10158B00E2F090C900E054FEF090C90AE4F0A3F039
:10159B00229000E2E06013E4F09000F1E0FFA3E0A2
:1015AB009000F3CFF0A3EFF0800A9000F37403F0F8
:1015BB00A374E8F09000F0E0700204F022EF131334
:1015CB0013541FFEEF5407FFEE700E04A80708809C
:1015DB0002C333D8FCF452E122EEB4010F7401A81C
:1015EB0007088002C333D8FCF452E222EEB4020E99
:1015FB007401A807088002C333D8FCF452E322120B
:10160B00193A9000E07401F0E49000F0F09000F6CD
:10161B00F09000EFF0900103F0A3F0900101F09037
:10162B0000E6F09000E204F0E49000F3F0A3F090F9
:10163B0000F5F09000E1F0121992020006E4900020
:10164B00EFF0900103F0A3F09000E0F09000F0F0C9
:10165B009000F6F09000FBF09000E3F09000E2F0C9
:10166B009000F3F0A3F09000E1F01219D990010073
:10167B00E060031218550219809000C8E0FEA3E049
:10168B00FFAB07AA06121A04C3EF9BEE9A4007EFB3
:10169B009BFFEE9A800EC374E89BFD74039AFCEDDE
:1016AB002FFFEC3E9000DEF0A3EFF09000DEE0FEAB
:1016BB00A3E0FF22EF131313541FFEEF5407FFEEAB
:1016CB00700DE5E1A807088002C313D8FC801CEE5F
:1016DB00B4010DE5E2A807088002C313D8FC800B08
:1016EB00E5E3A807088002C313D8FC5401FF22903E
:1016FB0000E0E07007900103F0A3F022C390010417
:10170B00E094FF900103E094FF5007E475F00112A1
:10171B000128C3900104E09401900103E094004080
:10172B00069000EF7401F022AB07AA0643DF0843D3
:10173B00E70890C900E04440F0EC90C90DF0ED9043
:10174B00C90CF0EB24FFEA34FF90C90FF0EB1490B7
:10175B00C90EF090C9067401F090C905E04401F080
:10176B0022AB07AA0643DF2043E72090CA00E044E0
:10177B0040F0EC90CA0DF0ED90CA0CF0EB24FFEAB0
:10178B0034FF90CA0FF0EB1490CA0EF090CA067497
:10179B0001F090CA05E04401F0229000AB12035E09
:1017AB0043DE0143E601439E01E4900141F0C29FF9
:1017BB00D29EC299C2989000AB1203119000B31243
:1017CB00035E90013D120311121306D29C53F33F9B
:1017DB00229000AFE06401702743DE1043E610EF68
:1017EB00C4333354C0FFE5AC54BF4FF5ACE4F5FE46
:1017FB00F5FFEBF5FEEAF5FFE5FD54FE4DF5FD2299
:10180B0053DEEF53E6EF2212002690005FE475F0F3
:10181B000112013EFC741C25F0F58274003CF5832B
:10182B00EFF090005C7401F022121121E5AD20E283
:10183B00FBE5F630E0FB75F601120036D3EF94FFB3
:10184B00EE940F40047E0F7FFF22E49000FBF0909C
:10185B0000E304F090CA00E054FEF090CA0AE4F0F2
:10186B00A3F090CA00E04401F022D39000F8E0947A
:10187B00F49000F7E09401400DA3E0240CFF9000DE
:10188B00F7E034FEFE22E4FEFF229000FBE060173F
:10189B00E4F09000E3F09000E0E0700B900100E0CA
:1018AB0060057F0912149A22C0E0C083C082E5A6AE
:1018BB0030E3099001487401F075A32075A3FFD0A4
:1018CB0082D083D0E03290CA00E054FEF090CA0A76
:1018DB00E4F0A3F09000E3E06007E4F09000FB0479
:1018EB00F02253F7F8EF24FC600B14600C24027009
:1018FB000B43F7032243F7042243F705227F707E45
:10190B0003EF4E7003FE7F01D3EF94E8EE94034098
:10191B00047E037FE822E490005CF0FF7EC27D0131
:10192B00FC1217A57BFF7A1879127F010219C8E404
:10193B009000E3F09000FBF090CA00E054FEF090B2
:10194B00CA0AE4F0A3F022C3EF94E8EE9403400438
:10195B00E4FEFF22C374E89FFF74039EFE2290C92E
:10196B0000E054FEF0EF90C90AF0EEA3F090C9002E
:10197B00E04401F0227F0C1215C87BFF7A0079221C
:10198B007D017F0C0209E67F0C1215C87BFF7A00E4
:10199B007922E4FD7F0C0209E6EFB4010753ADFE9B
:1019AB0053ADFD2243AD0243AD012243AC20EF709A
:1019BB000553ACFD800343AC0253B5FE22EFB401DB
:1019CB000AD2AFD2AC9001420203BBC2AC2290C987
:1019DB0000E054FEF090C90AE4F0A3F0227D017FF1
:1019EB000A12128D7D017F0B02128DE4FD7F0A120C
:1019FB00128DE4FD7F0B02128D90C90AE0FDA3E06E
:101A0B00FCEDAE04FF22EFB4010443AC012253AC56
:0D1A1B00FE227F007E367D6E7C010208BB3E
:00000001FF
