:020000040800F2
:1000000048020020D9000008610A00085D0A0008C3
:1000100000000000000000000000000000000000E0
:100020000000000000000000000000004D0B000870
:100030000000000000000000630A0008B90C00087E
:10004000EB000008EB00000800000000EB000008D7
:10005000EB000008EB000008EB000008FB020008C2
:100060000000000000000000000000000000000090
:100070000F020008EB000008EB0000080000000081
:10008000110D00080000000000000000EB00000857
:10009000000000000000000000000000EB0000086D
:1000A00000000000EB00000800000000EB0000086A
:1000B000EB0000080000000000000000000000004D
:1000C0000448854600F02CF800480047CB0F000894
:1000D000C046C04648020020044880470448004704
:1000E000FEE7FEE7FEE7FEE7FEE7FEE7D10C0008CD
:1000F000C100000830B50B46014600202022012433
:1001000009E00D46D5409D4205D31D469540491B4B
:100110002546954040191546521E002DF1DC30BD94
:10012000064C0125064E05E0E36807CC2B430C3C4A
:1001300098471034B442F7D3FFF7C6FFD80F000832
:10014000F80F0008002904D0826E01231A4382664A
:1001500003E0826E5208520082667047426E1209B6
:1001600012010B071B0F1A434266704770B507292F
:1001700011DD0B46083BD9B2036E8D000F24AC4055
:10018000A3438D001446AC408E000F25B5402C4093
:10019000234303660DE0C36D8D000F24AC40A343E1
:1001A0008D001446AC408E000F25B5402C402343F3
:1001B000C36570BD012902D10122426103E0022919
:1001C00001D1022242617047002904D04268012314
:1001D0001A43426003E0426852085200426070478E
:1001E00010B504460548844207D10121401500F0AE
:1001F00059FC0021601500F055FC10BD00240140A1
:1002000002468B0010461830C05880B2704710B5B7
:1002100000F0CCF910BD10B5002A0DD0012904D191
:10022000836801242343836012E0022910D183688C
:100230000224234383600BE0012903D183688B43AD
:10024000836005E0022903D183680224A34383600D
:1002500010BD000010B54268174B1A40164CE4431D
:100260004B6823401A43426042680723DB019A43EC
:100270000724E4010B6823401A434260826801238B
:10028000DB029A430124E4020B6923401A43826093
:10029000826803235B029A43032464028B68234031
:1002A0001A4382608268054B1A40044CE443CB68D1
:1002B00023401A43826010BD8FBFFFFF8FFFF9FFFD
:1002C00042680F239B029A430B401A4342607047D7
:1002D000002905D08268FF2301331A43826004E0BD
:1002E0008268FF2301339A438260704700210160D6
:1002F000416081600161C160704710B5802000F0ED
:100300000FF8002804D0802000F004F800F0FEF977
:1003100010BD000001494861704700000004014021
:100320000146074840690840002806D00448006894
:100330000840002801D0012070470020FCE70000A1
:10034000000401408179002948D02D4909680268DC
:1003500091432B4A11601146496802689143284A2B
:1003600051600179002906D11146096802681143DC
:10037000234A116005E02249496802681143204A76
:1003800051601F498968026891431D4A9160114676
:10039000C968026891431A4AD160417910290CD189
:1003A0001146896802681143154A91601146C9686F
:1003B00002681143124AD16020E04179082906D130
:1003C0000F498968026811430D4A916016E00C4993
:1003D000C968026811430A4AD1600FE00179002917
:1003E00006D10749096802689143054A116005E092
:1003F0000349496802689143014A5160704700000F
:10040000000401400021016001710C2141710021B3
:1004100081717047F8B50246CD782F073F0FCD7830
:1004200010263540002D01D08D782F431446002032
:1004300011E085062B0E0D88012686403540002DE3
:1004400007D025680F269E40B5433E469E40354363
:100450002560451CE8B20828EBDB141D0D882D1221
:100460000095002011E085062B0E01258540009E99
:100470003540002D07D025680F269E40B5433E46E7
:100480009E4035432560451CE8B20828EBDBCD785B
:10049000282D04D155690E883543556106E0CD7885
:1004A000482D03D115690E8835431561F8BD4161AA
:1004B00070470021C9430180032181700421C1706C
:1004C0007047002A01D0016100E0416170470000DF
:1004D00000B587B00121480200F0D4FA3148FFF797
:1004E0007FFE02A8FFF702FF002002907020039019
:1004F00001204002049000200590069002A929489E
:10050000FFF7A8FE072189022648FFF7D9FE00223F
:1005100011462448FFF72AFE012211462148FFF721
:1005200025FE022211461F48FFF720FE0322114636
:100530001C48FFF71BFE052204211A48FFF716FE90
:1005400004211848FFF70AFE01211648FFF7FAFDBB
:1005500000201549087001211248FFF72BFE0122E7
:1005600011461048FFF757FE0C2000F0C7FC02218F
:100570000C2000F0DFFC0C2000F0CCFC012109482D
:10058000FFF722FE0020019003E000BF0198401C0D
:10059000019001984028F8D301210248FFF798FE06
:1005A00007B000BD002401401B00002010B5224808
:1005B0004069C007C00F00283CD001211E48FFF74A
:1005C000F9FD1E480078052804D21C480078401C1C
:1005D0001A4908701948007805282BD300201749BC
:1005E000087000211448FFF70BFE1549088001210F
:1005F0001148FFF705FE1249488002210E48FFF717
:10060000FFFD0F49888003210B48FFF7F9FD0C49D6
:10061000C88005210848FFF7F3FD0949088109480A
:100620000068401C0749086000F00EF801210248EC
:10063000FFF74EFE10BD0000002401401B0000200B
:100640003C000020040000207047000010B500F0BE
:10065000D9F800F051F900F0AFF8FFF739FF0020AA
:100660000849087008490870084908700849088056
:1006700008490860084908600849087000F012F845
:1006800010BD0000190000201A0000200C000020FE
:100690000E00002010000020140000201800002090
:1006A00070470000F8B517480078002801D10120F4
:1006B00000E0002004462546002C01D1012000E086
:1006C0000020074601232A4659020920C00600F0EF
:1006D000ABF901233A4619020920C00600F0A4F93B
:1006E00009480078012802D10648067800E026462D
:1006F00000233246012189020920C00600F094F946
:10070000F8BD00000C0000201C00002070B522483D
:100710000068401C204908602048007800280AD161
:1007200001201E49087000201D4908801D490870DD
:1007300000F03CF970BD1C4800F02AFB85B2184857
:100740000580284600F0B2F8044616480470002CD4
:1007500017D000F02BF915480068401C13490860B9
:1007600013480078072804D211480078401C10492B
:1007700008700F48007807280BD3012000F040F9DB
:1007800007E00C480068401C0A490860002008493E
:10079000087000BFCEE70000080000201A0000200B
:1007A0000E0000201800002000040040100000206F
:1007B00019000020140000201CB50121880700F05A
:1007C00061F90721002000F0C3F98020FFF7A2FDA6
:1007D0006846FFF717FE80200090002168460171EF
:1007E0000C21417101218171FFF7ACFD072000F060
:1007F00085FB0021072000F09DFB072000F08AFB0D
:100800001CBD000008B501210320400400F02AF9B6
:100810000F2109020920C006FFF749FE6846FFF7CD
:1008200048FE0F21090268460180032181701021D2
:10083000C17069460920C006FFF7ECFD6846FFF766
:1008400038FE802168460180032181700421C17037
:1008500069460920C006FFF7DDFD6846FFF729FE5F
:10086000104968460180012181700021C1706946EC
:100870000920C006FFF7CEFD6846FFF71AFE0321E8
:1008800068460180012181700021C17069460648D7
:10089000FFF7C0FD0121C9020920C006FFF707FECE
:1008A00008BD00000C1000000004004810B501460F
:1008B00041234B240A469A4203D3A24201D8012085
:1008C00010BD0020FCE7000010B50121094800F030
:1008D00062FA00280CD00121064800F01DFA002120
:1008E000044800F01CFA00F079F8002000F088F8C5
:1008F00010BD00000004004030B585B00121022089
:1009000000F0C0F8264800F017FA254800F050FA29
:10091000054624492846FFF7EDFB0446002C0BD082
:1009200020492846FFF7E6FB002905D100BF00BF9C
:1009300000BF00BF00BF01E000BFFEE7684600F057
:10094000D3FA601E81B268460180002001901648EB
:100950000290002003900021684601746946104807
:1009600000F094FA08210E4800F086FA00210C48A5
:1009700000F0D5F901210A4800F0CEF9102000F06E
:10098000BDFA01221146064800F06CFA0121102040
:1009900000F0D0FA102000F0BDFA05B030BD000024
:1009A0000004004040420F00DB05000010B50021AC
:1009B000094800F0B4F90121074800F0ADF9102012
:1009C00000F09CFA0021044800F05DFA0121024881
:1009D00000F0A5F910BD000000040040002004490B
:1009E0000870044908700449088004490870704779
:1009F0001A000020190000200E000020180000201E
:100A000070B50446002C01D0012000E0002005460E
:100A100004480078A84203D002480570FFF742FE60
:100A200070BD00000C000020F8B506460F461446C5
:100A30001D46002D06D0002C01D0012000E0002032
:100A4000009005E0002C01D1012000E00020009082
:100A500039463046009AFFF734FDF8BD00BFFEE787
:100A600070477047002905D0054A52690243044B7C
:100A70005A6104E0024A52698243014B5A6170474D
:100A800000100240002905D0054AD2690243044BF8
:100A9000DA6104E0024AD2698243014BDA617047AD
:100AA00000100240002905D0054A12690243044B98
:100AB0001A6104E0024A12698243014B1A617047CD
:100AC0000010024010B5002100221A4B5B680C2474
:100AD00023401946002906D0042907D0082908D048
:100AE0000C290CD108E0144B03600BE0124B03609F
:100AF00008E0124B036005E0114B036002E00E4B6F
:100B0000036000BF00BF0B4B5B68F0242340190952
:100B10000C4B5A5C0368D3404360064B5B68072468
:100B200024022340190A084B5A5C4368D34083606F
:100B300010BD00000010024000127A00006CDC02C0
:100B4000409C00001D0000202D0000207047000088
:100B500030B500228B071C0F0F23A3401A468B10C1
:100B6000002B0ED1224B9B689343214CA36023465C
:100B70009B688C07250F0446AC4023431C4CA360A4
:100B800034E08B10012B0ED1194BDB689343184CCA
:100B9000E3602346DB688C07250F0446AC40234303
:100BA000134CE36022E08B10022B0ED1104B1B691B
:100BB00093430F4C236123461B698C07250F044682
:100BC000AC4023430A4C236110E08B10032B0DD162
:100BD000074B5B699343064C636123465B698C0753
:100BE000250F0446AC402343014C636130BD000037
:100BF000000001401CB5002001900120009000245D
:100C000028480068012108432649086000BF25489C
:100C10000068022108400028F9D0234823490860D1
:100C200023480068C008C0002149086008460068E1
:100C3000102108431E4908601C490968481E1D49C7
:100C4000FFF758FA0446012C00D90124184800681F
:100C500020431749086013484468F0212046884320
:100C6000044600BF0F48446044680721090220463B
:100C70008843044600BF0B484460406880088000F9
:100C80000849486008464068022108430549486011
:100C900000E000BF034840680C2108400828F8D154
:100CA0001CBD000000100240006CDC023800002077
:100CB0000020024000366E0104480068002804D07D
:100CC00002480068401E014908607047000000208B
:100CD00010B50D480068012108430B49086008461B
:100CE00040680A49084008494860084600680121F0
:100CF00009048843044908600020C043886000203C
:100D00008860FFF777FF10BD001002400CF8FFF875
:100D100010B5FFF7D9FD10BDCA4302617047002925
:100D200004D0026801231A43026003E002685208FB
:100D3000520002607047000010B50446114884421A
:100D400008D101210420FFF7ADFE00210420FFF7A8
:100D5000A9FE16E00C48844208D101210220FFF7C9
:100D6000A1FE00210220FFF79DFE0AE00748844211
:100D700007D101210820FFF795FE00210820FFF789
:100D800091FE10BD002C01400004004000400140D5
:100D90000146486A7047024610690840002805D09D
:100DA000D0680840002801D0012070470020FCE7EF
:100DB000F0B58BB00646002400200A9000250027DD
:100DC00020A103C90991089020A001460EC9C0685E
:100DD000069305920491079001A8FFF773FE039C08
:100DE0001E484068072109020840050A1C4886423F
:100DF0001DD11A484068F0210840070904A8C05DC9
:100E0000002808D108A8405D002801D1204600E054
:100E100060000A9013E008A8405D002801D160003E
:100E200000E0A00004A9C95DC8400A9007E008A836
:100E3000405D002801D1204600E060000A900A9839
:100E40000BB0F0BD0000000002040810000000001C
:100E50000000000001020304060708090010024018
:100E6000002C0140002A03D0C3680B43C36002E09A
:100E7000C3688B43C3607047026808239A430B40E2
:100E80001A430260704741627047000010B5026863
:100E900003231B029A4303242402CB6823401A43F2
:100EA00002600F4A904202D00E4A904207D1026877
:100EB00070239A4370244B6823401A430260084A07
:100EC000904205D1026B120A12020B7C1A43026394
:100ED0008A68C2620A8882620122426110BD0000F3
:100EE000002C0140000400400021C9438160002122
:100EF0000180C1604160017470470000002805DB7B
:100F0000C206D20E01219140014A116070470000D3
:100F100080E200E0002809DB00BF00BFC206D20E5D
:100F200001219140024A116000BF00BF70470000DC
:100F300000E100E010B5002819DB1A4A03231B0268
:100F4000D21883089B00D2588307DC0EFF23A340EE
:100F50009A438B071B0E8407E40EA3401A43114BE0
:100F6000032424021B198408A4001A5118E00E4A15
:100F700003071B0F083B9B089B00D2588307DC0E1E
:100F8000FF23A3409A438B071B0E8407E40EA34064
:100F90001A43054B0407240F083CA408A4001A5167
:100FA00010BD000000E100E01CED00E002E008C818
:100FB000121F08C1002AFAD170477047002001E0D3
:100FC00001C1121F002AFBD17047FFF73FFB01E070
:100FD000FFF766FBFCE70000F80F000800000020A8
:100FE0003C000000AC0F0008341000083C0000205A
:100FF0000C020000BC0F0008000000000000000010
:1010000000000000000000000000000000000000E0
:1010100000000000000000000000000000010203CA
:101020000406070809000000000102030400000094
:04103000006CDC0272
:04000005080000C12E
:00000001FF
