:100000000211DF02092E53F7F8EF24FC600B146095
:100010000C2402700B43F7032243F7042243F70535
:0200200022229A
:0E00230002163BAB070218B00214C7AF9922B9
:100033000215EEE5B7540FFEAFB6D3EF9401EE947D
:1000430000400774052FFFE43EFED3EF94FFEE94C8
:0B0053000F40047E0F7FFF22021863A5
:10006300020DEBEF131313541FFEEF54079000AB75
:10007300F0EE700743DF0143E70122EEB4010743CB
:10008300DF0243E70222EEB4020643DF0443E70440
:0B00930022EF8FF553B4EF2202109211
:0300A300020FEB5E
:1000AB00020F44BB010689828A83E0225002E722B9
:1000BB00BBFE02E32289828A83E49322BB010CE517
:1000CB008229F582E5833AF583E0225006E9258201
:1000DB00F8E622BBFE06E92582F8E222E58229F545
:1000EB0082E5833AF583E49322BB010689828A83F6
:1000FB00F0225002F722BBFE01F322F8BB010DE503
:10010B008229F582E5833AF583E8F0225006E9254A
:10011B0082C8F622BBFE05E92582C8F222A3F8E0CD
:10012B00C5F025F0F0E582158270021583E0C83822
:10013B00F0E822BB010A89828A83E0F5F0A3E02272
:10014B00500687F009E71922BBFE07E3F5F009E338
:10015B00192289828A83E493F5F074019322BB01FF
:10016B000789828A83020458500B09C5F027F7C50B
:10017B00F01937F722BBFE0D09F8E325F0F3C5F0B4
:10018B0019E338F322F889828A8374019325F0C529
:10019B00F0F8E4933822EF2BFFEE3AFEED39FDEC4D
:1001AB0038FC22E88FF0A4CC8BF0A42CFCE98EF069
:1001BB00A42CFC8AF0EDA42CFCEA8EF0A4CDA8F0C4
:1001CB008BF0A42DCC3825F0FDE98FF0A42CCD3588
:1001DB00F0FCEB8EF0A4FEA9F0EB8FF0A4CFC5F0F2
:1001EB002ECD39FEE43CFCEAA42DCE35F0FDE43CEB
:1001FB00FC2275F008758200EF2FFFEE33FECD3336
:10020B00CDCC33CCC58233C5829BED9AEC99E5827C
:10021B0098400CF582EE9BFEED9AFDEC99FC0FD508
:10022B00F0D6E4CEFBE4CDFAE4CCF9A88222B800F8
:10023B00C1B90059BA002DEC8BF084CFCECDFCE5C3
:10024B00F0CBF97818EF2FFFEE33FEED33FDEC33E7
:10025B00FCEB33FB10D703994004EB99FB0FD8E56C
:10026B00E4F9FA227818EF2FFFEE33FEED33FDECB5
:10027B0033FCC933C910D7059BE99A4007EC9BFCAB
:10028B00E99AF90FD8E0E4C9FAE4CCFB2275F01037
:10029B00EF2FFFEE33FEED33FDCC33CCC833C8105C
:1002AB00D7079BEC9AE899400AED9BFDEC9AFCE88A
:1002BB0099F80FD5F0DAE4CDFBE4CCFAE4C8F922D7
:1002CB00EF4BFFEE4AFEED49FDEC48FC22EB9FF5B0
:1002DB00F0EA9E42F0E99D42F0E89C45F022E8608E
:1002EB000FECC313FCED13FDEE13FEEF13FFD8F170
:1002FB0022E8600FEFC333FFEE33FEED33FDEC333B
:10030B00FCD8F122BB010DE58229F582E5833AF594
:10031B008302033F5007E92582F802046EBBFE07F8
:10032B00E92582F802047AE58229F582E5833AF51C
:10033B0083020486E0FCA3E0FDA3E0FEA3E0FF2222
:10034B00E0F8A3E0F9A3E0FAA3E0FB227401FF338A
:10035B0095E0FEFDFCA3A3A3E0CF2FF0E582158271
:10036B0070021583E0CE3EF0E58215827002158394
:10037B00E0CD3DF0E582158270021583E0CC3CF0B8
:10038B0022ECF0A3EDF0A3EEF0A3EFF022A8828510
:10039B0083F0D083D0821203AF1203AF1203AF12DC
:1003AB0003AFE473E493A3C583C5F0C583C8C582CB
:1003BB00C8F0A3C583C5F0C583C8C582C822E0FBBE
:1003CB00A3E0FAA3E0F922F8E0FBA3A3E0F925F000
:1003DB00F0E582158270021583E0FA38F022EBF01B
:1003EB00A3EAF0A3E9F022D083D082F8E493701251
:1003FB00740193700DA3A393F8740193F582888312
:10040B00E4737402936860EFA3A3A380DFD083D05F
:10041B0082E4937012740193700DA3A393F874018B
:10042B0093F5828883E4737402936C701274039354
:10043B006D700C7404936E70067405936F60DDA37E
:10044B00A3A3A3A3A380CA8A838982E473C5F0F80C
:10045B00A3E028F0C5F0F8E582158270021583E061
:10046B0038F022E6FC08E6FD08E6FE08E6FF22E28D
:10047B00FC08E2FD08E2FE08E2FF22E493FC7401B3
:10048B0093FD740293FE740393FF22E50824AEF5EB
:10049B0082E43400F583E00508229000AB300703BB
:1004AB009000AEE475F0011203D20200AE2000E919
:1004BB007F2ED2008018EF540F2490D43440D4FFF9
:1004CB0030040BEF24BFB41A0050032461FFE5097D
:1004DB0060021509050CE50C7002050B30070E9038
:1004EB0000ABE475F0011203D2EF0200F402002618
:1004FB007403D2078003E4C207F5089000AB120324
:10050B00E9E4F509F50BF50CE50960077F2012040A
:10051B00D980F5750AFFC201C200C202C203C2052F
:10052B00C206C2081204A5FF700D3007057F00122A
:10053B0004EAAF0CAE0B22B4255FC2D5C204120481
:10054B00A5FF24D0B40A00501A75F00A780930D5EB
:10055B000508B6FF0106C6A426F620D5047002D204
:10056B000380D924CFB41A00EF5004C2E5D20402A1
:10057B0006EBD20180C6D20080C0D20280BCD2D59D
:10058B0080BAD20580B47F201204D92002077401EF
:10059B00B5090040F1120496FF1204D9020513D2DB
:1005AB0008D2068095120496FB120496FA12049652
:1005BB00F94A4B700679BC7A077BFF20022EE509BE
:1005CB00602A7E008E827583001200C760060EEED5
:1005DB00650A70F0C2D5EBC0E0EAC0E0E9C0E0EE1E
:1005EB00120732D0E0F9D0E0FAD0E0FB1200AEFFF8
:1005FB0060AAEBC0E0EAC0E0E9C0E01204D9D0E0A9
:10060B002401F9D0E03400FAD0E0FBE50A0460DC09
:10061B00D50AD980877BFF7A07792ED202809C7905
:10062B001080027908C206C2088008D2D5790A80E8
:10063B0004790AC2D5E50A047002F50AE4FAFDFE54
:10064B00FF120496FC7B08200113120496FD7B100D
:10065B0030000A120496FE120496FF7B20EC3382C4
:10066B00D592D55013C3E43000069FFFE49EFEE401
:10067B002001039DFDE49CFCE4CBF8C201EC700C63
:10068B00CFCECDCCE824F8F870F38017C3EF33FF4F
:10069B00EE33FEED33FDEC33FCEB33FB994002FB09
:1006AB000FD8E9EB300105F8D0E0C448B201C0E047
:1006BB000AEC4D4E4F78207B0070C2EAB50A004021
:1006CB00BCC0E0120734D0F0D0E0200104C4C0E07D
:1006DB00C4B201C0F01204C2D0F0D5F0EB02051386
:1006EB001203F205B053062A5805814C057D4206CC
:1006FB002E4F063644063649059643063C550620D2
:10070B004606204506204707DC5005852D05892E1A
:10071B0005AC2B058D2305AA2007C52A05454800E6
:10072B000005A43F3F3F00790AA2D52003143005F2
:10073B0009B910020404B9080104A2D5200602501D
:10074B0001042002689202B509005034C0E07F20FA
:10075B003003197F30A20272067205500F12078BFD
:10076B00C202C206C205C2087F30800F300503E902
:10077B00C0E01204D9300503D0E0F9D0E0B509CCC4
:10078B003005177F30B9100C1204D97F583004078D
:10079B007F788003B908031204D93002057F2D023C
:1007AB0004D97F202008F87F2B2006F322920280A9
:1007BB00CF286E756C6C2900D2011204963001F8AB
:1007CB00C201780930D50108F60205452D50434981
:1007DB00581204962403B405004001E49007D79304
:1007EB001204CA743A1204CAD20375090402062A07
:1007FB0044012B00000000440127000000004200D0
:10080B00E200004200EB00004200E900C84200E4B5
:10081B0000004200F500004200E000004100F10042
:10082B004100F0004100D8004100F2004200EE0010
:10083B00004100E8004100D7004100DF004100ED1E
:10084B00004200E600004200DD00004200DB000039
:10085B004200D900004200F3000060480063000032
:10086B00000000000000000000000000000000007D
:10087B00000000000000000000000000000000006D
:10088B00000000000000000000000000000000005D
:10089B00000000000000000000000000000000004D
:1008AB0000000000000041012F0043013000000058
:1008BB004301330000004901030000000000000069
:1008CB00000049010C00000000000000000049017D
:1008DB00150000000000000000004C00F7000000B5
:1008EB000000000000000000004101360049011E1D
:1008FB0000000000000000000041001B004100044C
:10090B000044000000000000420005000042005DB2
:10091B00000242005F00004200610000C10BC10AEF
:10092B00C10900C0E0C0F0C083C082C0D075D00048
:10093B00C000C001C002C003C004C005C006C00790
:10094B007F0C1216C7EF7003020A3D7F0C1216853F
:10095B007B017A0079E61218C67F021218229000EA
:10096B00E2EEF0A3EFF0E4FD7F081213D79000E264
:10097B00E0FEA3E0FF12159B9000E8EFF0700F7BF9
:10098B00017A0079DB1218C6E4FD7F03803512195A
:10099B003A9000D3EEF0A3EFF09000EEEEF0A3EF61
:1009AB00F09000D8E06021C39000D4E09458900000
:1009BB00D3E0940250127B017A0079DD1218C6E461
:1009CB00FD7F021217DE80719000D8E06023D39078
:1009DB0000D4E094149000D3E0940540149000F000
:1009EB00E06006A37403F080149000F17401F080B2
:1009FB000C9000F1E0C394035003E004F09000D896
:100A0B007401F012189A7B017A0079D91218C690EA
:100A1B0000F0E07016A3E0C39403400F9000F07455
:100A2B0001F012191E7D017F058004E4FD7F041285
:100A3B0017DE7D017F081213D7D007D006D005D063
:100A4B0004D003D002D001D000D0D0D082D083D03C
:100A5B00F0D0E0329000AB12038C9000AF120398F1
:100A6B000000000043F804E5F830E5FB9091AAE0A4
:100A7B00FFE4FCFDFE78101202FCC004C005C006AA
:100A8B00C007A3E0FFE4FCFDFE78181202FCD003C4
:100A9B00D002D001D0001202CBC004C005C006C0EA
:100AAB00079091A9E0FFE4FCFDFE78081202FCD050
:100ABB0003D002D001D0001202CBA804A905AA06CC
:100ACB00AB079091A8E0FFE4FCFDFE1202CB900176
:100ADB002712038C7FC07E0A7D707C019001271248
:100AEB00034BD31202D850167F407E617D6C7C0184
:100AFB0090012712034BC31202D84002801274FFDD
:100B0B00FFFEFDFC90012712034BC31202D8700CA1
:100B1B009000AF12039802DC6C008015E47F02FE9C
:100B2B00FDFC90012712034B1201AE9000AF120394
:100B3B008C9000AB12033F1204180B6B00B71B0019
:100B4B000B6300F424000B5B016E360000000B639B
:100B5B0075EE01E47B02800E75EE02E47B038006EA
:100B6B0075EE03E47B04FAF9F89000AF12033F1221
:100B7B00023990012B12038C53F8FE53D9F82290B3
:100B8B0000D7E07003020C76E4F01218437BFF7A77
:100B9B0019795E9000E2E0FDA3E09000AECDF0A3EA
:100BAB00EDF09000EBE0FDA3E09000B0CDF0A3EDF5
:100BBB00F09000E9E0FDA3E09000B2CDF0A3EDF0E2
:100BCB00A3E4F0A37478F0A3EEF0A3EFF09000EEA3
:100BDB00E0FFA3E09000B8CFF0A3EFF09000F1E0BE
:100BEB00FF9000BAE4F0A3EFF09000F0E0FF90006C
:100BFB00BCE4F0A3EFF09000F2E0FF9000BEE4F055
:100C0B00A3EFF09000E8E0FF9000C0E4F0A3EFF05A
:100C1B009000E6E0FFA3E09000C2CFF0A3EFF090CE
:100C2B0000DDE0FFA3E09000C4CFF0A3EFF0900055
:100C3B00DBE0FFA3E09000C6CFF0A3EFF09000D96C
:100C4B00E0FFA3E09000C8CFF0A3EFF09000F3E03B
:100C5B00FFA3E09000CACFF0A3EFF09000EDE0FF10
:100C6B009000CCE4F0A3EFF012050122AC07EF13D8
:100C7B001313541F9000ABF0EF5407A3F0ED60601B
:100C8B00EC75F003A42463F582E43400F5831203BE
:100C9B00E9D2AFD2A81216859000ABE0FF7011A37A
:100CAB00E0FE7401A806088002C333D8FC42E92297
:100CBB00EFB401139000ACE0FF7401A807088002A9
:100CCB00C333D8FC42EA229000ABE06402705CA311
:100CDB00E0FF7401A807088002C333D8FC42EB2263
:100CEB00C2A89000ABE0FF7012A3E0FE7401A8064F
:100CFB00088002C333D8FCF452E922EFB4011490FC
:100D0B0000ACE0FF7401A807088002C333D8FCF4E1
:100D1B0052EA229000ABE0B40211A3E0FF7401A8E9
:100D2B0007088002C333D8FCF452EB22EF131313E2
:100D3B00541FFEEF5407FFED604FEE701690C0008E
:100D4B00C083C082E0FE7401A807088002C333D8B9
:100D5B00FC8033EEB4011690C001C083C082E0FE6C
:100D6B007401A807088002C333D8FC8019EE640213
:100D7B00706D90C002C083C082E0FE7401A80708AA
:100D8B008002C333D8FC4E8051EE701890C000C067
:100D9B0083C082E0FE7401A807088002C333D8FC2D
:100DAB00F45E8036EEB4011890C001C083C082E0BF
:100DBB00FE7401A807088002C333D8FCF45E801AC6
:100DCB00EEB4021B90C002C083C082E0FE7401A887
:100DDB0007088002C333D8FCF45ED082D083F022A4
:100DEB00C0E0C0F0C083C082C0D075D000C000C0CE
:100DFB0001C002C003C004C005C006C00790C809EB
:100E0B00E030E01790C808E030E010A37401F090D8
:100E1B0000F71203C9E94A605D805890C809E030B9
:100E2B00E11790C808E030E110A37402F09000FACB
:100E3B001203C9E94A603F803A90C809E030E217D3
:100E4B0090C808E030E210A37404F09000FD120388
:100E5B00C9E94A6021801C90C809E030E31890C8AA
:100E6B0008E030E311A37408F09001001203C9E904
:100E7B004A6003120452D007D006D005D004D00329
:100E8B00D002D001D000D0D0D082D083D0F0D0E02F
:100E9B00329000AB1203E990C9057407F0EF6401BF
:100EAB00704FED24FE601C14602E2402703D9000E8
:100EBB00AB1203C99001031203E990C904E044018A
:100ECB00F080289000AB1203C99001061203E99041
:100EDB00C904E04402F080139000AB1203C99001E7
:100EEB00091203E990C904E04404F0D2AF43B801FE
:100EFB0022ED24FE601B14602C2402703B9000AB8F
:100F0B001203C99001031203E990C904E044FEF0F7
:100F1B00229000AB1203C99001061203E990C90499
:100F2B00E044FDF0229000AB1203C99001091203BB
:100F3B00E990C904E044FBF022C0E0C0F0C083C0DC
:100F4B0082C0D075D000C000C001C002C003C00475
:100F5B00C005C006C00790C905E030E01C90C9046D
:100F6B00E030E0159001031203C9E94A6003120453
:100F7B005290C9057401F0804C90C905E030E11C1A
:100F8B0090C904E030E1159001061203C9E94A60EB
:100F9B000312045290C9057402F0802990C905E030
:100FAB0030E21C90C904E030E2159001091203C92C
:100FBB00E94A600312045290C9057404F08006904C
:100FCB00C9057407F0D007D006D005D004D003D0E4
:100FDB0002D001D000D0D0D082D083D0F0D0E0327C
:100FEB00C0E0C0F0C083C082C0D075D000C000C0CC
:100FFB0001C002C003C004C005C006C00790CA05EB
:10100B00E030E01C90CA04E030E01590010C1203B4
:10101B00C9E94A600312045290CA057401F0804C6E
:10102B0090CA05E030E11C90CA04E030E115900154
:10103B000F1203C9E94A600312045290CA057402E5
:10104B00F0802990CA05E030E21C90CA04E030E23F
:10105B00159001121203C9E94A600312045290CA97
:10106B00057404F0800690CA057407F0D007D0060B
:10107B00D005D004D003D002D001D000D0D0D08284
:10108B00D083D0F0D0E032C0E0C0F0C083C082C0CB
:10109B00D075D000C000C001C002C003C004C005A1
:1010AB00C006C00790CB05E030E01C90CB04E030CD
:1010BB00E0159001151203C9E94A6003120452901E
:1010CB00CB057401F0804C90CB05E030E11C90CB4C
:1010DB0004E030E1159001181203C9E94A600312CC
:1010EB00045290CB057402F0802990CB05E030E2DE
:1010FB001C90CB04E030E21590011B1203C9E94AA6
:10110B00600312045290CB057404F0800690CB055B
:10111B007407F0D007D006D005D004D003D002D08E
:10112B0001D000D0D0D082D083D0F0D0E03290C0AC
:10113B0018E4F07F08120066E4FD7F081212E5E464
:10114B00FD7F0812135E7D017F081213D790C01A22
:10115B00E4F07F0A120066E4FD7F0A1212E5E4FD5B
:10116B007F0A12135EE4FD7F0A1213D790C01BE4B3
:10117B00F07F0B120066E4FD7F0B1212E5E4FD7F9E
:10118B000B12135EE4FD7F0B1213D77F0C1200665C
:10119B007D017F0C1212E5E4FD7F0C12135E7D01C5
:1011AB007F0C120D377BFF7A0079217D017F0C12AA
:1011BB000C7753B0FD43B00190C01C7420F0A3E436
:1011CB00F07F0D1200667D017F0D1212E57D017F10
:1011DB000D020D37787FE4F6D8FD758121021226BA
:1011EB0002153EE493A3F8E493A34003F68001F2C7
:1011FB0008DFF48029E493A3F85407240CC8C33305
:10120B00C4540F4420C8834004F456800146F6DFD3
:10121B00E4800B01020408102040809007FBE47E61
:10122B00019360BCA3FF543F30E509541FFEE493C8
:10123B00A360010ECF54C025E060A840B8E493A38F
:10124B00FAE493A3F8E493A3C8C582C8CAC583CABA
:10125B00F0A3C8C582C8CAC583CADFE9DEE780BE72
:10126B00EF1203F2128B01129502129F0412A908BE
:10127B0012B31012BD2012C74012D180000012DB36
:10128B00E5B454F04401F5B48049E5B454F044029C
:10129B00F5B4803FE5B454F04403F5B48035E5B4C0
:1012AB0054F04404F5B4802BE5B454F04405F5B484
:1012BB008021E5B454F04406F5B48017E5B454F03E
:1012CB004407F5B4800DE5B454F04408F5B480033D
:1012DB0053B4F053ADFB43AD0422EF131313541F60
:1012EB00FEEF5407FFED6034EE700D04A807088085
:1012FB0002C333D8FC42F922EEB4010E7401A807E5
:10130B00088002C333D8FC42FA22EE640270430415
:10131B00A807088002C333D8FC42FB22EE700E04F0
:10132B00A807088002C333D8FCF452F922EEB401AB
:10133B000F7401A807088002C333D8FCF452FA22B9
:10134B00EEB4020E7401A807088002C333D8FCF474
:10135B0052FB22EF131313541FFEEF5407FFED60E4
:10136B0034EE700D04A807088002C333D8FC4297F3
:10137B0022EEB4010E7401A807088002C333D8FC17
:10138B0042E522EE6402704304A807088002C333CF
:10139B00D8FC42FC22EE700E04A807088002C3336F
:1013AB00D8FCF4529722EEB4010F7401A807088001
:1013BB0002C333D8FCF452E522EEB4020E7401A83A
:1013CB0007088002C333D8FCF452FC22EF1313132B
:1013DB00541FFEEF5407FFED6034EE700D04A807A9
:1013EB00088002C333D8FC428022EEB4010E740194
:1013FB00A807088002C333D8FC429022EE64027027
:10140B004304A807088002C333D8FC42A022EE7025
:10141B000E04A807088002C333D8FCF4528022EED6
:10142B00B4010F7401A807088002C333D8FCF4522F
:10143B009022EEB4020E7401A807088002C333D8C1
:10144B00FCF452A0229000AF12038CE47F10FEFD3F
:10145B00FC9000B312034B1201AE9000B712038C39
:10146B00E47B02FAF9F89000B712033F12023990AD
:10147B0000AF12034B1201A19000B712034B1202E3
:10148B00399000B712038C9000B712034BC3E49B47
:10149B00FF74049AFEE499FDE498FC9000B71203E4
:1014AB008C9000B712033F78081202E9AB0790004B
:1014BB00B712033FEB5403F5BA8FAA22C0E0C0F07A
:1014CB00C083C082C0D075D000C000C001C002C0B4
:1014DB0003C004C005C006C007E5C830E11053C8FF
:1014EB00FD90011E1203C9E94A6003120452E5C9BB
:1014FB0030E11053C9FD9001211203C9E94A600381
:10150B00120452E5CA30E11053CAFD9001241203B4
:10151B00C9E94A6003120452D007D006D005D004A3
:10152B00D003D002D001D000D0D0D082D083D0F065
:10153B00D0E0321219531211391218817D177C0029
:10154B007FC47E091217027BFF7A1779727D017FA8
:10155B0001120E9C12190F9000AF7401F07B047AEC
:10156B0000E4FD7F011217A87F031200067F06120D
:10157B000094E4FF1218EC7F011218DA7F011219A4
:10158B004712192C7D017F011217DE120B8A80FB8B
:10159B00AD07AC06C3ED94FEEC947F4007E49000DE
:1015AB00F2F0FF229000E9E0FFA3E09000D5CFF02E
:1015BB00A3EFF01218439000F2E07015D39000D611
:1015CB00E09D9000D5E09C50149000F27401F080E7
:1015DB000CD3ED9FEC9E5005E49000F2F09000F2DE
:1015EB00E0FF22C0E0C0F0C083C082C0D075D00045
:1015FB00C000C001C002C003C004C005C006C007C4
:10160B00E5F630E00D9001331203C9E94A6003128D
:10161B00045275F601D007D006D005D004D003D004
:10162B0002D001D000D0D0D082D083D0F0D0E03225
:10163B00C0E0C0F0C083C082C0D075D000C000C075
:10164B0001C002C003C004C005C006C00730980F1C
:10165B009001301203C9E94A6003120452C298D0B8
:10166B0007D006D005D004D003D002D001D000D0D3
:10167B00D0D082D083D0F0D0E032EF131313541FAD
:10168B00FEEF5407FFEE700E04A807088002C33369
:10169B00D8FCF452E122EEB4010F7401A8070880C4
:1016AB0002C333D8FCF452E222EEB4020E7401A84A
:1016BB0007088002C333D8FCF452E322EF13131351
:1016CB00541FFEEF5407FFEE700DE5E1A8070880ED
:1016DB0002C313D8FC801CEEB4010DE5E2A8070889
:1016EB008002C313D8FC800BE5E3A807088002C374
:1016FB0013D8FC5401FF22AB07AA0643DF0843E7CC
:10170B000890C900E04440F0EC90C90DF0ED90C991
:10171B000CF0EB24FFEA34FF90C90FF0EB1490C9E7
:10172B000EF090C9067401F090C905E04401F02257
:10173B009000AB12038C43DE0143E601439E01E4B0
:10174B0090012FF0C29FD29EC299C2989000AB120B
:10175B00033F9000B312038C90012B12033F121422
:10176B0050D29C53F33F22E49000F1F09000D8F05C
:10177B009000F2F09000E8F07B017A0079F31218F8
:10178B00C69000F0E06009E4F012192C7D01800591
:10179B0012192CE4FD7F061217DE02190F9000AF11
:1017AB00E06401702743DE1043E610EFC43333547B
:1017BB00C0FFE5AC54BF4FF5ACE4F5FEF5FFEBF520
:1017CB00FEEAF5FFE5FD54FE4DF5FD2253DEEF532A
:1017DB00E6EF229000EDEFF0ED6006E49000DF8085
:1017EB000D9000DFE004F0E0C394644007E4F09058
:1017FB0000D704F02212002E90005FE475F0011266
:10180B000128FC741C25F0F58274003CF583EFF085
:10181B0090005C7401F02212126BE5AD20E2FBE547
:10182B00F630E0FB75F601120036D3EF94FFEE9421
:10183B000F40047E0F7FFF22D39000EAE094789054
:10184B0000E9E09400400DA3E02488FF9000E9E05C
:10185B0034FFFE22E4FEFF22C0E0C083C082E5A677
:10186B0030E3099001367401F075A32075A3FFD006
:10187B0082D083D0E032E490005CF0FF7EC27D0129
:10188B00FC12173B7BFF7A1879007F010218FE9040
:10189B00C900E054FEF090C90AE4F0A3F090C9002F
:1018AB00E04401F02274FFFDFC8F9920990AED1D95
:1018BB00AE0470011C4E70F3C2992212013EC39408
:1018CB00FFE5F094FF5007E475F00112016922EF78
:1018DB00B4010753ADFE53ADFD2243AD0243AD0141
:1018EB002243AC20EF700553ACFD800343AC025395
:1018FB00B5FE22EFB4010AD2AFD2AC900130020395
:10190B00E9C2AC2290C900E054FEF090C90AE4F0A1
:10191B00A3F0227D017F0A1213D77D017F0B0213E7
:10192B00D7E4FD7F0A1213D7E4FD7F0B0213D79088
:10193B00C90AE0FDA3E0FCEDAE04FF22EFB4010405
:10194B0043AC012253ACFE227F007E367D6E7C01C0
:10195B00020A5F533D25752C413D25752C54483D9E
:10196B0025752C4859533D25752C4F46463D2575FD
:10197B002C454C3D25752C56433D25752C4C3D2552
:10198B00752C41533D25752C4F4B3D25752C4952DC
:10199B003D25752C53483D25752C41463D25752C11
:1019AB0056503D25752C544F3D25752C523D2575B4
:0319BB000D0A0012
:00000001FF
