:10000000020B4BE4900068F0FF7EC27D01FC120EF3
:10001000C87BFF7A0F79547F01020F8C8F828E8309
:10002000E0FF22020E37BB010689828A83E022505C
:1000300002E722BBFE02E32289828A83E49322BB89
:10004000010CE58229F582E5833AF583E02250062A
:10005000E92582F8E622BBFE06E92582F8E222E5E0
:100060008229F582E5833AF583E49322F8BB010DFA
:10007000E58229F582E5833AF583E8F0225006E926
:100080002582C8F622BBFE05E92582C8F222C5F00A
:10009000F8A3E028F0C5F0F8E58215827002158318
:1000A000E038F022A3F8E0C5F025F0F0E5821582F3
:1000B00070021583E0C838F0E822EF2BFFEE3AFE1D
:1000C000ED39FDEC38FC22E88FF0A4CC8BF0A42CA9
:1000D000FCE98EF0A42CFC8AF0EDA42CFCEA8EF056
:1000E000A4CDA8F08BF0A42DCC3825F0FDE98FF03D
:1000F000A42CCD35F0FCEB8EF0A4FEA9F0EB8FF034
:10010000A4CFC5F02ECD39FEE43CFCEAA42DCE35BB
:10011000F0FDE43CFC2275F008758200EF2FFFEE45
:1001200033FECD33CDCC33CCC58233C5829BED9A23
:10013000EC99E58298400CF582EE9BFEED9AFDEC81
:1001400099FC0FD5F0D6E4CEFBE4CDFAE4CCF9A8C7
:100150008222B800C1B90059BA002DEC8BF084CFCF
:10016000CECDFCE5F0CBF97818EF2FFFEE33FEEDA6
:1001700033FDEC33FCEB33FB10D703994004EB99D0
:10018000FB0FD8E5E4F9FA227818EF2FFFEE33FEE3
:10019000ED33FDEC33FCC933C910D7059BE99A4018
:1001A00007EC9BFCE99AF90FD8E0E4C9FAE4CCFB30
:1001B0002275F010EF2FFFEE33FEED33FDCC33CC84
:1001C000C833C810D7079BEC9AE899400AED9BFD0D
:1001D000EC9AFCE899F80FD5F0DAE4CDFBE4CCFA20
:1001E000E4C8F922EF4BFFEE4AFEED49FDEC48FC76
:1001F00022EB9FF5F0EA9E42F0E99D42F0E89C4533
:10020000F022E8600FECC313FCED13FDEE13FEEFDC
:1002100013FFD8F122E8600FEFC333FFEE33FEED9A
:1002200033FDEC33FCD8F122BB010DE58229F582C8
:10023000E5833AF5830202585007E92582F8020364
:100240005DBBFE07E92582F8020369E58229F58294
:10025000E5833AF583020375E0FCA3E0FDA3E0FE2D
:10026000A3E0FF22E0F8A3E0F9A3E0FAA3E0FB2279
:100270007401FF3395E0FEFDFCA3A3A3E0CF2FF0B4
:10028000E582158270021583E0CE3EF0E58215828C
:1002900070021583E0CD3DF0E58215827002158372
:1002A000E0CC3CF022ECF0A3EDF0A3EEF0A3EFF0F5
:1002B00022A8828583F0D083D0821202C81202C89D
:1002C0001202C81202C8E473E493A3C583C5F0C543
:1002D00083C8C582C8F0A3C583C5F0C583C8C582DD
:1002E000C822E0FBA3E0FAA3E0F922F8E0FBA3A315
:1002F000E0F925F0F0E582158270021583E0FA3806
:10030000F022EBF0A3EAF0A3E9F022D083D082E45C
:10031000937012740193700DA3A393F8740193F575
:10032000828883E4737402936C70127403936D700B
:100330000C7404936E70067405936F60DDA3A3A321
:10034000A3A3A380CA8A838982E473BB010689823E
:100350008A83F0225002F722BBFE01F322E6FC085A
:10036000E6FD08E6FE08E6FF22E2FC08E2FD08E200
:10037000FE08E2FF22E493FC740193FD740293FEF5
:10038000740393FF22D083D082F8E4937012740137
:1003900093700DA3A393F8740193F5828883E4739B
:1003A0007402936860EFA3A3A380DFE508247CF5C3
:1003B00082E43400F583E0050822900079300703D9
:1003C00090007CE475F0011202EB0200262000E9A7
:1003D0007F2ED2008018EF540F2490D43440D4FFE5
:1003E00030040BEF24BFB41A0050032461FFE50969
:1003F00060021509050CE50C7002050B30070E9024
:100400000079E475F0011202EBEF02034B020FB426
:100410007403D2078003E4C207F508900079120341
:1004200002E4F509F50BF50CE50960077F201203DE
:10043000EE80F5750AFFC201C200C202C203C20506
:10044000C206C2081203BAFF700D3007057F001202
:1004500003FFAF0CAE0B22B4255FC2D5C20412035A
:10046000BAFF24D0B40A00501A75F00A780930D5C2
:100470000508B6FF0106C6A426F620D5047002D2F0
:100480000380D924CFB41A00EF5004C2E5D204028D
:100490000600D20180C6D20080C0D20280BCD2D574
:1004A00080BAD20580B47F201203EE2002077401C7
:1004B000B5090040F11203ABFF1203EE020428D28B
:1004C00008D20680951203ABFB1203ABFA1203AB02
:1004D000F94A4B700679D17A067BFF20022EE50996
:1004E000602A7E008E8275830012003F60060EEE49
:1004F000650A70F0C2D5EBC0E0EAC0E0E9C0E0EE0A
:10050000120647D0E0F9D0E0FAD0E0FB120026FF57
:1005100060AAEBC0E0EAC0E0E9C0E01203EED0E080
:100520002401F9D0E03400FAD0E0FBE50A0460DCF5
:10053000D50AD980877BFF7A067943D202809C79DD
:100540001080027908C206C2088008D2D5790A80D4
:1005500004790AC2D5E50A047002F50AE4FAFDFE40
:10056000FF1203ABFC7B082001131203ABFD7B10D1
:1005700030000A1203ABFE1203ABFF7B20EC338288
:10058000D592D55013C3E43000069FFFE49EFEE4ED
:100590002001039DFDE49CFCE4CBF8C201EC700C4F
:1005A000CFCECDCCE824F8F870F38017C3EF33FF3B
:1005B000EE33FEED33FDEC33FCEB33FB994002FBF5
:1005C0000FD8E9EB300105F8D0E0C448B201C0E033
:1005D0000AEC4D4E4F78207B0070C2EAB50A00400D
:1005E000BCC0E0120649D0F0D0E0200104C4C0E055
:1005F000C4B201C0F01203D7D0F0D5F0EB0204284A
:1006000012038504C553053F5804964C04924205D5
:10061000434F054B44054B4904AB43055155053544
:100620004605354505354706F150049A2D049E2EA2
:1006300004C12B04A22304BF2006DA2A045A48006E
:100640000004B93F3F3F00790AA2D52003143005CA
:1006500009B910020404B9080104A2D52006025009
:1006600001042002689202B509005034C0E07F20E6
:100670003003197F30A20272067205500F1206A0D5
:10068000C202C206C205C2087F30800F300503E9EE
:10069000C0E01203EE300503D0E0F9D0E0B509CC9C
:1006A0003005177F30B9100C1203EE7F5830040765
:1006B0007F788003B908031203EE3002057F2D0214
:1006C00003EE7F202008F87F2B2006F32292028081
:1006D000CF286E756C6C2900D2011203AB3001F883
:1006E000C201780930D50108F602045A2D50434959
:1006F000581203AB2403B405004001E49006EC93C8
:100700001203DF743A1203DFD20375090402053FB6
:1007100090006FEDF090006DEEF0A3EFF0120F2A55
:100720009000741202B10000000090007012025894
:10073000900074120264C31201F1505990007412B7
:10074000025890006EE02FFF90006DE03EFE120018
:100750001CEFF4602590006DE0FEA3E0FFE4FCFDDB
:100760009000741202641200BA90007C1202A57B01
:10077000FF7A0F79E5120416801B9000741202585C
:10078000EF2401FFE43EFEE43DFDE43CFC900074F8
:100790001202A580959000741202B1000000009032
:1007A0000070120258900074120264C31201F150DA
:1007B0003290006FE0FB90007412025874142FF511
:1007C00082E43400F583EBF0900074120258EF24B9
:1007D00001FFE43EFEE43DFDE43CFC9000741202A7
:1007E000A580BC7B017A00791490007012025890A9
:1007F000007D1202A590006DE0FEA3E0FF120D390E
:100800007B017A00790090007012025890007D12EE
:1008100002A590006DE0FEA3E0FF120C4E90007068
:10082000120264C31201F170759000741202B100DB
:10083000000000900070120258900074120264C30D
:100840001201F1505990007412025874002FF58271
:10085000E43400F583E0FF90006FE0FEEF6E60236C
:1008600090006DE0FEA3E0FFE4FCFD900074120236
:10087000641200BA90007C1202A57BFF7A10790006
:10088000020416900074120258EF2401FFE43EFEA9
:10089000E43DFDE43CFC9000741202A5809522909A
:1008A000006D1202A59000711202B1000000004319
:1008B000F804E5F85420642070F89091AAE0FFE471
:1008C000FCFDFE7810120215C004C005C006C0076A
:1008D000A3E0FFE4FCFDFE7818120215D003D0025D
:1008E000D001D0001201E4C004C005C006C00790CA
:1008F00091A9E0FFE4FCFDFE7808120215D003D0B8
:1009000002D001D0001201E4A804A905AA06AB0791
:100910009091A8E0FFE4FCFDFE1201E49000A1121A
:1009200002A57FC07E0A7D707C019000A112026446
:10093000D31201F150167F407E617D6C7C019000E6
:10094000A1120264C31201F14002801274FFFFFE83
:10095000FDFC9000A1120264C31201F1700C900022
:10096000711202B102DC6C008015E47F02FEFDFC16
:100970009000A11202641200C79000711202A590AB
:10098000006D12025812030B09AE00B71B0009A636
:1009900000F42400099E016E3600000009A675EEE1
:1009A00001E47B02800E75EE02E47B03800675EEA7
:1009B00003E47B04FAF9F890007112025812015214
:1009C0009000A51202A553F8FE53D9F82290006DAD
:1009D000EEF0A3EFF0A3EBF0900072EDF090006F5B
:1009E000E0FF900072E0FEC39F4003020A8CEE25F8
:1009F000E0FE90006EE02400FF90006DE03EFE12ED
:100A00000F2AE4900070F0A3F0900070E0FCA3E0E7
:100A1000FDC3EC9402505AA3E025E0FE90006EE086
:100A20002400FF90006DE03ECF2DCF3CFE12001C55
:100A3000EFF460317BFF7A0F79E5900072E025E0FA
:100A4000FE90006EE02400FF90006DE03EFE9000FE
:100A500071E02FFF900070E03E90007CF0A3EFF07B
:100A6000120416800C900070E475F00112008E8064
:100A70009890006DE0FEA3E0FF900072E0FB7D55D2
:100A8000120A8D900072E004F00209DD22900073DA
:100A9000EEF0A3EFF0A3EDF0A3EBF0E4A3F0A3F0EE
:100AA000900077E0FCA3E0FDC3EC9402502C900092
:100AB00076E025E0FE900074E02400FF900073E0F3
:100AC0003ECF2DCF3CFE900075E0FD120EFC900055
:100AD00077E475F00112008E80C6E4900077F0A3F1
:100AE000F0900077E0FCA3E0FDC3EC9402505B9033
:100AF0000076E025E0FE900074E02400FF90007393
:100B0000E03ECF2DCF3CFE12001C900075E06F60E0
:100B10002D7BFF7A0F79BCA3E025E0FE900074E006
:100B20002400FF900073E03EFE900078E02FFF90DD
:100B30000077E03E90007CF0A3EFF00204169000F6
:100B400077E475F00112008E809722787FE4F6D862
:100B5000FD758121020B92020FA9E493A3F8E4939F
:100B6000A34003F68001F208DFF48029E493A3F8A0
:100B70005407240CC8C333C4540F4420C883400412
:100B8000F456800146F6DFE4800B010204081020D1
:100B90004080900D9AE47E019360BCA3FF543F30E7
:100BA000E509541FFEE493A360010ECF54C025E075
:100BB00060A840B8E493A3FAE493A3F8E493A3C82D
:100BC000C582C8CAC583CAF0A3C8C582C8CAC583BE
:100BD000CADFE9DEE780BE9000711202A5E47F1053
:100BE000FEFDFC9000751202641200C7900079129D
:100BF00002A5E47B02FAF9F890007912025812017A
:100C0000529000711202641200BA900079120264CC
:100C10001201529000791202A5900079120264C369
:100C2000E49BFF74049AFEE499FDE498FC9000793B
:100C30001202A59000791202587808120202AB073E
:100C4000900079120258EB5403F5BA8FAA22900053
:100C500078EEF0A3EFF0A31203029000811202B12C
:100C60000000000090007D12025890008112026482
:100C7000C31201F15049900081120258900079E0AE
:100C80002FFF900078E03E8F82F583E0FFC0079051
:100C9000008112025890007A1202E28F828E83D075
:100CA000E012006C900081120258EF2401FFE43E34
:100CB000FEE43DFDE43CFC9000811202A580A5907D
:100CC00000810202587F007E247DF47C00120DEB2F
:100CD0007BFF7A10792E1204167B01E4FDFF7E8AD9
:100CE0001209CD7B01E4FDFF7E8C1209CD7BFF7ADA
:100CF0001079591204167F0A7E007D007C00120EC6
:100D0000817BFF7A1079821204169000701202B172
:100D1000000000147DA57F007E8A120710900070ED
:100D20001202B1000000147DC57F007E8C120710F6
:100D30007BFF7A1079B4020416900078EEF0A3EFEE
:100D4000F0A312030253A7F843A74043A701900062
:100D50007D74FF120272EC4D4E4F6037900078E4C4
:100D600075F0011200A4AFF0F5D28FD190007AE4B3
:100D700075F0011202EB120026F5D343D40843D4D8
:100D800040E5D430E1FB43D480E5D420E7FB53D4E5
:100D9000BF80BB53A7FE53A7BF224400A50000009D
:100DA000004400A1000000004100A9004300AA0087
:100DB0000000420069000042006B00005400140073
:100DC0000000000000000000000000000000000023
:100DD00000000054000000000000000000000000BF
:100DE000000000000000000000000090006D1202F2
:100DF000A57F807E847D1E7C0090006D120264C3FE
:100E00001201F140317B407A42790F780090006DF9
:100E1000120258120152900071EFF09091B2E0F47A
:100E2000FF9091B0E0B50705E0F5A1800375A10F33
:100E300075A33FE4F5A222C0E0C0F0C083C082C029
:100E4000D075D000C000C001C002C003C004C005FE
:100E5000C006C00730980F9000AA1202E2E94A606B
:100E600003120345C298D007D006D005D004D003A2
:100E7000D002D001D000D0D0D082D083D0F0D0E04A
:100E80003290006D1202A59000711202B1000000B4
:100E90000090006D120258900071120264D312018A
:100EA000F15024007F157E92DEFEDFFC900071126F
:100EB0000258EF2401FFE43EFEE43DFDE43CFC90DB
:100EC00000711202A580CA2290006D1202A543DEB5
:100ED0000143E601439E01E49000A9F0C29FD29E27
:100EE000C299C29890006D1202589000751202A526
:100EF0009000A5120258120BD7D29C2253A7F84398
:100F0000A74043A7018ED28FD1AF058FD343D4081A
:100F100043D440E5D430E1FB43D480E5D420E7FB63
:100F200053D4BF53A7FE53A7BF2253A7F843A740EC
:100F300043A7028ED28FD143D40843D440E5D430A6
:100F4000E1FB43D480E5D420E7FB53D4BF53A7FD96
:100F500053A7BF22120FB9900069E475F001120087
:100F6000A4FC742825F0F58274003CF583EFF09022
:100F700000687401F02274FFFDFC8F9920990AED3E
:100F80001DAE0470011C4E70F3C29922EF64017013
:100F90000AD2AFD2AC9000AA020302C2AC227F00F8
:100FA0007E247DF47C0002089F120F9E1200031223
:100FB0000CC580FEAB07020F76AF99224572726FA7
:100FC000723A20386269742052656164206E6F74D1
:100FD00020657175616C207772697465215B30786A
:100FE00025785D0A004572726F723A2065726173EE
:100FF00065206661696C215B3078256C785D0A003C
:101000004572726F723A206D756C7469627974659D
:101010002052656164206E6F7420657175616C206B
:101020005772697465215B307825785D0A00454503
:1010300050524F4D20777269746520616E64207242
:1010400065616420627920627974652074657374C7
:101050002073746172740D0A00454550524F4D2043
:10106000777269746520616E6420726561642062C4
:10107000792062797465207465737420656E640DDF
:101080000A00454550524F4D2077726974652061C2
:101090006E642072656164206279206D756C74697C
:1010A000206279746573207465737420737461723F
:1010B000740D0A00454550524F4D20777269746592
:1010C00020616E642072656164206279206D756CA8
:1010D0007469206279746573207465737420656E19
:0410E000640D0A0091
:00000001FF
