:020000040800F2
:1000000030030020D9000008010E0008790D000817
:1000100000000000000000000000000000000000E0
:10002000000000000000000000000000610F000858
:100030000000000000000000130E0008CD100008B2
:10004000EB000008EB00000800000000EB000008D7
:10005000EB000008EB000008EB000008FB020008C2
:100060000000000000000000000000000000000090
:100070000F02000825110008EB0000080000000036
:100080002D1100080000000000000000EB00000837
:10009000000000000000000000000000EB0000086D
:1000A00000000000EB00000800000000EB0000086A
:1000B000EB0000080000000000000000000000004D
:1000C0000448854600F02CF800480047E713000874
:1000D000C046C0463003002004488047044800471B
:1000E000FEE7FEE7FEE7FEE7FEE7FEE7E5100008B5
:1000F000C100000830B50B46014600202022012433
:1001000009E00D46D5409D4205D31D469540491B4B
:100110002546954040191546521E002DF1DC30BD94
:10012000064C0125064E05E0E36807CC2B430C3C4A
:1001300098471034B442F7D3FFF7C6FFF413000812
:1001400014140008002904D0826E01231A43826629
:1001500003E0826E5208520082667047426E1209B6
:1001600012010B071B0F1A434266704770B507292F
:1001700011DD0B46083BD9B2036E8D000F24AC4055
:10018000A3438D001446AC408E000F25B5402C4093
:10019000234303660DE0C36D8D000F24AC40A343E1
:1001A0008D001446AC408E000F25B5402C402343F3
:1001B000C36570BD012902D10122426103E0022919
:1001C00001D1022242617047002904D04268012314
:1001D0001A43426003E0426852085200426070478E
:1001E00010B504460548844207D10121401500F0AE
:1001F00031FE0021601500F02DFE10BD00240140ED
:1002000002468B0010461830C05880B2704710B5B7
:1002100000F0C8F910BD10B5002A0DD0012904D195
:10022000836801242343836012E0022910D183688C
:100230000224234383600BE0012903D183688B43AD
:10024000836005E0022903D183680224A34383600D
:1002500010BD000010B54268174B1A40164CE4431D
:100260004B6823401A43426042680723DB019A43EC
:100270000724E4010B6823401A434260826801238B
:10028000DB029A430124E4020B6923401A43826093
:10029000826803235B029A43032464028B68234031
:1002A0001A4382608268054B1A40044CE443CB68D1
:1002B00023401A43826010BD8FBFFFFF8FFFF9FFFD
:1002C00042680F239B029A430B401A4342607047D7
:1002D000002905D08268FF2301331A43826004E0BD
:1002E0008268FF2301339A438260704700210160D6
:1002F000416081600161C160704710B5802000F0ED
:100300000FF8002804D0802000F004F800F020FA54
:1003100010BD000001494861704700000004014021
:100320000146074840690840002806D00448006894
:100330000840002801D0012070470020FCE70000A1
:10034000000401408179002948D02D4909680268DC
:1003500091432B4A11601146496802689143284A2B
:1003600051600179002906D11146096802681143DC
:10037000234A116005E02249496802681143204A76
:1003800051601F498968026891431D4A9160114676
:10039000C968026891431A4AD160417910290CD189
:1003A0001146896802681143154A91601146C9686F
:1003B00002681143124AD16020E04179082906D130
:1003C0000F498968026811430D4A916016E00C4993
:1003D000C968026811430A4AD1600FE00179002917
:1003E00006D10749096802689143054A116005E092
:1003F0000349496802689143014A5160704700000F
:10040000000401400021016001710C2141710021B3
:1004100081717047F8B50246CD782F073F0FCD7830
:1004200010263540002D01D08D782F431446002032
:1004300011E085062B0E0D88012686403540002DE3
:1004400007D025680F269E40B5433E469E40354363
:100450002560451CE8B20828EBDB141D0D882D1221
:100460000095002011E085062B0E01258540009E99
:100470003540002D07D025680F269E40B5433E46E7
:100480009E4035432560451CE8B20828EBDBCD785B
:10049000282D04D155690E883543556106E0CD7885
:1004A000482D03D115690E8835431561F8BD4161AA
:1004B00070470021C9430180032181700421C1706C
:1004C0007047002A01D0016100E0416170470000DF
:1004D00000B587B00121480200F0ACFC3048FFF7BE
:1004E0007FFE02A8FFF702FF002002907020039019
:1004F00001204002049000200590069002A928489F
:10050000FFF7A8FE072189022548FFF7D9FE002240
:1005100011462348FFF72AFE012211462048FFF723
:1005200025FE022211461E48FFF720FE0322114637
:100530001B48FFF71BFE052204211948FFF716FE92
:1005400004211748FFF70AFE01211548FFF7FAFDBD
:1005500001211348FFF72EFE012211461048FFF734
:100560005AFE0C2000F0D8FE02210C2000F0F0FE14
:100570000C2000F0DDFE01210948FFF725FE0020D8
:10058000019003E000BF0198401C019001984028B1
:10059000F8D301210248FFF79BFE07B000BD000021
:1005A0000024014010B51A484069C007C00F002858
:1005B0002CD001211648FFF7FDFD00211448FFF75C
:1005C0001FFE1449088001211148FFF719FE114947
:1005D000488002210E48FFF713FE0E498880032150
:1005E0000B48FFF70DFE0B49C88005210848FFF7AF
:1005F00007FE0849088108480068401C0649086051
:1006000000F00CF801210248FFF762FE10BD000067
:10061000002401405C00002004000020704700001E
:1006200010B500F065F900F053FA00F0E1F900F0C0
:1006300039F9FFF74DFF0020164908701649087078
:10064000164908801649087016490870164908604E
:10065000164908701649087016490870164908703E
:10066000164908601649087016490880164908603E
:10067000164908601649087016490860164908802E
:10068000164908801649088000F030F800F030FB69
:1006900010BD00003400002035000020360000208E
:1006A0003900002038000020280000202C00002005
:1006B0002D0000202E0000202F0000203000002000
:1006C0000C0000200E00002010000020140000206C
:1006D000180000201C000020200000202200002024
:1006E0002400002010B500F0FFFA10BDF8B5164840
:1006F0000078002801D1012000E0002004462546B2
:10070000002C01D1012000E00020074601232A46E9
:1007100059020920C00600F015FB01233A461902D0
:100720000920C00600F00EFB08480078012802D11D
:100730000548067800E02646012332469902092042
:10074000C00600F0FFFAF8BD0C0000203A000020BF
:1007500070B544480068401C42490860424800782F
:1007600000281AD101204049087000203F49088024
:100770003F4908703F4908703F4908703F49088069
:100780003F4908803F4908803F4908803F49087039
:1007900000F0F8F900F084F970BD3D4800F006FD66
:1007A00085B232480088854200DCF5E72F48008892
:1007B000281A84B2372C19D22F480078FF2804D287
:1007C0002D480078401C2C49087032480068401CB5
:1007D000304908602A4804802A4804802748048059
:1007E00000202949088029490870D5E71F4805805D
:1007F00023480480234804802048048000202249A4
:100800000880204600F0C8F80646204806701848C0
:100810000078FF2804D216480078401C144908705C
:10082000002E10D000F03CF91B480068401C1A490B
:10083000086010480078FF2811D20E480078401C4C
:100840000C4908700BE015480068401C134908600B
:10085000552C04D912480068401C1149086000BF9B
:100860009AE7000008000020380000203600002031
:100870003400002035000020390000200E00002048
:10088000200000202200002024000020180000206A
:100890000004004030000020100000201400002060
:1008A0001C0000201CB50121880700F0C3FA0721B5
:1008B000002000F057FB8020FFF72CFD6846FFF773
:1008C000A1FD802000900021684601710C2141713A
:1008D00001218171FFF736FD072000F01DFD002189
:1008E000072000F035FD072000F022FD1CBD0000B0
:1008F00008B501210320400400F08CFA0F21090201
:100900000920C006FFF7D3FD6846FFF7D2FD0F218F
:10091000090268460180032181701021C170694677
:100920000920C006FFF776FD6846FFF7C2FD80216B
:1009300068460180032181700421C1706946092045
:10094000C006FFF767FD6846FFF7B3FD104968462C
:100950000180012181700021C17069460920C00613
:10096000FFF758FD6846FFF7A4FD032168460180A4
:10097000012181700021C17069460648FFF74AFDD8
:100980000121C9020920C006FFF791FD08BD000042
:100990000C1000000004004810B501463723552410
:1009A0000A469A4203D3A24201D8012010BD00207A
:1009B000FCE7000010B501210B4800F0FAFB00280D
:1009C00011D00121084800F0B5FB0021064800F0D5
:1009D000B4FB00F0EFF800200449088000F052F961
:1009E000002000F06DF910BD002C01402400002013
:1009F00030B585B00121042000F01CFA264800F033
:100A0000A9FB254800F0E2FB054624492846FFF7EC
:100A100071FB0446002C07D020492846FFF76AFBEB
:100A2000002901D100BF01E000BFFEE7684600F0E9
:100A300069FC601E81B26846018000200190FF20A1
:100A400090300290002003900021684601746946AE
:100A5000114800F029FC08210F4800F01BFC01217F
:100A60000D4800F067FB012211460B4800F008FC1E
:100A70000D2000F051FC01210D2000F069FC0D203B
:100A800000F056FC0021044800F00BFC0021024855
:100A900000F053FB05B030BD002C014040420F0078
:100AA00010B50021094800F048FB0121074800F07B
:100AB00041FB0D2000F030FC0021044800F0F1FB68
:100AC0000121024800F039FB10BD0000002C01405C
:100AD00030B585B00121022000F0ACF9264800F0C5
:100AE00039FB254800F072FB054624492846FFF7EC
:100AF00001FB0446002C07D020492846FFF7FAFAEC
:100B0000002901D100BF01E000BFFEE7684600F008
:100B1000F9FB601E81B268460180002001901848F0
:100B20000290002003900021684601746946124833
:100B300000F0BAFB0821104800F0ACFB01210E4880
:100B400000F0F8FA012211460B4800F099FB102042
:100B500000F0E2FB0121102000F0FAFB102000F071
:100B6000E7FB0021044800F09CFB0021024800F054
:100B7000E4FA05B030BD00000004004040420F0020
:100B8000ED02000010B50021094800F0D6FA01215D
:100B9000074800F0CFFA102000F0BEFB0021044807
:100BA00000F07FFB0121024800F0C7FA10BD0000F1
:100BB0000004004010B50021074800F0BEFA0121F2
:100BC000054800F0B7FA102000F0A6FB002102480B
:100BD00000F067FB10BD00000004004010B50121CB
:100BE0001C4800F0E6FA002832D00121194800F034
:100BF000A1FA0021174800F0A0FA17481749086029
:100C00001748007817490870174800781749087086
:100C1000174800781749087013480078082805D34A
:100C200001201549087000F04BF802E0002012493D
:100C3000087000201149087011490880084908709F
:100C4000094908700A4908700021024800F029FB90
:100C500010BD000000040040EE020000280000204B
:100C6000340000202C000020350000202D00002042
:100C7000390000202F0000202E0000203800002026
:100C8000360000200020074908700749087007490E
:100C90000870074908800749087007490880074914
:100CA0000870704738000020340000203500002014
:100CB00036000020390000200E000020180000201F
:100CC00070B50446002C01D0012000E0002005464C
:100CD00004480078A84203D002480570FFF706FDDB
:100CE00070BD00000C00002010B500F067F810BDCA
:100CF00010B5012000F01AF900BF612000F0FEF8E5
:100D00000028FAD00D4800F075F8002000F04AF8ED
:100D100000F077F8094800F06DF8032000F056F86D
:100D200000F016F9054800F065F8054800F058F89D
:100D300000F044F800F022F810BD00005555000006
:100D4000C3090000F8B506460F4614461D46002D9F
:100D500006D0002C01D0012000E00020009005E02A
:100D6000002C01D1012000E00020009039463046DF
:100D7000009AFFF7A6FBF8BD00BFFEE70148024955
:100D800008607047CCCC00000030004001460448A9
:100D9000C0680840002801D0012070470020FCE70F
:100DA000003000400449096949084900C207D20FD0
:100DB0001143014A11617047003000400148024967
:100DC00008607047AAAA00000030004000B5024643
:100DD0000248426000F015F800BD000000300040FD
:100DE00000B502460248826000F0B2F800BD000083
:100DF00000300040014908607047000000300040AA
:100E0000704700B500BF0120FFF7C0FF0128FAD0EE
:100E100000BD7047002905D0054A52690243044BC2
:100E20005A6104E0024A52698243014B5A61704799
:100E300000100240002905D0054AD2690243044B44
:100E4000DA6104E0024AD2698243014BDA617047F9
:100E500000100240002905D0054A12690243044BE4
:100E60001A6104E0024A12698243014B1A61704719
:100E70000010024010B5002100221A4B5B680C24C0
:100E800023401946002906D0042907D0082908D094
:100E90000C290CD108E0144B03600BE0124B0360EB
:100EA00008E0124B036005E0114B036002E00E4BBB
:100EB000036000BF00BF0B4B5B68F024234019099F
:100EC0000C4B5A5C0368D3404360064B5B680724B5
:100ED00024022340190A084B5A5C4368D3408360BC
:100EE00010BD00000010024000127A00006CDC020D
:100EF000409C00003E0000204E00002001460022E1
:100F000000234A11012A02D10748036801E006487C
:100F1000436ACA06D20E012090401840002801D032
:100F2000012070470020FCE700100240002806D096
:100F30000649496A01221143044A516205E0034906
:100F4000496A49084900014A51627047001002404D
:100F500000B500BF0220FFF719FF0128FAD000BD3D
:100F60007047000030B500228B071C0F0F23A340F1
:100F70001A468B10002B0ED1224B9B689343214CB9
:100F8000A36023469B688C07250F0446AC4023438F
:100F90001C4CA36034E08B10012B0ED1194BDB6885
:100FA0009343184CE3602346DB688C07250F044607
:100FB000AC402343134CE36022E08B10022B0ED194
:100FC000104B1B6993430F4C236123461B698C070D
:100FD000250F0446AC4023430A4C236110E08B10DC
:100FE000032B0DD1074B5B699343064C636123468A
:100FF0005B698C07250F0446AC402343014C6361B9
:1010000030BD0000000001401CB50020019001200F
:101010000090002428480068012108432649086000
:1010200000BF25480068022108400028F9D0234865
:101030002349086023480068C008C00021490860AF
:1010400008460068102108431E4908601C490968C9
:10105000481E1D49FFF74EF80446012C00D9012413
:101060001848006820431749086013484468F02175
:1010700020468843044600BF0F4844604468072167
:10108000090220468843044600BF0B48446040687C
:1010900080088000084948600846406802210843EB
:1010A0000549486000E000BF034840680C21084043
:1010B0000828F8D11CBD000000100240006CDC02C2
:1010C000580000200020024000366E0104480068ED
:1010D000002804D002480068401E0149086070479B
:1010E0000000002010B50D480068012108430B499D
:1010F0000860084640680A490840084948600846B0
:101100000068012109048843044908600020C043A5
:10111000886000208860FFF777FF10BD0010024054
:101120000CF8FFF810B5FFF745FC10BD10B5FFF740
:1011300055FD10BDCA4302617047002904D0026802
:1011400001231A43026003E0026852085200026061
:101150007047000010B504461148844208D10121AF
:101160000420FFF777FE00210420FFF773FE16E04E
:101170000C48844208D101210220FFF76BFE0021B8
:101180000220FFF767FE0AE00748844207D10121E9
:101190000820FFF75FFE00210820FFF75BFE10BD6F
:1011A000002C014000040040004001400146486A14
:1011B0007047024610690840002805D0D0680840F2
:1011C000002801D0012070470020FCE7F0B58BB06B
:1011D0000646002400200A900025002720A103C90C
:1011E0000991089020A001460EC9C0680693059297
:1011F0000491079001A8FFF73DFE039C1E4840683C
:10120000072109020840050A1C4886421DD11A48D8
:101210004068F0210840070904A8C05D002808D1F3
:1012200008A8405D002801D1204600E060000A9037
:1012300013E008A8405D002801D1600000E0A00094
:1012400004A9C95DC8400A9007E008A8405D0028CD
:1012500001D1204600E060000A900A980BB0F0BD72
:101260000000000002040810000000000000000060
:10127000010203040607080900100240002C014087
:10128000002A03D0C3680B43C36002E0C3688B43EA
:10129000C3607047026808239A430B401A430260F8
:1012A000704741627047000010B5026803231B02BB
:1012B0009A4303242402CB6823401A4302600F4A56
:1012C000904202D00E4A904207D1026870239A439E
:1012D00070244B6823401A430260084A904205D1AB
:1012E000026B120A12020B7C1A4302638A68C26202
:1012F0000A8882620122426110BD0000002C014078
:10130000000400400021C943816000210180C160C8
:101310004160017470470000002805DBC206D20E50
:1013200001219140014A11607047000080E200E015
:10133000002809DB00BF00BFC206D20E0121914088
:10134000024A116000BF00BF7047000000E100E0EA
:1013500010B5002819DB1A4A03231B02D218830890
:101360009B00D2588307DC0EFF23A3409A438B07D0
:101370001B0E8407E40EA3401A43114B03242402DE
:101380001B198408A4001A5118E00E4A03071B0F0A
:10139000083B9B089B00D2588307DC0EFF23A34029
:1013A0009A438B071B0E8407E40EA3401A43054B98
:1013B0000407240F083CA408A4001A5110BD000023
:1013C00000E100E01CED00E002E008C8121F08C1C7
:1013D000002AFAD170477047002001E001C1121FB6
:1013E000002AFBD17047FFF71BF901E0FFF77AF9FC
:1013F000FCE7000014140008000000205C0000005E
:10140000C8130008701400085C000020D40200001B
:10141000D8130008000000000000000000000000D9
:1014200000000000000000000000000000000000BC
:1014300000000000000000000000000000000000AC
:10144000000000000000000000000000000000009C
:101450000000000000000000000001020304060775
:10146000080900000000010203040000006CDC0217
:04000005080000C12E
:00000001FF
