:10000000020C49020BBBE49000C5F0A3F0FD7F0A8F
:10001000120DC7E4FD7F0B120DC77D017F08020D95
:02002000C722F5
:06002300020FCBAF992291
:03002B00020EB70B
:10003300020F7E12002690005FE475F00112013E6C
:10004300FC741C25F0F58274003CF583EFF09000FE
:050053005C7401F022C5
:03005B0002113857
:100063000207C7EF131313541FFEEF54079000AB9F
:10007300F0EE700743DF0143E70122EEB4010743CB
:10008300DF0243E70222EEB4020643DF0443E70440
:0B00930022EF8FF553B4EF22020A6E3B
:0300A3000209C788
:1000AB00020920BB010689828A83E0225002E722E3
:1000BB00BBFE02E32289828A83E49322BB010CE517
:1000CB008229F582E5833AF583E0225006E9258201
:1000DB00F8E622BBFE06E92582F8E222E58229F545
:1000EB0082E5833AF583E49322BB010689828A83F6
:1000FB00F0225002F722BBFE01F322F8BB010DE503
:10010B008229F582E5833AF583E8F0225006E9254A
:10011B0082C8F622BBFE05E92582C8F222C5F0F89B
:10012B00A3E028F0C5F0F8E582158270021583E094
:10013B0038F022A3F8E0C5F025F0F0E582158270C7
:10014B00021583E0C838F0E822EF2BFFEE3AFEED04
:10015B0039FDEC38FC22E88FF0A4CC8BF0A42CFCFE
:10016B00E98EF0A42CFC8AF0EDA42CFCEA8EF0A412
:10017B00CDA8F08BF0A42DCC3825F0FDE98FF0A4A1
:10018B002CCD35F0FCEB8EF0A4FEA9F0EB8FF0A498
:10019B00CFC5F02ECD39FEE43CFCEAA42DCE35F0D4
:1001AB00FDE43CFC2275F008758200EF2FFFEE3367
:1001BB00FECD33CDCC33CCC58233C5829BED9AECCF
:1001CB0099E58298400CF582EE9BFEED9AFDEC9939
:1001DB00FC0FD5F0D6E4CEFBE4CDFAE4CCF9A88243
:1001EB0022B800C1B90059BA002DEC8BF084CFCEE8
:1001FB00CDFCE5F0CBF97818EF2FFFEE33FEED33A6
:10020B00FDEC33FCEB33FB10D703994004EB99FB6C
:10021B000FD8E5E4F9FA227818EF2FFFEE33FEED55
:10022B0033FDEC33FCC933C910D7059BE99A400762
:10023B00EC9BFCE99AF90FD8E0E4C9FAE4CCFB2279
:10024B0075F010EF2FFFEE33FEED33FDCC33CCC842
:10025B0033C810D7079BEC9AE899400AED9BFDEC4D
:10026B009AFCE899F80FD5F0DAE4CDFBE4CCFAE48C
:10027B00C8F922EF4BFFEE4AFEED49FDEC48FC229C
:10028B00EB9FF5F0EA9E42F0E99D42F0E89C45F0C9
:10029B0022E8600FECC313FCED13FDEE13FEEF131E
:1002AB00FFD8F122E8600FEFC333FFEE33FEED33DF
:1002BB00FDEC33FCD8F122BB010DE58229F582E57B
:1002CB00833AF5830202F25007E92582F802040B08
:1002DB00BBFE07E92582F8020417E58229F582E5C2
:1002EB00833AF583020423E0FCA3E0FDA3E0FEA325
:1002FB00E0FF22E0F8A3E0F9A3E0FAA3E0FB22740D
:10030B0001FF3395E0FEFDFCA3A3A3E0CF2FF0E5A7
:10031B0082158270021583E0CE3EF0E58215827065
:10032B00021583E0CD3DF0E582158270021583E066
:10033B00CC3CF022ECF0A3EDF0A3EEF0A3EFF02217
:10034B00A8828583F0D083D08212036212036212DB
:10035B000362120362E473E493A3C583C5F0C58300
:10036B00C8C582C8F0A3C583C5F0C583C8C582C8FC
:10037B0022E0FBA3E0FAA3E0F922F8E0FBA3A3E061
:10038B00F925F0F0E582158270021583E0FA38F05A
:10039B0022EBF0A3EAF0A3E9F022D083D082F8E4B9
:1003AB00937012740193700DA3A393F8740193F5DA
:1003BB00828883E4737402936860EFA3A3A380DF46
:1003CB00D083D082E4937012740193700DA3A39326
:1003DB00F8740193F5828883E4737402936C701242
:1003EB007403936D700C7404936E70067405936FA5
:1003FB0060DDA3A3A3A3A3A380CA8A838982E4732A
:10040B00E6FC08E6FD08E6FE08E6FF22E2FC08E251
:10041B00FD08E2FE08E2FF22E493FC740193FD74F5
:10042B000293FE740393FF229000AB12033F9000E4
:10043B00AF12034B0000000043F804E5F830E5FB76
:10044B009091AAE0FFE4FCFDFE78101202AFC0040D
:10045B00C005C006C007A3E0FFE4FCFDFE78181240
:10046B0002AFD003D002D001D00012027EC004C074
:10047B0005C006C0079091A9E0FFE4FCFDFE7808DB
:10048B001202AFD003D002D001D00012027EA8041A
:10049B00A905AA06AB079091A8E0FFE4FCFDFE12AC
:1004AB00027E9000F712033F7FC07E0A7D707C01B5
:1004BB009000F71202FED312028B50167F407E6122
:1004CB007D6C7C019000F71202FEC312028B40027E
:1004DB00801274FFFFFEFDFC9000F71202FEC312A8
:1004EB00028B700C9000AF12034B02DC6C0080157A
:1004FB00E47F02FEFDFC9000F71202FE12016190F8
:10050B0000AF12033F9000AB1202F21203CB053F78
:10051B0000B71B00053700F42400052F016E3600D1
:10052B000000053775EE01E47B02800E75EE02E4E8
:10053B007B03800675EE03E47B04FAF9F89000AFB9
:10054B001202F21201EC9000FB12033F53F8FE5320
:10055B00D9F8224400FB000000004400F700000023
:10056B00004200BD00004200C300004200C100C8B1
:10057B004200BF00004200C500004200BB0000600B
:10058B0048006300000000000000000000000000B5
:10059B000000000000000000000000000000000050
:1005AB000000000000000000000000000000000040
:1005BB000000000000000000000000000000000030
:1005CB0000000000000000000000004100FF00439D
:1005DB0001000000004301030000004900D30000AC
:1005EB00000000000000004900DC000000000000DB
:1005FB000000004900E50000000000000000004C76
:10060B0000C70000000000000000000000004101D6
:10061B0006004900EE000000000000000000410051
:10062B001B004100040044000000000000420005D4
:10063B00000042005D000242005F000042006100CA
:10064B0000C102C101C10000AC07EF131313541F0B
:10065B009000ABF0EF5407A3F0ED6060EC75F00386
:10066B00A42463F582E43400F58312039CD2AFD249
:10067B00A81210159000ABE0FF7011A3E0FE7401FF
:10068B00A806088002C333D8FC42E922EFB4011359
:10069B009000ACE0FF7401A807088002C333D8FCBC
:1006AB0042EA229000ABE06402705CA3E0FF7401AD
:1006BB00A807088002C333D8FC42EB22C2A89000E3
:1006CB00ABE0FF7012A3E0FE7401A806088002C322
:1006DB0033D8FCF452E922EFB401149000ACE0FFE4
:1006EB007401A807088002C333D8FCF452EA2290A5
:1006FB0000ABE0B40211A3E0FF7401A8070880026D
:10070B00C333D8FCF452EB22EF131313541FFEEF39
:10071B005407FFED604FEE701690C000C083C0828F
:10072B00E0FE7401A807088002C333D8FC8033EEC7
:10073B00B4011690C001C083C082E0FE7401A8070B
:10074B00088002C333D8FC8019EE6402706D90C030
:10075B0002C083C082E0FE7401A807088002C33385
:10076B00D8FC4E8051EE701890C000C083C082E060
:10077B00FE7401A807088002C333D8FCF45E8036F0
:10078B00EEB4011890C001C083C082E0FE7401A8D2
:10079B0007088002C333D8FCF45E801AEEB4021B48
:1007AB0090C002C083C082E0FE7401A807088002DB
:1007BB00C333D8FCF45ED082D083F022C0E0C0F00B
:1007CB00C083C082C0D075D000C000C001C002C0C1
:1007DB0003C004C005C006C00790C809E030E0178D
:1007EB0090C808E030E010A37401F09000C712032A
:1007FB007CE94A605D805890C809E030E11790C8E9
:10080B0008E030E110A37402F09000CA12037CE9F7
:10081B004A603F803A90C809E030E21790C808E080
:10082B0030E210A37404F09000CD12037CE94A600F
:10083B0021801C90C809E030E31890C808E030E331
:10084B0011A37408F09000D012037CE94A600312E4
:10085B000405D007D006D005D004D003D002D001B8
:10086B00D000D0D0D082D083D0F0D0E0329000AB8B
:10087B0012039C90C9057407F0EF6401704FED24CF
:10088B00FE601C14602E2402703D9000AB12037CA2
:10089B009000D312039C90C904E04401F08028908F
:1008AB0000AB12037C9000D612039C90C904E04469
:1008BB0002F080139000AB12037C9000D912039CC2
:1008CB0090C904E04404F0D2AF43B80122ED24FEFA
:1008DB00601B14602C2402703B9000AB12037C90C5
:1008EB0000D312039C90C904E044FEF0229000ABAD
:1008FB0012037C9000D612039C90C904E044FDF0D7
:10090B00229000AB12037C9000D912039C90C90477
:10091B00E044FBF022C0E0C0F0C083C082C0D075C1
:10092B00D000C000C001C002C003C004C005C00697
:10093B00C00790C905E030E01C90C904E030E01519
:10094B009000D312037CE94A600312040590C90599
:10095B007401F0804C90C905E030E11C90C904E0B3
:10096B0030E1159000D612037CE94A6003120405AE
:10097B0090C9057402F0802990C905E030E21C9003
:10098B00C904E030E2159000D912037CE94A6003F8
:10099B0012040590C9057404F0800690C90574070C
:1009AB00F0D007D006D005D004D003D002D001D0B0
:1009BB0000D0D0D082D083D0F0D0E032C0E0C0F0F5
:1009CB00C083C082C0D075D000C000C001C002C0BF
:1009DB0003C004C005C006C00790CA05E030E01C88
:1009EB0090CA04E030E0159000DC12037CE94A6009
:1009FB000312040590CA057401F0804C90CA05E0FF
:100A0B0030E11C90CA04E030E1159000DF12037C4A
:100A1B00E94A600312040590CA057402F08029901C
:100A2B00CA05E030E21C90CA04E030E2159000E207
:100A3B0012037CE94A600312040590CA057404F0A2
:100A4B00800690CA057407F0D007D006D005D004F5
:100A5B00D003D002D001D000D0D0D082D083D0F040
:100A6B00D0E032C0E0C0F0C083C082C0D075D000EF
:100A7B00C000C001C002C003C004C005C006C0074F
:100A8B0090CB05E030E01C90CB04E030E0159000FB
:100A9B00E512037CE94A600312040590CB0574014F
:100AAB00F0804C90CB05E030E11C90CB04E030E1C2
:100ABB00159000E812037CE94A600312040590CB01
:100ACB00057402F0802990CB05E030E21C90CB043A
:100ADB00E030E2159000EB12037CE94A600312044C
:100AEB000590CB057404F0800690CB057407F0D00D
:100AFB0007D006D005D004D003D002D001D000D04F
:100B0B00D0D082D083D0F0D0E03290C018E4F07F08
:100B1B0008120066E4FD7F08120CD5E4FD7F081275
:100B2B000D4E7D017F08120DC790C01AE4F07F0AAD
:100B3B00120066E4FD7F0A120CD5E4FD7F0A120D4C
:100B4B004E7D017F0A120DC790C01BE4F07F0B1284
:100B5B000066E4FD7F0B120CD5E4FD7F0B120D4EEE
:100B6B00E4FD7F0B120DC77F0C1200667D017F0C1D
:100B7B00120CD5E4FD7F0C120D4E7D017F0C12077C
:100B8B00137BFF7A0079217D017F0C12065353B042
:100B9B00FD43B00190C01C7420F0A3E4F07F0D1254
:100BAB0000667D017F0D120CD57D017F0D020713B1
:100BBB00C0E0C0F0C083C082C0D075D000C000C000
:100BCB0001C002C003C004C005C006C0077F0C12E1
:100BDB001057EF604290C900E054FEF090C90AE054
:100BEB00E4F0A3E0E4F09000C575F0011201289049
:100BFB0000C5E07004A3E06402701C7D017F0A1243
:100C0B000DC77D017F0B120DC7E4FD7F08120DC7C9
:100C1B009000C5E4F0A3F090C900E04401F07F0C14
:100C2B00121015D007D006D005D004D003D002D0B7
:100C3B0001D000D0D0D082D083D0F0D0E032787FFA
:100C4B00E4F6D8FD758120020C90020F2EE493A3DD
:100C5B00F8E493A34003F68001F208DFF48029E463
:100C6B0093A3F85407240CC8C333C4540F4420C8AF
:100C7B00834004F456800146F6DFE4800B01020446
:100C8B00081020408090055EE47E019360BCA3FFBA
:100C9B00543F30E509541FFEE493A360010ECF547B
:100CAB00C025E060A840B8E493A3FAE493A3F8E46A
:100CBB0093A3C8C582C8CAC583CAF0A3C8C582C8D6
:100CCB00CAC583CADFE9DEE780BEEF131313541FD7
:100CDB00FEEF5407FFED6034EE700D04A80708809B
:100CEB0002C333D8FC42F922EEB4010E7401A807FB
:100CFB00088002C333D8FC42FA22EE64027043042C
:100D0B00A807088002C333D8FC42FB22EE700E0406
:100D1B00A807088002C333D8FCF452F922EEB401C1
:100D2B000F7401A807088002C333D8FCF452FA22CF
:100D3B00EEB4020E7401A807088002C333D8FCF48A
:100D4B0052FB22EF131313541FFEEF5407FFED60FA
:100D5B0034EE700D04A807088002C333D8FC429709
:100D6B0022EEB4010E7401A807088002C333D8FC2D
:100D7B0042E522EE6402704304A807088002C333E5
:100D8B00D8FC42FC22EE700E04A807088002C33385
:100D9B00D8FCF4529722EEB4010F7401A807088017
:100DAB0002C333D8FCF452E522EEB4020E7401A850
:100DBB0007088002C333D8FCF452FC22EF13131341
:100DCB00541FFEEF5407FFED6034EE700D04A807BF
:100DDB00088002C333D8FC428022EEB4010E7401AA
:100DEB00A807088002C333D8FC429022EE6402703D
:100DFB004304A807088002C333D8FC42A022EE703C
:100E0B000E04A807088002C333D8FCF4528022EEEC
:100E1B00B4010F7401A807088002C333D8FCF45245
:100E2B009022EEB4020E7401A807088002C333D8D7
:100E3B00FCF452A0229000AF12033FE47F10FEFDA2
:100E4B00FC9000B31202FE1201619000B712033F37
:100E5B00E47B02FAF9F89000B71202F21201EC905F
:100E6B0000AF1202FE1201549000B71202FE1201E3
:100E7B00EC9000B712033F9000B71202FEC3E49B45
:100E8B00FF74049AFEE499FDE498FC9000B71203FA
:100E9B003F9000B71202F2780812029CAB07900049
:100EAB00B71202F2EB5403F5BA8FAA22C0E0C0F0DE
:100EBB00C083C082C0D075D000C000C001C002C0CA
:100ECB0003C004C005C006C007E5C830E11053C815
:100EDB00FD9000EE12037CE94A6003120405E5C99C
:100EEB0030E11053C9FD9000F112037CE94A600315
:100EFB00120405E5CA30E11053CAFD9000F4120349
:100F0B007CE94A6003120405D007D006D005D00453
:100F1B00D003D002D001D000D0D0D082D083D0F07B
:100F2B00D0E0321211CB120B151211717D177C0010
:100F3B007F987E081210927BFF7A0079067D017FE5
:100F4B00011208781211D69000AF7401F07B047A6D
:100F5B0000E4FD7F011211027F031211567F06126E
:100F6B000094E4FF12119C7F0112118A7F01121170
:100F7B00BF80FEC0E0C0F0C083C082C0D075D0007F
:100F8B00C000C001C002C003C004C005C006C0073A
:100F9B00E5F630E00D90010312037CE94A60031281
:100FAB00040575F601D007D006D005D004D003D0C8
:100FBB0002D001D000D0D0D082D083D0F0D0E0329C
:100FCB00C0E0C0F0C083C082C0D075D000C000C0EC
:100FDB0001C002C003C004C005C006C00730980F93
:100FEB0090010012037CE94A6003120405C298D0F9
:100FFB0007D006D005D004D003D002D001D000D04A
:10100B00D0D082D083D0F0D0E032EF131313541F23
:10101B00FEEF5407FFEE700E04A807088002C333DF
:10102B00D8FCF452E122EEB4010F7401A80708803A
:10103B0002C333D8FCF452E222EEB4020E7401A8C0
:10104B0007088002C333D8FCF452E322EF131313C7
:10105B00541FFEEF5407FFEE700DE5E1A807088063
:10106B0002C313D8FC801CEEB4010DE5E2A80708FF
:10107B008002C313D8FC800BE5E3A807088002C3EA
:10108B0013D8FC5401FF22AB07AA0643DF0843E742
:10109B000890C900E04440F0EC90C90DF0ED90C908
:1010AB000CF0EB24FFEA34FF90C90FF0EB1490C95E
:1010BB000EF090C9067401F090C905E04401F022CE
:1010CB009000AB12033F43DE0143E601439E01E474
:1010DB009000FFF0C29FD29EC299C2989000AB12B3
:1010EB0002F29000B312033F9000FB1202F2120EB9
:1010FB0040D29C53F33F229000AFE0640170274332
:10110B00DE1043E610EFC4333354C0FFE5AC54BFDD
:10111B004FF5ACE4F5FEF5FFEBF5FEEAF5FFE5FD6B
:10112B0054FE4DF5FD2253DEEF53E6EF22C0E0C037
:10113B0083C082E5A630E3099001067401F075A324
:10114B002075A3FFD082D083D0E03253F7F8EF2481
:10115B00FC600B14600C2402700B43F7032243F763
:10116B00042243F70522E490005CF0FF7EC27D0170
:10117B00FC1210CB7BFF7A0079367F010211AEEFA8
:10118B00B4010753ADFE53ADFD2243AD0243AD0198
:10119B002243AC20EF700553ACFD800343AC0253EC
:1011AB00B5FE22EFB4010AD2AFD2AC90010002031C
:1011BB009CC2AC22EFB4010443AC012253ACFE221F
:1011CB007F007E367D6E7C0102043390C900E044C3
:0311DB0001F022FE
:00000001FF
