:10000000020C13E4900078F0FF7EC27D01FC120E1A
:10001000017BFF7A0E79947F01020EB690007D7409
:1000200001F022020D7074FFFDFC8F9920990AEDFA
:100030001DAE0470011C4E70F3C2992290CF02E0F5
:02004000FF229D
:10004300020D16BB010689828A83E0225002E72251
:10005300BBFE02E32289828A83E49322BB010CE57F
:100063008229F582E5833AF583E0225006E9258269
:10007300F8E622BBFE06E92582F8E222E58229F5AD
:1000830082E5833AF583E49322F8BB010DE58229E7
:10009300F582E5833AF583E8F0225006E92582C824
:1000A300F622BBFE05E92582C8F222A3F8E0C5F0DB
:1000B30025F0F0E582158270021583E0C838F0E878
:1000C30022EF2BFFEE3AFEED39FDEC38FC22E88FF0
:1000D300F0A4CC8BF0A42CFCE98EF0A42CFC8AF0C9
:1000E300EDA42CFCEA8EF0A4CDA8F08BF0A42DCCCB
:1000F3003825F0FDE98FF0A42CCD35F0FCEB8EF024
:10010300A4FEA9F0EB8FF0A4CFC5F02ECD39FEE409
:100113003CFCEAA42DCE35F0FDE43CFC2275F0084E
:10012300758200EF2FFFEE33FECD33CDCC33CCC53C
:100133008233C5829BED9AEC99E58298400CF58257
:10014300EE9BFEED9AFDEC99FC0FD5F0D6E4CEFBC9
:10015300E4CDFAE4CCF9A88222B800C1B90059BAB7
:10016300002DEC8BF084CFCECDFCE5F0CBF97818E5
:10017300EF2FFFEE33FEED33FDEC33FCEB33FB10DF
:10018300D703994004EB99FB0FD8E5E4F9FA2278F9
:1001930018EF2FFFEE33FEED33FDEC33FCC933C90B
:1001A30010D7059BE99A4007EC9BFCE99AF90FD815
:1001B300E0E4C9FAE4CCFB2275F010EF2FFFEE3335
:1001C300FEED33FDCC33CCC833C810D7079BEC9A74
:1001D300E899400AED9BFDEC9AFCE899F80FD5F0FD
:1001E300DAE4CDFBE4CCFAE4C8F922EF4BFFEE4AA4
:1001F300FEED49FDEC48FC22EB9FF5F0EA9E42F050
:10020300E99D42F0E89C45F022E8600FECC313FC43
:10021300ED13FDEE13FEEF13FFD8F122E8600FEFAD
:10022300C333FFEE33FEED33FDEC33FCD8F122BBD9
:10023300010789828A830202C05005E9F80203C5D7
:10024300BBFE05E9F80203D189828A830203DDBB81
:10025300010DE58229F582E5833AF5830202C05058
:1002630007E92582F80203C5BBFE07E92582F802E8
:1002730003D1E58229F582E5833AF5830203DDBBE9
:10028300010789828A8302030D5005E9F80203ED11
:10029300BBFE05E9F80203F922BB010DE58229F54E
:1002A30082E5833AF58302030D5007E92582F802BC
:1002B30003EDBBFE07E92582F80203F922E0FCA364
:1002C300E0FDA3E0FEA3E0FF22E0F8A3E0F9A3E052
:1002D300FAA3E0FB227401FF3395E0FEFDFCA3A328
:1002E300A3E0CF2FF0E582158270021583E0CE3EA6
:1002F300F0E582158270021583E0CD3DF0E58215AD
:100303008270021583E0CC3CF022ECF0A3EDF0A365
:10031300EEF0A3EFF022A8828583F0D083D082127F
:100323000330120330120330120330E473E493A357
:10033300C583C5F0C583C8C582C8F0A3C583C5F00E
:10034300C583C8C582C822E0FBA3E0FAA3E0F92273
:10035300F8E0FBA3A3E0F925F0F0E5821582700233
:100363001583E0FA38F022EBF0A3EAF0A3E9F022D8
:10037300D083D082E4937012740193700DA3A3937E
:10038300F8740193F5828883E4737402936C70129A
:100393007403936D700C7404936E70067405936FFD
:1003A30060DDA3A3A3A3A3A380CA8A838982E47382
:1003B300BB010689828A83F0225002F722BBFE0129
:1003C300F322E6FC08E6FD08E6FE08E6FF22E2FC6F
:1003D30008E2FD08E2FE08E2FF22E493FC740193C5
:1003E300FD740293FE740393FF22ECF608EDF60806
:1003F300EEF608EFF622ECF208EDF208EEF208EF63
:10040300F222D083D082F8E4937012740193700DBA
:10041300A3A393F8740193F5828883E4737402931E
:100423006860EFA3A3A380DFE5082481F582E434A9
:1004330000F583E005082290007E300703900081D9
:10044300E475F0011203530200462000E97F2ED227
:10045300008018EF540F2490D43440D4FF30040BA1
:10046300EF24BFB41A0050032461FFE509600215AD
:1004730009050CE50C7002050B30070E90007EE4B5
:1004830075F001120353EF0203B3020EDE7403D2BD
:10049300078003E4C207F50890007E12036AE4F5BF
:1004A30009F50BF50CE50960077F2012046E80F552
:1004B300750AFFC201C200C202C203C205C206C25C
:1004C3000812043AFF700D3007057F0012047FAF56
:1004D3000CAE0B22B4255FC2D5C20412043AFF242A
:1004E300D0B40A00501A75F00A780930D50508B659
:1004F300FF0106C6A426F620D5047002D20380D9D4
:1005030024CFB41A00EF5004C2E5D204020680D20D
:100513000180C6D20080C0D20280BCD2D580BAD2BC
:100523000580B47F2012046E2002077401B5090010
:1005330040F112042BFF12046E0204A8D208D20663
:10054300809512042BFB12042BFA12042BF94A4B4D
:10055300700679517A077BFF20022EE509602A7E17
:10056300008E8275830012005F60060EEE650A70CE
:10057300F0C2D5EBC0E0EAC0E0E9C0E0EE1206C786
:10058300D0E0F9D0E0FAD0E0FB120046FF60AAEB1E
:10059300C0E0EAC0E0E9C0E012046ED0E02401F953
:1005A300D0E03400FAD0E0FBE50A0460DCD50AD9D8
:1005B30080877BFF7A0679C3D202809C7910800200
:1005C3007908C206C2088008D2D5790A8004790A5C
:1005D300C2D5E50A047002F50AE4FAFDFEFF12042F
:1005E3002BFC7B0820011312042BFD7B1030000A27
:1005F30012042BFE12042BFF7B20EC3382D592D501
:100603005013C3E43000069FFFE49EFEE420010381
:100613009DFDE49CFCE4CBF8C201EC700CCFCECD85
:10062300CCE824F8F870F38017C3EF33FFEE33FE02
:10063300ED33FDEC33FCEB33FB994002FB0FD8E9C0
:10064300EB300105F8D0E0C448B201C0E00AEC4D3C
:100653004E4F78207B0070C2EAB50A0040BCC0E070
:100663001206C9D0F0D0E0200104C4C0E0C4B20136
:10067300C0F0120457D0F0D5F0EB0204A812040521
:1006830005455305BF5805164C05124205C34F05D2
:10069300CB4405CB49052B4305D15505B54605B5D7
:1006A3004505B547077150051A2D051E2E05412B2B
:1006B300052223053F20075A2A04DA48000005399A
:1006C3003F3F3F00790AA2D5200314300509B91032
:1006D300020404B9080104A2D52006025001042033
:1006E30002689202B509005034C0E07F203003193C
:1006F3007F30A20272067205500F120720C202C297
:1007030006C205C2087F30800F300503E9C0E0123E
:10071300046E300503D0E0F9D0E0B509CC300517FD
:100723007F30B9100C12046E7F583004077F788035
:1007330003B9080312046E3002057F2D02046E7F95
:10074300202008F87F2B2006F322920280CF286E08
:10075300756C6C2900D20112042B3001F8C20178A8
:100763000930D50108F60204DA2D50434958120422
:100773002B2403B405004001E490076C9312045F3B
:10078300743A12045FD2037509040205BF90007E18
:1007930012036A900083E090000A12008C9000829A
:1007A300E090000912008CED90007E70030208DADD
:1007B30012034A900008740112008C900009120081
:1007C3005FC4333354C0FF90000A12005F4FFF90A1
:1007D300000812005FFEC433333354804F90CF08B8
:1007E300F0900004120252E4FFFEED54E0FDEC54DD
:1007F3001FFC781512020C90CF09EFF09000041241
:100803000252E4FFEE54E0FEED541FFDE4FC780DCC
:1008130012020C90CF0AEFF0900004120252EF5430
:10082300E0FFEE541FFEE4FDFC780512020C90CFAE
:100833000BEFF0900004120252EF541FFFE4FEFD91
:10084300FC780312021FC004C005C006C007900055
:100853007E12034A90000912005F75F004A4FFAEF4
:10086300F0EE3395E0FDFCD003D002D001D00012AE
:1008730001EE90CF08EFF090007E12034A90000B38
:1008830012005F90CF09F090000C12005F90CF0A26
:10089300F090000D12005F90CF0BF090000E12004D
:1008A3005F90CF08F090000F12005F90CF09F09097
:1008B300001012005F90CF0AF090001112005F90B9
:1008C300CF0BF090001212005F90CF08F0A3E4F07A
:1008D300A3F0A3F00209B512034A90000912005FC6
:1008E300C4333354C0FF90000A12005F4FFF9000DF
:1008F3000812005FFEC433333354804F90CF08F0A7
:10090300120232EF54F8FFEE5407FEE4FDFC7803C5
:1009130012020C90CF09EFF090000912005F75F0FE
:1009230010A4FFAEF0EE3395E0FDFCC004C005C09B
:1009330006C00790007E12034A120232EF5407FFEB
:10094300E4FEFDFC780512021FD003D002D001D0D3
:10095300001201EE90CF0AEFF090007E12034A904E
:10096300000B12005F90CF0BF090000C12005F9011
:10097300CF08F090000D12005F90CF09F090000EA9
:1009830012005F90CF0AF090000F12005F90CF0B20
:10099300F090001012005F90CF08F0900011120049
:1009A3005F90CF09F090001212005F90CF0AF0A37E
:1009B300E4F090CF01E04404F012003CEF30E5F99D
:1009C3002290007E12030D90008212031900000092
:1009D3000043F804E5F85420642070F89091AAE0ED
:1009E300FFE4FCFDFE781012021FC004C005C00620
:1009F300C007A3E0FFE4FCFDFE781812021FD0033A
:100A0300D002D001D0001201EEC004C005C006C060
:100A1300079091A9E0FFE4FCFDFE780812021FD0C5
:100A230003D002D001D0001201EEA804A905AA0642
:100A3300AB079091A8E0FFE4FCFDFE1201EE9000ED
:100A4300A612030D7FC07E0A7D707C019000A61262
:100A530002CCD31201FB50167F407E617D6C7C017A
:100A63009000A61202CCC31201FB4002801274FF55
:100A7300FFFEFDFC9000A61202CCC31201FB700C1A
:100A830090008212031902DC6C008015E47F02FEE1
:100A9300FDFC9000A61202CC1200D190008212033A
:100AA3000D90007E1202C01203730AD300B71B001D
:100AB3000ACB00F424000AC3016E360000000ACBFF
:100AC30075EE01E47B02800E75EE02E47B03800683
:100AD30075EE03E47B04FAF9F89000821202C01267
:100AE300015C9000AA12030D53F8FE53D9F8227B40
:100AF300FF7A0E79E99000AA1202C09000811203D6
:100B03000D1204967BFF7A0E79FF1204967BFF7A0F
:100B13000F791D1204969000131203190000059219
:100B230090001712031911E8E477E4FFEFC3940868
:100B3300748094805013EF24A0FE741E2FF582E47A
:100B43003400F583EEF00F80E37F01120B867BFF09
:100B53007A00791C7F01120E387B017A007913E445
:100B6300900082F0A37408F0E4FD1207907FE87E02
:100B7300037D007C00120DBA7BFF7A0F792F1204DC
:100B83009680D643862043860890C01A7407F09057
:100B9300C023F090CF00E04404F0EF146018146019
:100BA300251460322403704A90CF06E0543F44403A
:100BB300F0E054C0802E90CF06E0543F4440F0E074
:100BC30054C04401801E90CF06E0543F4440F0E0FF
:100BD30054C04403800E90CF06E0543F4440F0E0FD
:100BE30054C04407F0A3E054F04403F0E0548F44AE
:100BF30020F090CF03747FF090CF1474FFF0A3F034
:100C0300A3F0A3F090CF00E054FDF0E054FBF022FA
:100C1300787FE4F6D8FD758121020C5A020ED3E4E5
:100C230093A3F8E493A34003F68001F208DFF48072
:100C330029E493A3F85407240CC8C333C4540F44C2
:100C430020C8834004F456800146F6DFE4800B019C
:100C530002040810204080900E67E47E019360BC7C
:100C6300A3FF543F30E509541FFEE493A360010E34
:100C7300CF54C025E060A840B8E493A3FAE493A35B
:100C8300F8E493A3C8C582C8CAC583CAF0A3C8C57C
:100C930082C8CAC583CADFE9DEE780BE900082123C
:100CA300030DE47F10FEFDFC9000861202CC1200BF
:100CB300D190008A12030DE47B02FAF9F890008ABE
:100CC3001202C012015C9000821202CC1200C49086
:100CD300008A1202CC12015C90008A12030D90006C
:100CE3008A1202CCC3E49BFF74049AFEE499FDE4E8
:100CF30098FC90008A12030D90008A1202C07808B3
:100D030012020CAB0790008A1202C0EB5403F5BA2F
:100D13008FAA22C0E0C0F0C083C082C0D075D000CB
:100D2300C000C001C002C003C004C005C006C007A4
:100D330090CF03E030E2159000B212034AE94A6013
:100D4300031203AD90CF037404F0800690CF0374B5
:100D53007FF0D007D006D005D004D003D002D00155
:100D6300D000D0D0D082D083D0F0D0E032C0E0C069
:100D7300F0C083C082C0D075D000C000C001C002E3
:100D8300C003C004C005C006C00730980F9000AF71
:100D930012034AE94A60031203ADC298D007D00692
:100DA300D005D004D003D002D001D000D0D0D0825F
:100DB300D083D0F0D0E03290007E12030D900082F9
:100DC3001203190000000090007E1202C0900082FE
:100DD3001202CCD31201FB5024007F157E92DEFE5B
:100DE300DFFC9000821202C0EF2401FFE43EFEE428
:100DF3003DFDE43CFC90008212030D80CA2290006A
:100E03007E12030D43DE0143E601439E01E490009D
:100E1300AEF0C29FD29EC299C29890007E1202C0C9
:100E230090008612030D9000AA1202C0120C9FD2EA
:100E33009C53F33F22EF6013D2AF439A029000B268
:100E430012036A90CF04E04404F022C2AF539AFD28
:100E530090CF04E054FBF07B007A0079009000B25D
:100E630012036A224400AA000000004400A6000006
:100E730000004300B20000004100AE004300AF0099
:100E83000000420079000042007B000041007D0029
:100E930000120EE3900079E475F0011200AEFC74C9
:100EA3003825F0F58274003CF583EFF090007874F8
:100EB30001F022EF6401700AD2AFD2AC9000AF020E
:100EC300036AC2AC227F007E247DF47C000209C445
:100ED300120EC8120003120EE680FEAB07020026B4
:100EE300AF9922020AF253797374656D2072756E9D
:100EF30020617420256C64487A0A0D007374617252
:100F03007420746573742043414E20747820667591
:100F13006E6374696F6E21200A0063616E207478BA
:100F23002074657374212121210D0A0063616E20F1
:100F330073656E6420646174612066696E697368A9
:040F4300210D0A0072
:00000001FF
