:10000000020CB002065753F7F8EF24FC600B1460A3
:100010000C2402700B43F7032243F7042243F70535
:0200200022229A
:060023000210ACAF9922AF
:03002B00020F9829
:1000330002105FE5B7540FFEAFB6D3EF9401EE9411
:1000430000400774052FFFE43EFED3EF94FFEE94C8
:0B0053000F40047E0F7FFF2202123BD3
:100063000208BCEF131313541FFEEF54079000ABA9
:10007300F0EE700743DF0143E70122EEB4010743CB
:10008300DF0243E70222EEB4020643DF0443E70440
:0B00930022EF8FF553B4EF22020B6345
:0300A300020ABC92
:1000AB00020A15BB010689828A83E0225002E722ED
:1000BB00BBFE02E32289828A83E49322BB010CE517
:1000CB008229F582E5833AF583E0225006E9258201
:1000DB00F8E622BBFE06E92582F8E222E58229F545
:1000EB0082E5833AF583E49322BB010689828A83F6
:1000FB00F0225002F722BBFE01F322F8BB010DE503
:10010B008229F582E5833AF583E8F0225006E9254A
:10011B0082C8F622BBFE05E92582C8F222C5F0F89B
:10012B00A3E028F0C5F0F8E582158270021583E094
:10013B0038F022A3F8E0C5F025F0F0E582158270C7
:10014B00021583E0C838F0E822EF2BFFEE3AFEED04
:10015B0039FDEC38FC22E88FF0A4CC8BF0A42CFCFE
:10016B00E98EF0A42CFC8AF0EDA42CFCEA8EF0A412
:10017B00CDA8F08BF0A42DCC3825F0FDE98FF0A4A1
:10018B002CCD35F0FCEB8EF0A4FEA9F0EB8FF0A498
:10019B00CFC5F02ECD39FEE43CFCEAA42DCE35F0D4
:1001AB00FDE43CFC2275F008758200EF2FFFEE3367
:1001BB00FECD33CDCC33CCC58233C5829BED9AECCF
:1001CB0099E58298400CF582EE9BFEED9AFDEC9939
:1001DB00FC0FD5F0D6E4CEFBE4CDFAE4CCF9A88243
:1001EB0022B800C1B90059BA002DEC8BF084CFCEE8
:1001FB00CDFCE5F0CBF97818EF2FFFEE33FEED33A6
:10020B00FDEC33FCEB33FB10D703994004EB99FB6C
:10021B000FD8E5E4F9FA227818EF2FFFEE33FEED55
:10022B0033FDEC33FCC933C910D7059BE99A400762
:10023B00EC9BFCE99AF90FD8E0E4C9FAE4CCFB2279
:10024B0075F010EF2FFFEE33FEED33FDCC33CCC842
:10025B0033C810D7079BEC9AE899400AED9BFDEC4D
:10026B009AFCE899F80FD5F0DAE4CDFBE4CCFAE48C
:10027B00C8F922EF4BFFEE4AFEED49FDEC48FC229C
:10028B00EB9FF5F0EA9E42F0E99D42F0E89C45F0C9
:10029B0022E8600FECC313FCED13FDEE13FEEF131E
:1002AB00FFD8F122E8600FEFC333FFEE33FEED33DF
:1002BB00FDEC33FCD8F122BB010DE58229F582E57B
:1002CB00833AF5830202F25007E92582F802040B08
:1002DB00BBFE07E92582F8020417E58229F582E5C2
:1002EB00833AF583020423E0FCA3E0FDA3E0FEA325
:1002FB00E0FF22E0F8A3E0F9A3E0FAA3E0FB22740D
:10030B0001FF3395E0FEFDFCA3A3A3E0CF2FF0E5A7
:10031B0082158270021583E0CE3EF0E58215827065
:10032B00021583E0CD3DF0E582158270021583E066
:10033B00CC3CF022ECF0A3EDF0A3EEF0A3EFF02217
:10034B00A8828583F0D083D08212036212036212DB
:10035B000362120362E473E493A3C583C5F0C58300
:10036B00C8C582C8F0A3C583C5F0C583C8C582C8FC
:10037B0022E0FBA3E0FAA3E0F922F8E0FBA3A3E061
:10038B00F925F0F0E582158270021583E0FA38F05A
:10039B0022EBF0A3EAF0A3E9F022D083D082F8E4B9
:1003AB00937012740193700DA3A393F8740193F5DA
:1003BB00828883E4737402936860EFA3A3A380DF46
:1003CB00D083D082E4937012740193700DA3A39326
:1003DB00F8740193F5828883E4737402936C701242
:1003EB007403936D700C7404936E70067405936FA5
:1003FB0060DDA3A3A3A3A3A380CA8A838982E4732A
:10040B00E6FC08E6FD08E6FE08E6FF22E2FC08E251
:10041B00FD08E2FE08E2FF22E493FC740193FD74F5
:10042B000293FE740393FF229000AB12033F9000E4
:10043B00AF12034B0000000043F804E5F830E5FB76
:10044B009091AAE0FFE4FCFDFE78101202AFC0040D
:10045B00C005C006C007A3E0FFE4FCFDFE78181240
:10046B0002AFD003D002D001D00012027EC004C074
:10047B0005C006C0079091A9E0FFE4FCFDFE7808DB
:10048B001202AFD003D002D001D00012027EA8041A
:10049B00A905AA06AB079091A8E0FFE4FCFDFE12AC
:1004AB00027E9000F812033F7FC07E0A7D707C01B4
:1004BB009000F81202FED312028B50167F407E6121
:1004CB007D6C7C019000F81202FEC312028B40027D
:1004DB00801274FFFFFEFDFC9000F81202FEC312A7
:1004EB00028B700C9000AF12034B02DC6C0080157A
:1004FB00E47F02FEFDFC9000F81202FE12016190F7
:10050B0000AF12033F9000AB1202F21203CB053F78
:10051B0000B71B00053700F42400052F016E3600D1
:10052B000000053775EE01E47B02800E75EE02E4E8
:10053B007B03800675EE03E47B04FAF9F89000AFB9
:10054B001202F21201EC9000FC12033F53F8FE531F
:10055B00D9F8224400FC000000004400F800000021
:10056B00004200BD00004200C300004200C1006415
:10057B004200BF00004200C600004200BB00004129
:10058B0000C5006048006300000000000000000090
:10059B000000000000000000000000000000000050
:1005AB000000000000000000000000000000000040
:1005BB000000000000000000000000000000000030
:1005CB0000000000000000000000000000000041DF
:1005DB000100004301010000004301040000004939
:1005EB0000D40000000000000000004900DD000006
:1005FB00000000000000004900E6000000000000C1
:10060B000000004C00C800000000000000000000CB
:10061B000000410107004900EF000000000000004E
:10062B00000041001B0041000400440000000000DA
:10063B0000420005000042005D000242005F000026
:10064B004200610000C102C101C10000C0E0C0F066
:10065B00C083C082C0D075D000C000C001C002C032
:10066B0003C004C005C006C0077F0C121138EF7021
:10067B000302071A90C900E054FEF07D017F0812B7
:10068B000EA87F02120D3CE5AD20E2FBE5F630E053
:10069B00FB75F6011200369000BDEEF0A3EFF09063
:1006AB0000C1E0FEA3E0FFC39000BEE09F9000BD41
:1006BB00E09E405BA3E094FF9000BDE0947F504F21
:1006CB009000C5E014603E0470459000C6E475F0E0
:1006DB00011201289000C6E07004A3E06402702FA1
:1006EB0090C90AE0E4F0A3E0E4F07D017F0A120E6A
:1006FB00A87D017F0B120EA89000C57401F0A3E436
:10070B00F0A3F0800A90C90AE0E4F0A3E0E4F0E47F
:10071B00FD7F08120EA890C900E04401F07F0C1277
:10072B0010F6D007D006D005D004D003D002D001EC
:10073B00D000D0D0D082D083D0F0D0E032AC07EF55
:10074B00131313541F9000ABF0EF5407A3F0ED609D
:10075B0060EC75F003A42463F582E43400F5831296
:10076B00039CD2AFD2A81210F69000ABE0FF701131
:10077B00A3E0FE7401A806088002C333D8FC42E94B
:10078B0022EFB401139000ACE0FF7401A8070880BE
:10079B0002C333D8FC42EA229000ABE06402705CE7
:1007AB00A3E0FF7401A807088002C333D8FC42EB17
:1007BB0022C2A89000ABE0FF7012A3E0FE7401A868
:1007CB0006088002C333D8FCF452E922EFB40114BB
:1007DB009000ACE0FF7401A807088002C333D8FC7B
:1007EB00F452EA229000ABE0B40211A3E0FF7401D3
:1007FB00A807088002C333D8FCF452EB22EF131383
:10080B0013541FFEEF5407FFED604FEE701690C0B0
:10081B0000C083C082E0FE7401A807088002C333C6
:10082B00D8FC8033EEB4011690C001C083C082E0C7
:10083B00FE7401A807088002C333D8FC8019EE644C
:10084B0002706D90C002C083C082E0FE7401A807E5
:10085B00088002C333D8FC4E8051EE701890C00054
:10086B00C083C082E0FE7401A807088002C333D89E
:10087B00FCF45E8036EEB4011890C001C083C082D8
:10088B00E0FE7401A807088002C333D8FCF45E8035
:10089B001AEEB4021B90C002C083C082E0FE74014A
:1008AB00A807088002C333D8FCF45ED082D083F053
:1008BB0022C0E0C0F0C083C082C0D075D000C000A1
:1008CB00C001C002C003C004C005C006C00790C869
:1008DB0009E030E01790C808E030E010A37401F095
:1008EB009000C812037CE94A605D805890C809E00B
:1008FB0030E11790C808E030E110A37402F09000CB
:10090B00CB12037CE94A603F803A90C809E030E2A1
:10091B001790C808E030E210A37404F09000CE12D8
:10092B00037CE94A6021801C90C809E030E31890F1
:10093B00C808E030E311A37408F09000D112037CD7
:10094B00E94A6003120405D007D006D005D004D0C5
:10095B0003D002D001D000D0D0D082D083D0F0D041
:10096B00E0329000AB12039C90C9057407F0EF6462
:10097B0001704FED24FE601C14602E2402703D901C
:10098B0000AB12037C9000D412039C90C904E0448A
:10099B0001F080289000AB12037C9000D712039CCF
:1009AB0090C904E04402F080139000AB12037C90DA
:1009BB0000DA12039C90C904E04404F0D2AF43B8B0
:1009CB000122ED24FE601B14602C2402703B90006E
:1009DB00AB12037C9000D412039C90C904E044FE3C
:1009EB00F0229000AB12037C9000D712039C90C9AD
:1009FB0004E044FDF0229000AB12037C9000DA126D
:100A0B00039C90C904E044FBF022C0E0C0F0C0831B
:100A1B00C082C0D075D000C000C001C002C003C0EE
:100A2B0004C005C006C00790C905E030E01C90C9A2
:100A3B0004E030E0159000D412037CE94A60031205
:100A4B00040590C9057401F0804C90C905E030E1B4
:100A5B001C90C904E030E1159000D712037CE94AE1
:100A6B00600312040590C9057402F0802990C90532
:100A7B00E030E21C90C904E030E2159000DA12037A
:100A8B007CE94A600312040590C9057404F08006E2
:100A9B0090C9057407F0D007D006D005D004D00359
:100AAB00D002D001D000D0D0D082D083D0F0D0E013
:100ABB0032C0E0C0F0C083C082C0D075D000C0008F
:100ACB00C001C002C003C004C005C006C00790CA65
:100ADB0005E030E01C90CA04E030E0159000DD1218
:100AEB00037CE94A600312040590CA057401F08087
:100AFB004C90CA05E030E11C90CA04E030E115903F
:100B0B0000E012037CE94A600312040590CA0574E5
:100B1B0002F0802990CA05E030E21C90CA04E03054
:100B2B00E2159000E312037CE94A6003120405907E
:100B3B00CA057404F0800690CA057407F0D007D07C
:100B4B0006D005D004D003D002D001D000D0D0D035
:100B5B0082D083D0F0D0E032C0E0C0F0C083C0823E
:100B6B00C0D075D000C000C001C002C003C004C01B
:100B7B0005C006C00790CB05E030E01C90CB04E02D
:100B8B0030E0159000E612037CE94A60031204057D
:100B9B0090CB057401F0804C90CB05E030E11C90BC
:100BAB00CB04E030E1159000E912037CE94A6003C5
:100BBB0012040590CB057402F0802990CB05E03030
:100BCB00E21C90CB04E030E2159000EC12037CE9C0
:100BDB004A600312040590CB057404F0800690CB99
:100BEB00057407F0D007D006D005D004D003D0028F
:100BFB00D001D000D0D0D082D083D0F0D0E03290D2
:100C0B00C018E4F07F08120066E4FD7F08120DB6F1
:100C1B00E4FD7F08120E2F7D017F08120EA890C0F5
:100C2B001AE4F07F0A120066E4FD7F0A120DB6E4A7
:100C3B00FD7F0A120E2F7D017F0A120EA890C01B9A
:100C4B00E4F07F0B120066E4FD7F0B120DB6E4FDA2
:100C5B007F0B120E2FE4FD7F0B120EA87F0C1200E0
:100C6B00667D017F0C120DB6E4FD7F0C120E2F7DFD
:100C7B00017F0C1208087BFF7A0079217D017F0C24
:100C8B0012074853B0FD43B00190C01C7420F0A371
:100C9B00E4F07F0D1200667D017F0D120DB67D0114
:100CAB007F0D020808787FE4F6D8FD758120020CD1
:100CBB00F702100FE493A3F8E493A34003F680012B
:100CCB00F208DFF48029E493A3F85407240CC8C37B
:100CDB0033C4540F4420C8834004F456800146F6B5
:100CEB00DFE4800B010204081020408090055EE4D5
:100CFB007E019360BCA3FF543F30E509541FFEE413
:100D0B0093A360010ECF54C025E060A840B8E493D4
:100D1B00A3FAE493A3F8E493A3C8C582C8CAC58316
:100D2B00CAF0A3C8C582C8CAC583CADFE9DEE7809B
:100D3B00BEEF1203A50D5C010D66020D70040D7A5A
:100D4B00080D84100D8E200D98400DA28000000D13
:100D5B00ACE5B454F04401F5B48049E5B454F04427
:100D6B0002F5B4803FE5B454F04403F5B48035E5A7
:100D7B00B454F04404F5B4802BE5B454F04405F5B9
:100D8B00B48021E5B454F04406F5B48017E5B454AF
:100D9B00F04407F5B4800DE5B454F04408F5B48085
:100DAB000353B4F053ADFB43AD0422EF13131354B1
:100DBB001FFEEF5407FFED6034EE700D04A807081B
:100DCB008002C333D8FC42F922EEB4010E7401A8A1
:100DDB0007088002C333D8FC42FA22EE6402704348
:100DEB0004A807088002C333D8FC42FB22EE700E26
:100DFB0004A807088002C333D8FCF452F922EEB4DE
:100E0B00010F7401A807088002C333D8FCF452FA0F
:100E1B0022EEB4020E7401A807088002C333D8FC7B
:100E2B00F452FB22EF131313541FFEEF5407FFED85
:100E3B006034EE700D04A807088002C333D8FC425F
:100E4B009722EEB4010E7401A807088002C333D8B1
:100E5B00FC42E522EE6402704304A807088002C33B
:100E6B0033D8FC42FC22EE700E04A807088002C3A4
:100E7B0033D8FCF4529722EEB4010F7401A8070883
:100E8B008002C333D8FCF452E522EEB4020E740197
:100E9B00A807088002C333D8FCF452FC22EF1313CB
:100EAB0013541FFEEF5407FFED6034EE700D04A8D2
:100EBB0007088002C333D8FC428022EEB4010E74C3
:100ECB0001A807088002C333D8FC429022EE6402CB
:100EDB00704304A807088002C333D8FC42A022EE5B
:100EEB00700E04A807088002C333D8FCF45280228A
:100EFB00EEB4010F7401A807088002C333D8FCF4C9
:100F0B00529022EEB4020E7401A807088002C3337C
:100F1B00D8FCF452A0229000AF12033FE47F10FEE6
:100F2B00FDFC9000B31202FE1201619000B7120398
:100F3B003FE47B02FAF9F89000B71202F21201ECCF
:100F4B009000AF1202FE1201549000B71202FE1273
:100F5B0001EC9000B712033F9000B71202FEC3E4FE
:100F6B009BFF74049AFEE499FDE498FC9000B71281
:100F7B00033F9000B71202F2780812029CAB079065
:100F8B0000B71202F2EB5403F5BA8FAA22C0E0C0ED
:100F9B00F0C083C082C0D075D000C000C001C002B9
:100FAB00C003C004C005C006C007E5C830E110533C
:100FBB00C8FD9000EF12037CE94A6003120405E5BB
:100FCB00C930E11053C9FD9000F212037CE94A606D
:100FDB0003120405E5CA30E11053CAFD9000F51267
:100FEB00037CE94A6003120405D007D006D005D074
:100FFB0004D003D002D001D000D0D0D082D083D087
:10100B00F0D0E0321212C7120C0A1212597D0F7C6B
:10101B00007FB87E0B1211737BFF7A1279727D0100
:10102B007F0112096D1212D29000AF7401F07B0494
:10103B007A00E4FD7F011211E37F031200067F06A5
:10104B00120094E4FF1212987F011212867F011294
:10105B0012BB80FEC0E0C0F0C083C082C0D075D090
:10106B0000C000C001C002C003C004C005C006C060
:10107B0007E5F630E00D90010412037CE94A6003AA
:10108B0012040575F601D007D006D005D004D003A5
:10109B00D002D001D000D0D0D082D083D0F0D0E01D
:1010AB0032C0E0C0F0C083C082C0D075D000C00099
:1010BB00C001C002C003C004C005C006C007309801
:1010CB000F90010112037CE94A6003120405C298D8
:1010DB00D007D006D005D004D003D002D001D00069
:1010EB00D0D0D082D083D0F0D0E032EF1313135492
:1010FB001FFEEF5407FFEE700E04A807088002C313
:10110B0033D8FCF452E122EEB4010F7401A80708A6
:10111B008002C333D8FCF452E222EEB4020E740107
:10112B00A807088002C333D8FCF452E322EF131351
:10113B0013541FFEEF5407FFEE700DE5E1A80708EF
:10114B008002C313D8FC801CEEB4010DE5E2A807A6
:10115B00088002C313D8FC800BE5E3A807088002C4
:10116B00C313D8FC5401FF22AB07AA0643DF084385
:10117B00E70890C900E04440F0EC90C90DF0ED9009
:10118B00C90CF0EB24FFEA34FF90C90FF0EB14907D
:10119B00C90EF090C9067401F090C905E04401F046
:1011AB00229000AB12033F43DE0143E601439E0155
:1011BB00E4900100F0C29FD29EC299C2989000ABFE
:1011CB001202F29000B312033F9000FC1202F212D3
:1011DB000F21D29C53F33F229000AFE064017027A4
:1011EB0043DE1043E610EFC4333354C0FFE5AC5479
:1011FB00BF4FF5ACE4F5FEF5FFEBF5FEEAF5FFE5C9
:10120B00FD54FE4DF5FD2253DEEF53E6EF221200A7
:10121B002690005FE475F00112013EFC741C25F072
:10122B00F58274003CF583EFF090005C7401F022C2
:10123B00C0E0C083C082E5A630E3099001077401CA
:10124B00F075A32075A3FFD082D083D0E032E49059
:10125B00005CF0FF7EC27D01FC1211AC7BFF7A12A9
:10126B0079197F010212AAE4FD7F0A120EA8E4FD90
:10127B007F0B120EA8E49000C5F022EFB4010753C8
:10128B00ADFE53ADFD2243AD0243AD012243AC2075
:10129B00EF700553ACFD800343AC0253B5FE22EF58
:1012AB00B4010AD2AFD2AC90010102039CC2AC22B2
:1012BB00EFB4010443AC012253ACFE227F007E3617
:0F12CB007D6E7C0102043390C900E04401F022E3
:00000001FF
