:100000000208D1E4900242F0FF7EC27D01FC120B97
:10001000CE7BFF7A0C79637F01020C9BAB07020C4D
:01002000855A
:10002300020AF690C405E030E1F9A3EFF090C405AD
:10003300E020E2F922AF9922020AAAE5082457F543
:1000430082E43402F583E00508229002543007036A
:10005300900257E475F0011206580203A32000E949
:100063007F2ED2008018EF540F2490D43440D4FF55
:1000730030040BEF24BFB41A0050032461FFE509D9
:1000830060021509050CE50C7002050B30070E9094
:100093000254E475F001120658EF0203E902001C52
:1000A3007403D2078003E4C207F5089002541206D2
:1000B3006FE4F509F50BF50CE50960077F201200E5
:1000C3008180F5750AFFC201C200C202C203C205E4
:1000D300C206C20812004DFF700D3007057F0012E3
:1000E3000092AF0CAE0B22B4255FC2D5C20412003E
:1000F3004DFF24D0B40A00501A75F00A780930D5A0
:100103000508B6FF0106C6A426F620D5047002D260
:100113000380D924CFB41A00EF5004C2E5D20402FD
:100123000293D20180C6D20080C0D20280BCD2D555
:1001330080BAD20580B47F201200812002077401A7
:10014300B5090040F112003EFF1200810200BBD24C
:1001530008D206809512003EFB12003EFA12003EC2
:10016300F94A4B700679647A037BFF20022EE50976
:10017300602A7E008E827583001203BC60060EEE39
:10018300650A70F0C2D5EBC0E0EAC0E0E9C0E0EE7A
:100193001202DAD0E0F9D0E0FAD0E0FB1203A3FFB9
:1001A30060AAEBC0E0EAC0E0E9C0E0120081D0E061
:1001B3002401F9D0E03400FAD0E0FBE50A0460DC66
:1001C300D50AD980877BFF7A0279D6D202809C79BF
:1001D3001080027908C206C2088008D2D5790A8045
:1001E30004790AC2D5E50A047002F50AE4FAFDFEB1
:1001F300FF12003EFC7B0820011312003EFD7B1022
:1002030030000A12003EFE12003EFF7B20EC3382D8
:10021300D592D55013C3E43000069FFFE49EFEE45D
:100223002001039DFDE49CFCE4CBF8C201EC700CBF
:10023300CFCECDCCE824F8F870F38017C3EF33FFAB
:10024300EE33FEED33FDEC33FCEB33FB994002FB65
:100253000FD8E9EB300105F8D0E0C448B201C0E0A3
:100263000AEC4D4E4F78207B0070C2EAB50A00407D
:10027300BCC0E01202DCD0F0D0E0200104C4C0E036
:10028300C4B201C0F012006AD0F0D5F0EB0200BB9B
:100293001206E001585301D25801294C01254201AD
:1002A300D64F01DE4401DE49013E4301E45501C856
:1002B3004601C84501C847038450012D2D01312E45
:1002C30001542B013523015220036D2A00ED480010
:1002D30000014C3F3F3F00790AA2D52003143005AB
:1002E30009B910020404B9080104A2D5200602507A
:1002F30001042002689202B509005034C0E07F2057
:100303003003197F30A20272067205500F120333B5
:10031300C202C206C205C2087F30800F300503E95E
:10032300C0E0120081300503D0E0F9D0E0B509CC7C
:100333003005177F30B9100C1200817F5830040745
:100343007F788003B908031200813002057F2D02F4
:1003530000817F202008F87F2B2006F32292028061
:10036300CF286E756C6C2900D20112003E3001F863
:10037300C201780930D50108F60200ED2D5043493A
:100383005812003E2403B405004001E490037F9318
:10039300120072743A120072D2037509040201D278
:1003A300BB010689828A83E0225002E722BBFE0258
:1003B300E32289828A83E49322BB010CE58229F537
:1003C30082E5833AF583E0225006E92582F8E622A6
:1003D300BBFE06E92582F8E222E58229F582E58360
:1003E3003AF583E49322BB010689828A83F0225083
:1003F30002F722BBFE01F322C5F0F8A3E028F0C503
:10040300F0F8E582158270021583E038F022A3F834
:10041300E0C5F025F0F0E582158270021583E0C88F
:1004230038F0E822EF2BFFEE3AFEED39FDEC38FC15
:1004330022E88FF0A4CC8BF0A42CFCE98EF0A42C42
:10044300FC8AF0EDA42CFCEA8EF0A4CDA8F08BF08E
:10045300A42DCC3825F0FDE98FF0A42CCD35F0FC8C
:10046300EB8EF0A4FEA9F0EB8FF0A4CFC5F02ECD58
:1004730039FEE43CFCEAA42DCE35F0FDE43CFC223D
:1004830075F008758200EF2FFFEE33FECD33CDCC30
:1004930033CCC58233C5829BED9AEC99E5829840B3
:1004A3000CF582EE9BFEED9AFDEC99FC0FD5F0D690
:1004B300E4CEFBE4CDFAE4CCF9A88222B800C1B9BA
:1004C3000059BA002DEC8BF084CFCECDFCE5F0CBF8
:1004D300F97818EF2FFFEE33FEED33FDEC33FCEB31
:1004E30033FB10D703994004EB99FB0FD8E5E4F9EC
:1004F300FA227818EF2FFFEE33FEED33FDEC33FCD9
:10050300C933C910D7059BE99A4007EC9BFCE99ACC
:10051300F90FD8E0E4C9FAE4CCFB2275F010EF2F11
:10052300FFEE33FEED33FDCC33CCC833C810D70711
:100533009BEC9AE899400AED9BFDEC9AFCE899F84C
:100543000FD5F0DAE4CDFBE4CCFAE4C8F922EF4BA3
:10055300FFEE4AFEED49FDEC48FC22EB9FF5F0EA85
:100563009E42F0E99D42F0E89C45F022E8600FECE2
:10057300C313FCED13FDEE13FEEF13FFD8F122E8D6
:10058300600FEFC333FFEE33FEED33FDEC33FCD8E6
:10059300F122BB010DE58229F582E5833AF5830259
:1005A30005C55007E92582F80206B8BBFE07E92511
:1005B30082F80206C4E58229F582E5833AF58302CF
:1005C30006D0E0FCA3E0FDA3E0FEA3E0FF22E0F8F9
:1005D300A3E0F9A3E0FAA3E0FB227401FF3395E063
:1005E300FEFDFCA3A3A3E0CF2FF0E58215827002EA
:1005F3001583E0CE3EF0E582158270021583E0CDCF
:100603003DF0E582158270021583E0CC3CF022ECCC
:10061300F0A3EDF0A3EEF0A3EFF022A8828583F020
:10062300D083D082120635120635120635120635EE
:10063300E473E493A3C583C5F0C583C8C582C8F03A
:10064300A3C583C5F0C583C8C582C822E0FBA3E068
:10065300FAA3E0F922F8E0FBA3A3E0F925F0F0E523
:1006630082158270021583E0FA38F022EBF0A3EAD8
:10067300F0A3E9F022D083D082E493701274019343
:10068300700DA3A393F8740193F5828883E47374C4
:1006930002936C70127403936D700C7404936E70F8
:1006A300067405936F60DDA3A3A3A3A3A380CA8AE3
:1006B300838982E473E6FC08E6FD08E6FE08E6FFAC
:1006C30022E2FC08E2FD08E2FE08E2FF22E493FCDA
:1006D300740193FD740293FE740393FF22D083D0BD
:1006E30082F8E4937012740193700DA3A393F874CA
:1006F3000193F5828883E4737402936860EFA3A384
:10070300A380DF90024712061290024B12061E00CE
:1007130000000043F804E5F85420642070F8909139
:10072300AAE0FFE4FCFDFE7810120582C004C005B8
:10073300C006C007A3E0FFE4FCFDFE7818120582A3
:10074300D003D002D001D000120551C004C005C0AF
:1007530006C0079091A9E0FFE4FCFDFE78081205AE
:1007630082D003D002D001D000120551A804A905FC
:10077300AA06AB079091A8E0FFE4FCFDFE12055129
:1007830090027C1206127FC07E0A7D707C0190026B
:100793007C1205D1D312055E50167F407E617D6CBD
:1007A3007C0190027C1205D1C312055E40028012C7
:1007B30074FFFFFEFDFC90027C1205D1C312055E9F
:1007C300700C90024B12061E02DC6C008015E47F55
:1007D30002FEFDFC90027C1205D112043490024B00
:1007E3001206129002471205C5120678081500B7C3
:1007F3001B00080D00F424000805016E36000000FC
:10080300080D75EE01E47B02800E75EE02E47B03B6
:10081300800675EE03E47B04FAF9F890024B1205A7
:10082300C51204BF90028012061253F8FE53D9F882
:10083300227BFF7A0D79121200A97BFF7A0D793A98
:100843001200A97BFF7A0C79ADE4FD7F01120B87BF
:10085300120CDFE4900247F0A3F0900247E0FEA3FE
:10086300E0FFC39408EE9400503A74022FF58274AB
:10087300013EF583E0FF120026900000E060FAA33A
:10088300E0FF900247E0FCA3E02402F58274003C01
:10089300F583EFF0E4900000F090024775F0011249
:1008A30003FB80B6120CE77BFF7A0D795E1200A979
:1008B3007B017A0079027F087E007D007C001209AB
:1008C300D47FE87E037D007C00120B408082787F1A
:1008D300E4F6D8FD758121020918020CD4E493A330
:1008E300F8E493A34003F68001F208DFF48029E4DF
:1008F30093A3F85407240CC8C333C4540F4420C82B
:10090300834004F456800146F6DFE4800B010204C1
:100913000810204080900C36E47E019360BCA3FF56
:10092300543F30E509541FFEE493A360010ECF54F6
:10093300C025E060A840B8E493A3FAE493A3F8E4E5
:1009430093A3C8C582C8CAC583CAF0A3C8C582C851
:10095300CAC583CADFE9DEE780BE90024B120612E6
:10096300E47F10FEFDFC90024F1205D11204349077
:100973000253120612E47B02FAF9F89002531205AD
:10098300C51204BF90024B1205D1120427900253E3
:100993001205D11204BF9002531206129002531291
:1009A30005D1C3E49BFF74049AFEE499FDE498FC2B
:1009B3009002531206129002531205C578081205CD
:1009C3006FAB079002531205C5EB5403F5BA8FAA18
:1009D3002290024912066F90024C120612900250A6
:1009E30012061E0000000090024C1205C590025032
:1009F3001205D1C312055E503B9002501205C590FB
:100A0300024912064F8F828E831203BC900257F065
:100A13007BFF7A0D79BC1200A99002501205C5EF35
:100A23002401FFE43EFEE43DFDE43CFC9002501251
:100A3300061280B37BFF7A0D79C30200A943E6084F
:100A430043DE0890C400E4F0A3F0A374F0F090C474
:100A530000E04404F0E054F7F0E0FEEDC43354E06A
:100A6300FDEE4DF0A3E04410F0EF14601214601C8F
:100A73001460212403702890C400E054FE80069083
:100A8300C400E04401F0E054FDF0801390C400E0A2
:100A930054FE800690C400E04401F0E04402F0906C
:100AA300C401E04420F022C0E0C0F0C083C082C093
:100AB300D075D000C000C001C002C003C004C0058F
:100AC300C006C00790C405E030E00D90028812060E
:100AD3004FE94A60031206B2D007D006D005D0040E
:100AE300D003D002D001D000D0D0D082D083D0F0B8
:100AF300D0E032C0E0C0F0C083C082C0D075D00067
:100B0300C000C001C002C003C004C005C006C007C6
:100B130030980F90028512064FE94A60031206B21D
:100B2300C298D007D006D005D004D003D002D0019C
:100B3300D000D0D0D082D083D0F0D0E03290024920
:100B430012061290024D12061E0000000090024988
:100B53001205C590024D1205D1D312055E50240033
:100B63007F157E92DEFEDFFC90024D1205C5EF2459
:100B730001FFE43EFEE43DFDE43CFC90024D120621
:100B83001280CA22EF6401702FED146010146016F6
:100B93002402701990C404E04401F0801090C4044E
:100BA300E04402F0800790C404E04404F09002881B
:100BB30012066FD2B9D2AF2290C404E4F0FBFAF963
:100BC30090028812066FC2B9C2AF22900247120682
:100BD3001243DE0143E601439E01E4900284F0C226
:100BE3009FD29EC299C2989002471205C590024FA8
:100BF3001206129002801205C512095DD29C53F3AE
:100C03003F22E4FFFEEF24A0FD74022FF58274015E
:100C13003EF583EDF00FBF00010EEF64084E70E563
:100C23007BFF7A0D79A11200A97D01E4FF120A402E
:100C33000208344402800000000044027C000000EB
:100C43000043028800000041028400430285000043
:100C53000042024300004202450000410000000040
:100C6300120038900243E475F001120411FC74027F
:100C730025F0F58274023CF583EFF0900242740193
:100C8300F02274FFFDFC8F9920990AED1DAE0470CC
:100C9300011C4E70F3C29922EF6401700AD2AFD2E5
:100CA300AC90028502066FC2AC22120CBC9000010C
:100CB300EFF09000007401F02290C405E030E0F9F9
:100CC30090C407E0FF227F007E247DF47C000207AE
:100CD30006120CC9120003120CEF80FE90C402E04E
:100CE30054FBF02290C402E04404F022020C0553AA
:100CF3005049B2E2CAD4B3C9B9A6A3A10A0D00539D
:100D03005049B2E2CAD4CAA7B0DCA3A10A0D00536A
:100D130050492066756C6C206475706C657820741E
:100D230072616E6665722074657374207374617288
:100D3300742121200D0A00535049204D61737465BD
:100D4300722052584E452069727120746573742065
:100D530073746172742121200D0A00737069206D10
:100D63006173746572207265636569766520646179
:100D730074613A0D0A005350492068616C6620641F
:100D830075706C6578207472616E66657220746527
:100D930073742073746172742121200D0A005350FF
:100DA30049204D6173746572207465737420737484
:100DB3006172742121200D0A00252E3262782000F1
:090DC3000A00252E386C7820008E
:00000001FF
