:020000040800F2
:1000000030030020D900000839100008B10F0008A3
:1000100000000000000000000000000000000000E0
:10002000000000000000000000000000991100081E
:1000300000000000000000004B100008051300083D
:10004000EB000008EB00000800000000EB000008D7
:10005000EB000008EB000008EB0000089F0300081D
:100060000000000000000000000000000000000090
:10007000B30200085D130008EB0000080000000058
:10008000651300080000000000000000EB000008FD
:10009000000000000000000000000000EB0000086D
:1000A00000000000EB00000800000000EB0000086A
:1000B000EB0000080000000000000000000000004D
:1000C0000448854600F07EF80048004733170008D2
:1000D000C046C0463003002004488047044800471B
:1000E000FEE7FEE7FEE7FEE7FEE7FEE71D1300087A
:1000F000C100000830B50B46014600202022012433
:1001000009E00D46D5409D4205D31D469540491B4B
:100110002546954040191546521E002DF1DC30BD94
:10012000F0B51FB40646002082B005464024019178
:1001300000901BE0019922460F46304600F030F84F
:10014000049A059B801A994110D3104619462246FD
:1001500000F016F8361A8F4101972246012000213F
:10016000009F00F00DF838184D4100902046641EA5
:100170000028DFDC019B00982946324607B0F0BD1D
:1001800010B5202A04DB0146203A9140002010BD22
:10019000914020239C1A0346E3401943904010BD30
:1001A00010B5202A04DB0846203AD040002110BDBB
:1001B0000B46D340D0402024A21A91400843194650
:1001C00010BD0000064C0125064E05E0E36807CC93
:1001D0002B430C3C98471034B442F7D3FFF774FF1D
:1001E0004017000860170008002904D0826E012320
:1001F0001A43826603E0826E52085200826670479C
:10020000426E120912010B071B0F1A434266704718
:1002100070B5072911DD0B46083BD9B2036E8D007E
:100220000F24AC40A3438D001446AC408E000F2534
:10023000B5402C40234303660DE0C36D8D000F24B1
:10024000AC40A3438D001446AC408E000F25B54052
:100250002C402343C36570BD012902D101224261B4
:1002600003E0022901D1022242617047002904D033
:10027000426801231A43426003E042685208520078
:100280004260704710B504460548844207D10121F9
:10029000401500F0FBFE0021601500F0F7FE10BDD8
:1002A0000024014002468B0010461830C05880B22E
:1002B000704710B500F0DCF910BD10B5002A0DD064
:1002C000012904D1836801242343836012E00229B9
:1002D00010D183680224234383600BE0012903D1FA
:1002E00083688B43836005E0022903D1836802247D
:1002F000A343836010BD000010B54268174B1A403D
:10030000164CE4434B6823401A434260426807237B
:10031000DB019A430724E4010B6823401A4342603F
:1003200082680123DB029A430124E4020B69234023
:100330001A438260826803235B029A4303246402A7
:100340008B6823401A4382608268054B1A40044C34
:10035000E443CB6823401A43826010BD8FBFFFFF88
:100360008FFFF9FF42680F239B029A430B401A4309
:1003700042607047002905D08268FF2301331A4389
:10038000826004E08268FF2301339A4382607047F1
:1003900000210160416081600161C160704710B55A
:1003A000802000F00FF8002804D0802000F004F82E
:1003B00000F038FA10BD00000149486170470000A4
:1003C000000401400146074840690840002806D063
:1003D000044800680840002801D001207047002030
:1003E000FCE70000000401408179002948D02D4934
:1003F0000968026891432B4A1160114649680268F6
:100400009143284A51600179002906D111460968B3
:1004100002681143234A116005E0224949680268D5
:100420001143204A51601F498968026891431D4A5F
:1004300091601146C968026891431A4AD1604179B6
:1004400010290CD11146896802681143154A916040
:100450001146C96802681143124AD16020E041790F
:10046000082906D10F498968026811430D4A916035
:1004700016E00C49C968026811430A4AD1600FE0CE
:100480000179002906D10749096802689143054AA4
:10049000116005E00349496802689143014A5160CF
:1004A00070470000000401400021016001710C212F
:1004B0004171002181717047F8B50246CD782F0750
:1004C0003F0FCD7810263540002D01D08D782F4379
:1004D0001446002011E085062B0E0D88012686406B
:1004E0003540002D07D025680F269E40B5433E4677
:1004F0009E4035432560451CE8B20828EBDB141DFF
:100500000D882D120095002011E085062B0E012587
:100510008540009E3540002D07D025680F269E405F
:10052000B5433E469E4035432560451CE8B2082849
:10053000EBDBCD78282D04D155690E883543556104
:1005400006E0CD78482D03D115690E883543156135
:10055000F8BD70B54D07EB0E082902DA05462035C7
:1005600001E0054624352C460F269E402568B543FC
:1005700016469E403543256070BD4161704700219D
:10058000C9430180032181700421C1707047002A92
:1005900001D0016100E041617047000000B587B003
:1005A0000121480200F062FD3048FFF76BFE02A80F
:1005B000FFF7EEFE00200290702003900120400221
:1005C000049000200590069002A92848FFF794FEA9
:1005D000072189022548FFF7C5FE0022114623485E
:1005E000FFF716FE012211462048FFF711FE0222F6
:1005F00011461E48FFF70CFE032211461B48FFF769
:1006000007FE052204211948FFF702FE04211748BE
:10061000FFF7F6FD01211548FFF7E6FD012113481C
:10062000FFF71AFE012211461048FFF746FE0C2084
:1006300001F018F802210C2001F030F80C2001F034
:100640001DF801210948FFF711FE0020019003E089
:1006500000BF0198401C019001984028F8D3012167
:100660000248FFF787FE07B000BD000000240140EC
:1006700010B51A484069C007C00F00282CD00121CE
:100680001648FFF7E9FD00211448FFF70BFE144957
:10069000088001211148FFF705FE11494880022119
:1006A0000E48FFF7FFFD0E49888003210B48FFF736
:1006B000F9FD0B49C88005210848FFF7F3FD0849FB
:1006C000088108480068401C0649086000F00CF8E2
:1006D00001210248FFF74EFE10BD0000002401403A
:1006E0005C000020040000207047000010B500F0FE
:1006F00069F900F009FB00F0E5F900F03DF9FFF7BA
:100700004DFF0020174908701749087017490880E5
:100710001749087017490870174908601749087089
:100720001749087017490870174908701749086079
:100730001749087017490880174908601749086069
:100740001749087017490860174908801749088039
:100750001749088000F032F800F024FA00F0E4FBBA
:1007600010BD0000340000203500002036000020BD
:100770003900002038000020280000202C00002034
:100780002D0000202E0000202F000020300000202F
:100790000C0000200E00002010000020140000209B
:1007A000180000201C000020200000202200002053
:1007B0002400002010B500F0B3FB10BDF8B51748B9
:1007C0000078002801D1012000E0002004462546E1
:1007D000002C01D1012000E00020074601232A4619
:1007E00059020920C00600F0C9FB01233A4619024C
:1007F0000920C00600F0C2FB09480078012802D198
:100800000648067800E02646002332460121890288
:100810000920C00600F0B2FBF8BD00000C0000206B
:100820003A00002070B544480068401C4249086006
:100830004248007800281AD1012040490870002061
:100840003F4908803F4908703F4908703F49087098
:100850003F4908803F4908803F4908803F49088058
:100860003F49087000F0AAFA00F084F970BD3D48D5
:1008700000F0D2FD85B232480088854200DCF5E701
:100880002F480088281A84B2552C19D22F48007896
:10089000FF2804D22D480078401C2C4908703248AB
:1008A0000068401C304908602A4804802A480480B7
:1008B0002748048000202949088029490870D5E785
:1008C0001F48058023480480234804802048048072
:1008D000002022490880204600F0C8F8064620483B
:1008E000067018480078FF2804D216480078401C8B
:1008F00014490870002E10D000F03CF91B48006825
:10090000401C1A49086010480078FF2811D20E4890
:100910000078401C0C4908700BE015480068401C2A
:1009200013490860732C04D912480068401C11490F
:10093000086000BF9AE7000008000020380000208F
:10094000360000203400002035000020390000204F
:100950000E000020200000202200002024000020A3
:10096000180000200004004030000020100000208B
:10097000140000201C0000201CB50121880700F095
:1009800075FB0721002000F009FC8020FFF714FD13
:100990006846FFF789FD80200090002168460171BC
:1009A0000C21417101218171FFF71EFD072000F02C
:1009B00059FE0021072000F071FE072000F05EFEC6
:1009C0001CBD000008B501210320400400F03EFBDF
:1009D0000F2109020920C006FFF7CFFD6846FFF787
:1009E000CEFD0F210902684601800321817010218C
:1009F000C17069460920C006FFF75EFD6846FFF733
:100A0000BEFD802168460180032181700421C170F0
:100A100069460920C006FFF74FFD6846FFF7AFFDA6
:100A2000104968460180012181700021C17069462A
:100A30000920C006FFF740FD6846FFF7A0FD03212F
:100A400068460180012181700021C1706946064815
:100A5000FFF732FD0121C9020920C006FFF78DFD15
:100A600008BD00000C1000000004004810B501464D
:100A7000552373240A469A4203D3A24201D8012087
:100A800010BD0020FCE7000010B501210B4800F06C
:100A9000C6FC002811D00121084800F073FC002199
:100AA000064800F072FC00F0A1F90020044908801B
:100AB00000F004FA002000F01FFA10BD002C0140E5
:100AC0002400002030B585B00121042000F0CEFACA
:100AD000264800F075FC254800F0AEFC0546244988
:100AE0002846FFF707FB0446002C07D0204928467C
:100AF000FFF700FB002901D100BF01E000BFFEE7C6
:100B0000684600F08DFD601E81B2684601800020BD
:100B10000190FF2090300290002003900021684651
:100B200001746946114800F04DFD08210F4800F09E
:100B300040FD01210D4800F025FC012211460B4823
:100B400000F0D4FC0D2000F08DFD01210D2000F0FF
:100B5000A5FD0D2000F092FD0021044800F030FDBD
:100B60000021024800F011FC05B030BD002C01400E
:100B700040420F0010B50021094800F006FC012199
:100B8000074800F0FFFB0D2000F06CFD0021044839
:100B900000F016FD0121024800F0F7FB10BD000037
:100BA000002C0140F0B595B054490020029103900B
:100BB000534A002303990298FFF7B2FA00214A40F2
:100BC0004B401A4301D000BFFEE74D4A0023039972
:100BD0000298FFF7A5FA0446002C03D00120000478
:100BE000844201D900BFFEE72046052100F021FD27
:100BF00005460E463146FF23F5330022E8185141E1
:100C00005A00002301910090FFF78AFA049004989B
:100C1000A04200D904940121082000F027FA3948A5
:100C200000F0CEFB374800F007FC059034490598EA
:100C3000FFF760FA0746002F09D031490598FFF702
:100C400059FA002903D101200004874201D900BFCD
:100C5000FEE70121C9020920C006FFF78EFC03222E
:100C60000B210920C006FFF774FC13A8FFF787FCCF
:100C70000121C90210A88181032181731821C17348
:100C800013A90920C006FFF717FC0EA800F0C8FC46
:100C9000781E81B26846018700200F90601E109078
:100CA00000201190002110A801720EA9154800F033
:100CB00089FC06A800F073FC06200690012007902E
:100CC0000498099000200A9006A90E4800F018FC2C
:100CD00008210C4800F05CFC01210A4800F046FBAA
:100CE0000021084800F06CFC0121064800F059FB87
:100CF0000121044800F049FB15B0F0BD00E1F50505
:100D000040420F000040014030B585B00121022073
:100D100000F0ACF9264800F053FB254800F08CFBAE
:100D2000054624492846FFF7E5F90446002C07D07C
:100D300020492846FFF7DEF9002901D100BF01E074
:100D400000BFFEE7684600F06BFC601E81B268469B
:100D5000018000200190184802900020039000219B
:100D6000684601746946124800F02CFC08211048BE
:100D700000F01FFC01210E4800F004FB0122114687
:100D80000B4800F0B3FB102000F06CFC0121102098
:100D900000F084FC102000F071FC0021044800F0F9
:100DA0000FFC0021024800F0F0FA05B030BD000051
:100DB0000004004040420F001904000010B500215B
:100DC000094800F0E2FA0121074800F0DBFA1020A0
:100DD00000F048FC0021044800F0F2FB0121024829
:100DE00000F0D3FA10BD00000004004010B500214F
:100DF000074800F0CAFA0121054800F0C3FA1020A4
:100E000000F030FC0021024800F0DAFB10BD0000C9
:100E10000004004010B501211C4800F000FB002830
:100E200032D00121194800F0ADFA0021174800F036
:100E3000ACFA174817490860174800781749087036
:100E40001748007817490870174800781749087044
:100E500013480078082805D301201549087000F0D0
:100E60004BF802E000201249087000201149087078
:100E70001149088008490870094908700A49087032
:100E80000021024800F09CFB10BD0000000400405F
:100E90001A04000028000020340000202C0000204C
:100EA000350000202D000020390000202F000020F8
:100EB0002E000020380000203600002000200749C6
:100EC00008700749087007490870074908800749F2
:100ED00008700749088007490870704738000020EB
:100EE00034000020350000203600002039000020AA
:100EF0000E0000201800002070B50446002C01D020
:100F0000012000E00020054604480078A84203D0F4
:100F100002480570FFF752FC70BD00000C00002075
:100F200010B500F067F810BD10B5012000F01AF9F7
:100F300000BF612000F0FEF80028FAD00D4800F054
:100F400075F8002000F04AF800F077F8094800F042
:100F50006DF8032000F056F800F016F9054800F08F
:100F600065F8054800F058F800F044F800F022F861
:100F700010BD000055550000C3090000F8B5064635
:100F80000F4614461D46002D06D0002C01D001202E
:100F900000E00020009005E0002C01D1012000E0DD
:100FA0000020009039463046009AFFF7F0FAF8BD6D
:100FB00000BFFEE70148024908607047CCCC000042
:100FC0000030004001460448C0680840002801D0B5
:100FD000012070470020FCE7003000400449096907
:100FE00049084900C207D20F1143014A11617047F5
:100FF000003000400148024908607047AAAA00007A
:101000000030004000B502460248426000F015F88A
:1010100000BD00000030004000B50246024882607A
:1010200000F0B2F800BD0000003000400149086047
:101030007047000000300040704700B500BF01203D
:10104000FFF7C0FF0128FAD000BD7047002905D086
:10105000054A52690243044B5A6104E0024A52694C
:101060008243014B5A61704700100240002905D0AD
:10107000054AD2690243044BDA6104E0024AD269AC
:101080008243014BDA61704700100240002905D00D
:10109000054A12690243044B1A6104E0024A1269CC
:1010A0008243014B1A6170470010024010B50021C5
:1010B00000221A4B5B680C2423401946002906D0F5
:1010C000042907D0082908D00C290CD108E0144BBA
:1010D00003600BE0124B036008E0124B036005E075
:1010E000114B036002E00E4B036000BF00BF0B4BCF
:1010F0005B68F024234019090C4B5A5C0368D34009
:101100004360064B5B68072424022340190A084BFE
:101110005A5C4368D340836010BD00000010024059
:1011200000127A00006CDC02409C00003E000020AF
:101130004E0000200146002200234A11012A02D15C
:101140000748036801E00648436ACA06D20E012038
:1011500090401840002801D0012070470020FCE793
:1011600000100240002806D00649496A01221143B6
:10117000044A516205E00349496A49084900014AA5
:10118000516270470010024000B500BF0220FFF717
:1011900019FF0128FAD000BD7047000030B50022C9
:1011A0008B071C0F0F23A3401A468B10002B0ED168
:1011B000224B9B689343214CA36023469B688C077A
:1011C000250F0446AC4023431C4CA36034E08B1035
:1011D000012B0ED1194BDB689343184CE360234677
:1011E000DB688C07250F0446AC402343134CE360B7
:1011F00022E08B10022B0ED1104B1B6993430F4C36
:10120000236123461B698C07250F0446AC4023430A
:101210000A4C236110E08B10032B0DD1074B5B6947
:101220009343064C636123465B698C07250F044694
:10123000AC402343014C636130BD0000000001401D
:101240001CB500200190012000900024284800686F
:10125000012108432649086000BF25480068022193
:1012600008400028F9D02348234908602348006833
:10127000C008C000214908600846006810210843E2
:101280001E4908601C490968481E1D49FEF732FFC7
:101290000446012C00D9012418480068204317494E
:1012A000086013484468F02120468843044600BF84
:1012B0000F484460446807210902204688430446D9
:1012C00000BF0B48446040688008800008494860BF
:1012D00008464068022108430549486000E000BF15
:1012E000034840680C2108400828F8D11CBD0000C4
:1012F00000100240006CDC02580000200020024078
:1013000000366E0104480068002804D002480068D6
:10131000401E0149086070470000002010B50D48CC
:101320000068012108430B490860084640680A49E3
:1013300008400849486008460068012109048843BC
:10134000044908600020C043886000208860FFF7DF
:1013500077FF10BD001002400CF8FFF810B5FFF742
:1013600093FB10BD10B5FFF755FD10BD002904D04B
:10137000026880231A43026003E0026880239A43D4
:1013800002607047CA4302617047002904D00268B6
:1013900001231A43026003E002685208520002600F
:1013A0007047002905D0426C0123DB031A434264D5
:1013B00004E0426C0123DB039A434264704700005F
:1013C00010B504461148844208D101210420FFF7DA
:1013D0005DFE00210420FFF759FE16E00C48844210
:1013E00008D101210220FFF751FE00210220FFF762
:1013F0004DFE0AE00748844207D101210820FFF78B
:1014000045FE00210820FFF741FE10BD002C0140E1
:1014100000040040004001400146486A704702460F
:1014200010690840002805D0D0680840002801D085
:10143000012070470020FCE7F0B58BB00646002481
:1014400000200A900025002720A103C909910890D7
:1014500020A001460EC9C06806930592049107902A
:1014600001A8FFF723FE039C1E48406807210902DC
:101470000840050A1C4886421DD11A484068F021E0
:101480000840070904A8C05D002808D108A8405DED
:10149000002801D1204600E060000A9013E008A86F
:1014A000405D002801D1600000E0A00004A9C95DF2
:1014B000C8400A9007E008A8405D002801D12046F6
:1014C00000E060000A900A980BB0F0BD0000000038
:1014D00002040810000000000000000001020304E4
:1014E0000607080900100240002C0140002A03D022
:1014F000C3680B43C36002E0C3688B43C36070479B
:1015000010B5826970239A430B681B017024234035
:101510001A438261026A520852000B79DB07DB0F23
:101520001A430262026A02239A430B695B00022497
:1015300023401A430262CA684263144A904223D18C
:10154000026A04239A438B689B00042423401A43B5
:101550000262026A08239A434B69DB000824234095
:101560001A430262426883159A438B691B028415F1
:1015700023401A434260426843159A43CB695B0299
:10158000441523401A43426010BD0000002C014066
:10159000826908239A430B401A43826170470021F5
:1015A000016041608160C160016141618161C1612F
:1015B0007047026808239A430B401A430260704741
:1015C0004162704710B5026803231B029A4303244B
:1015D0002402CB6823401A4302600F4A904202D093
:1015E0000E4A904207D1026870239A4370244B68D8
:1015F00023401A430260084A904205D1026B120A46
:1016000012020B7C1A4302638A68C2620A888262F1
:101610000122426110BD0000002C01400004004086
:101620000021C943816000210180C16041600174D3
:101630007047F8B582B28BB2040C0D0C10465843BB
:10164000002126465E43370C360480197941164640
:101650006E43370C36048019794126466E4389194A
:10166000F8BD0000002805DBC206D20E0121914022
:10167000014A11607047000080E200E0002809DBA9
:1016800000BF00BFC206D20E01219140024A116084
:1016900000BF00BF7047000000E100E010B5002867
:1016A00019DB1A4A03231B02D21883089B00D25865
:1016B0008307DC0EFF23A3409A438B071B0E84078E
:1016C000E40EA3401A43114B032424021B1984087F
:1016D000A4001A5118E00E4A03071B0F083B9B0891
:1016E0009B00D2588307DC0EFF23A3409A438B074D
:1016F0001B0E8407E40EA3401A43054B0407240F76
:10170000083CA408A4001A5110BD000000E100E04C
:101710001CED00E002E008C8121F08C1002AFAD13F
:1017200070477047002001E001C1121F002AFBD161
:101730007047FEF7DBFF01E0FFF73CF8FCE7000035
:1017400060170008000000205C000000141700086B
:10175000BC1700085C000020D40200002417000819
:101760000000000000000000000000000000000079
:101770000000000000000000000000000000000069
:101780000000000000000000000000000000000059
:101790000000000000000000000000000000000049
:1017A0000000000000000102030406070809000011
:0C17B0000000010203040000006CDC02D9
:04000005080000C12E
:00000001FF
