:020000040800F2
:1000000090060020D9000008D90F0008510F000801
:1000100000000000000000000000000000000000E0
:10002000000000000000000000000000391100087E
:100030000000000000000000EB0F000801120008A3
:10004000EB000008EB00000800000000EB000008D7
:10005000EB000008EB000008EB000008FB020008C2
:100060000000000000000000000000000000000090
:100070000F02000859120008EB0000080000000001
:10008000611200080000000000000000EB00000802
:10009000000000000000000000000000EB0000086D
:1000A00000000000EB00000800000000EB0000086A
:1000B000EB0000080000000000000000000000004D
:1000C0000448854600F02CF8004800471B1500083E
:1000D000C046C046900600200448804704480047B8
:1000E000FEE7FEE7FEE7FEE7FEE7FEE7191200087F
:1000F000C100000830B50B46014600202022012433
:1001000009E00D46D5409D4205D31D469540491B4B
:100110002546954040191546521E002DF1DC30BD94
:10012000064C0125064E05E0E36807CC2B430C3C4A
:1001300098471034B442F7D3FFF7C6FF28150008DC
:1001400048150008002904D0826E01231A438266F4
:1001500003E0826E5208520082667047426E1209B6
:1001600012010B071B0F1A434266704770B507292F
:1001700011DD0B46083BD9B2036E8D000F24AC4055
:10018000A3438D001446AC408E000F25B5402C4093
:10019000234303660DE0C36D8D000F24AC40A343E1
:1001A0008D001446AC408E000F25B5402C402343F3
:1001B000C36570BD012902D10122426103E0022919
:1001C00001D1022242617047002904D04268012314
:1001D0001A43426003E0426852085200426070478E
:1001E00010B504460548844207D10121401500F0AE
:1001F0001DFF0021601500F019FF10BD0024014013
:1002000002468B0010461830C05880B2704710B5B7
:1002100000F05AFA10BD10B5002A0DD0012904D102
:10022000836801242343836012E0022910D183688C
:100230000224234383600BE0012903D183688B43AD
:10024000836005E0022903D183680224A34383600D
:1002500010BD000010B54268174B1A40164CE4431D
:100260004B6823401A43426042680723DB019A43EC
:100270000724E4010B6823401A434260826801238B
:10028000DB029A430124E4020B6923401A43826093
:10029000826803235B029A43032464028B68234031
:1002A0001A4382608268054B1A40044CE443CB68D1
:1002B00023401A43826010BD8FBFFFFF8FFFF9FFFD
:1002C00042680F239B029A430B401A4342607047D7
:1002D000002905D08268FF2301331A43826004E0BD
:1002E0008268FF2301339A438260704700210160D6
:1002F000416081600161C160704710B5802000F0ED
:100300000FF8002804D0802000F004F800F078FBFB
:1003100010BD000001494861704700000004014021
:100320000146074840690840002806D00448006894
:100330000840002801D0012070470020FCE70000A1
:1003400000040140F8B50246CD782F073F0FCD7865
:1003500010263540002D01D08D782F431446002003
:1003600011E085062B0E0D88012686403540002DB4
:1003700007D025680F269E40B5433E469E40354334
:100380002560451CE8B20828EBDB141D0D882D12F2
:100390000095002011E085062B0E01258540009E6A
:1003A0003540002D07D025680F269E40B5433E46B8
:1003B0009E4035432560451CE8B20828EBDBCD782C
:1003C000282D04D155690E883543556106E0CD7856
:1003D000482D03D115690E8835431561F8BD41617B
:1003E00070470021C9430180032181700421C1703D
:1003F0007047002A01D0016100E0416170470000B0
:1004000000B587B00121480200F000FE2548FFF743
:10041000E7FE02A8FFF76AFF002002900120800398
:1004200003904011049000200590069002A91D48F9
:10043000FFF710FF00211B48FFF742FF03220021B6
:100440001848FFF793FE00211648FFF787FE0121A9
:100450001448FFF777FE01211248FFF7ABFE012297
:1004600011461048FFF7D7FE0C2000F0EFFF0221E5
:100470000C2001F007F80C2000F0F4FF01210948DE
:10048000FFF7A2FE0020019003E000BF0198401C8E
:10049000019001984028F8D301210248FFF718FF86
:1004A00007B000BD0024014070B56F480068401CD3
:1004B0006D4908606D480078002826D101206B49FD
:1004C000087000206A4908806A4908706A49087003
:1004D0006A4908706A4908606A4908806A49088060
:1004E0006A4908806A4908806A49087000F0E0FBA0
:1004F00000F06CFB00206849088001230022674857
:100500000188104600F04CFC70BD654800F0E8FE24
:1005100085B26148058056480088854200DCF3E7D3
:1005200053480088281A84B2582C20D253480078A7
:10053000FF2804D251480078401C5049087059489F
:100540000068401C574908604F4804804F480480A9
:100550004C48048000204E4908804E490870002312
:1005600002224E480188284600F01AFCCCE7464893
:1005700004804648048043480480002044490880A1
:10058000204600F093FA064642490E70002E01D034
:10059000012000E00320024600234048018828464D
:1005A00000F0FEFB002E4CD0314805803148007829
:1005B000FF2804D22F480078401C2E49087000F014
:1005C00005FB39480068401C374908602A48007814
:1005D000FF2804D228480078401C27490870284882
:1005E0000068001926490860234800780A2838D393
:1005F000084600682D4908601E4800782C4908709C
:100600001D4800782B4908701C4800782A4908705A
:100610001B48006800F057FA002805D00120274940
:10062000087000F039FC07E00020244908702448D5
:100630000068401C2249086000F052FB00F00AFCF0
:100640000FE01F480068401C1D490860702C04D949
:100650001C480068401C1B49086000F041FB00F08A
:10066000F9FB00BF50E700003800002068000020C0
:100670006600002064000020650000207600002055
:100680006C0000203E00002050000020520000209E
:1006900054000020480000201E0000201C00002004
:1006A00000040040600000204000002058000020AE
:1006B0005C0000205D0000205F0000205E00002044
:1006C000440000204C00002010B50E484069C007CF
:1006D000C00F002814D001210A48FFF76BFD032149
:1006E0000848FFF78DFD0849C88008480068401C8D
:1006F0000649086000F00CF801210248FFF7E8FD08
:1007000010BD0000002401409800002004000020DB
:1007100070B52D48C4887D26F60075002B480480EE
:100720002B480088201A00B22A49088028480480F3
:1007300029480580294806802948007800281AD1D0
:10074000B44240DC0120264908702649087026483A
:100750000068401C24490860244804800120244982
:10076000088024480088002802D1012021490880FF
:10077000FFF79AFE27E0AC4211DB00201849087011
:10078000184908701C480068401C1B49086018483C
:1007900000881A49088000201549088013E0144891
:1007A00000881749884204D211480088401C10492B
:1007B00008800F4800880F490988884203DD0C48EB
:1007C00000880C49088070BD9800002014000020AB
:1007D0007200002016000020180000201A000020DF
:1007E000700000202E000020240000201C000020AB
:1007F000280000202C000020200000202A000020DB
:10080000FFFF000010B500F0FDF800F0F7F900F070
:1008100085F9FFF7F5FD002031490870314908706E
:100820003149088031490870314908703149086000
:1008300031490870314908803149088031490880C0
:100840007D20C000304908804000304908800020E9
:100850002F4908802F4908802F4908602F490860D8
:100860002F4908802F4908802F4908802F49087098
:100870002F4908702F4908602F4908802F490870B8
:100880002F4908802F4908802F490860401E2F49B2
:10089000088000202E4908802E4908602E490870E3
:1008A0002E4908702E4908702E4908702E4908609C
:1008B0002E4908702E4908802E4908602E4908608C
:1008C0002E4908702E4908602E4908802E4908805C
:1008D0002E49088000F060F800F0F6FA10BD000024
:1008E00064000020650000206600002076000020E3
:1008F000680000206C0000207000002072000020C2
:1009000014000020160000201A000020180000200B
:100910001C0000201E0000202000002024000020D9
:10092000280000202A0000202C0000202E0000209B
:100930002F0000203000002034000020360000206E
:1009400074000020080000200C000020100000208F
:1009500012000020580000205C0000205D000020F4
:100960005E0000205F000020600000203C000020AE
:100970003E000020400000204400002048000020ED
:100980004C000020500000205200002054000020A5
:1009900010B500F095FA10BDF8B51748007800289A
:1009A00001D1012000E0002004462546002C01D1A1
:1009B000012000E00020074601232A4659020920B1
:1009C000C00600F0ABFA01233A4619020920C0061E
:1009D00000F0A4FA09480078012802D106480678F8
:1009E00000E0264600233246012189020920C00684
:1009F00000F094FAF8BD00003C00002077000020D1
:100A00007047000008B501210320400400F0EEFA11
:100A10000F2109020920C006FFF7E1FC6846FFF735
:100A2000E0FC0F210902684601800321817010213A
:100A3000C17069460920C006FFF784FC6846FFF7CD
:100A4000D0FC802168460180032181700421C1709F
:100A500069460920C006FFF775FC6846FFF7C1FC30
:100A6000104968460180012181700021C1706946EA
:100A70000920C006FFF766FC6846FFF7B2FC0321B9
:100A800068460180012181700021C17069460648D5
:100A9000FFF758FC0121C9020920C006FFF79FFC9F
:100AA00008BD00000C1000000004004810B501460D
:100AB000582370240A469A4203D3A24201D8012047
:100AC00010BD0020FCE701467322D2008723DB0023
:100AD000914203D3994201D8012070470020FCE7DE
:100AE00010B501210B4800F0FEFB002811D00121B8
:100AF000084800F0B9FB0021064800F0B8FB00F000
:100B0000EFF800200449088000F0A4F9002000F06C
:100B1000C3F910BD002C01405400002030B585B051
:100B20000121042000F072FA264800F0ADFB2548B0
:100B300000F0E6FB054624492846FFF7DBFA0446A9
:100B4000002C07D020492846FFF7D4FA002901D10C
:100B500000BF01E000BFFEE7684600F06DFC601ECC
:100B600081B26846018000200190FF20F43002909D
:100B7000002003900021684601746946114800F086
:100B80002DFC08210F4800F01FFC01210D4800F04A
:100B90006BFB012211460B4800F00CFC0D2000F00D
:100BA00055FC01210D2000F06DFC0D2000F05AFCD9
:100BB0000021044800F00FFC0021024800F057FB20
:100BC00005B030BD002C014040420F0010B500219F
:100BD000094800F04CFB0121074800F045FB0D20BF
:100BE00000F034FC0021044800F0F5FB012102482C
:100BF00000F03DFB10BD0000002C014030B585B079
:100C00000121022000F002FA264800F03DFB2548B1
:100C100000F076FB054624492846FFF76BFA0446A8
:100C2000002C07D020492846FFF764FA002901D19B
:100C300000BF01E000BFFEE7684600F0FDFB601E5C
:100C400081B268460180002001901848029000207F
:100C500003900021684601746946124800F0BEFB0B
:100C60000821104800F0B0FB01210E4800F0FCFA0A
:100C7000012211460B4800F09DFB102000F0E6FB1E
:100C80000121102000F0FEFB102000F0EBFB002102
:100C9000044800F0A0FB0021024800F0E8FA05B08B
:100CA00030BD00000004004040420F003704000047
:100CB00010B50021094800F0DAFA0121074800F0D8
:100CC000D3FA102000F0C2FB0021044800F083FB9F
:100CD0000121024800F0CBFA10BD000000040040E2
:100CE00010B50021074800F0C2FA0121054800F0C4
:100CF000BBFA102000F0AAFB0021024800F06BFBB9
:100D000010BD00000004004010B50121184800F09B
:100D1000EAFA00282AD00121154800F0A5FA00219E
:100D2000134800F0A4FA13480068134908601348F8
:100D30000078134908701348007813490870134865
:100D40000078134908700020124908701249087091
:100D500012490880094908700A4908700B4908704F
:100D6000044908600021024800F035FB10BD000076
:100D7000000400406C0000205800002064000020A7
:100D80005C000020650000205D000020760000204F
:100D90005F0000205E000020680000206600002048
:100DA000FFB504460D46039B002B0BD01F4B1B8841
:100DB0005B1C1E4E338000231D4E33701D4B1C8068
:100DC000002105E01B4B1B88E31A99B2194B1C80CC
:100DD000194B18784300194EF5524300184EF4523F
:100DE0004300184EF152114B1B884600164FBB535F
:100DF000164B1A54104B1B781F2B05D20E4B1B7829
:100E00005B1C0D4E337002E000230B4E3370104B11
:100E10001B685B1C0E4E3360054B1B78FF2B04D206
:100E2000034B1B785B1C024E3370FFBD3400002067
:100E300036000020740000202F000020A2020020B5
:100E4000E20200202203002062030020A20300200F
:100E5000300000200020084908700849087008493F
:100E6000087008490880084908700849086008495E
:100E7000088008490870704768000020640000205E
:100E80006500002066000020760000206C00002035
:100E90003E0000204800002070B50446002C01D020
:100EA000012000E00020054604480078A84203D055
:100EB00002480570FFF770FD70BD00003C00002087
:100EC00010B500F067F810BD10B5012000F01AF958
:100ED00000BF612000F0FEF80028FAD00D4800F0B5
:100EE00075F8002000F04AF800F077F8094800F0A3
:100EF0006DF8032000F056F800F016F9054800F0F0
:100F000065F8054800F058F800F044F800F022F8C1
:100F100010BD000055550000C3090000F8B5064695
:100F20000F4614461D46002D06D0002C01D001208E
:100F300000E00020009005E0002C01D1012000E03D
:100F40000020009039463046009AFFF752FAF8BD6B
:100F500000BFFEE70148024908607047CCCC0000A2
:100F60000030004001460448C0680840002801D015
:100F7000012070470020FCE7003000400449096967
:100F800049084900C207D20F1143014A1161704755
:100F9000003000400148024908607047AAAA0000DA
:100FA0000030004000B502460248426000F015F8EB
:100FB00000BD00000030004000B5024602488260DB
:100FC00000F0B2F800BD00000030004001490860A8
:100FD0007047000000300040704700B500BF01209E
:100FE000FFF7C0FF0128FAD000BD7047002905D0E7
:100FF000054A52690243044B5A6104E0024A5269AD
:101000008243014B5A61704700100240002905D00D
:10101000054AD2690243044BDA6104E0024AD2690C
:101020008243014BDA61704700100240002905D06D
:10103000054A12690243044B1A6104E0024A12692C
:101040008243014B1A6170470010024010B5002125
:1010500000221A4B5B680C2423401946002906D055
:10106000042907D0082908D00C290CD108E0144B1A
:1010700003600BE0124B036008E0124B036005E0D5
:10108000114B036002E00E4B036000BF00BF0B4B2F
:101090005B68F024234019090C4B5A5C0368D34069
:1010A0004360064B5B68072424022340190A084B5F
:1010B0005A5C4368D340836010BD000000100240BA
:1010C00000127A00006CDC02409C00007A000020D4
:1010D0008A0000200146002200234A11012A02D181
:1010E0000748036801E00648436ACA06D20E012099
:1010F00090401840002801D0012070470020FCE7F4
:1011000000100240002806D00649496A0122114316
:10111000044A516205E00349496A49084900014A05
:10112000516270470010024000B500BF0220FFF777
:1011300019FF0128FAD000BD704700001CB500203F
:1011400001900120009000242848006801210843F4
:101150002649086000BF2548006802210840002891
:10116000F9D023482349086023480068C008C0001C
:101170002149086008460068102108431E4908609C
:101180001C490968481E1D49FEF7B4FF0446012C9E
:1011900000D9012418480068204317490860134803
:1011A0004468F02120468843044600BF0F4844604D
:1011B00044680721090220468843044600BF0B48C3
:1011C00044604068800880000849486008464068DC
:1011D000022108430549486000E000BF0348406819
:1011E0000C2108400828F8D11CBD00000010024066
:1011F000006CDC02940000200020024000366E01EA
:1012000004480068002804D002480068401E0149D4
:10121000086070470000002010B50D4800680121EB
:1012200008430B490860084640680A4908400849D5
:1012300048600846006801210904884304490860A1
:101240000020C043886000208860FFF777FF10BD52
:10125000001002400CF8FFF810B5FFF741FC10BD7C
:1012600010B5FFF751FD10BDCA4302617047002958
:1012700004D0026801231A43026003E002685208A6
:10128000520002607047000010B5044611488442C5
:1012900008D101210420FFF7C9FE00210420FFF737
:1012A000C5FE16E00C48844208D101210220FFF758
:1012B000BDFE00210220FFF7B9FE0AE00748844284
:1012C00007D101210820FFF7B1FE00210820FFF718
:1012D000ADFE10BD002C0140000400400040014064
:1012E0000146486A7047024610690840002805D048
:1012F000D0680840002801D0012070470020FCE79A
:10130000F0B58BB00646002400200A900025002787
:1013100020A103C90991089020A001460EC9C06808
:10132000069305920491079001A8FFF78FFE039C96
:101330001E484068072109020840050A1C488642E9
:101340001DD11A484068F0210840070904A8C05D73
:10135000002808D108A8405D002801D1204600E0FF
:1013600060000A9013E008A8405D002801D16000E9
:1013700000E0A00004A9C95DC8400A9007E008A8E1
:10138000405D002801D1204600E060000A900A98E4
:101390000BB0F0BD000000000204081000000000C7
:1013A00000000000010203040607080900100240C3
:1013B000002C0140002A03D0C3680B43C36002E045
:1013C000C3688B43C3607047026808239A430B408D
:1013D0001A430260704741627047000010B502680E
:1013E00003231B029A4303242402CB6823401A439D
:1013F00002600F4A904202D00E4A904207D1026822
:1014000070239A4370244B6823401A430260084AB1
:10141000904205D1026B120A12020B7C1A4302633E
:101420008A68C2620A8882620122426110BD00009D
:10143000002C0140000400400021C94381600021CC
:101440000180C1604160017470470000002805DB25
:10145000C206D20E01219140014A1160704700007E
:1014600080E200E0002809DB00BF00BFC206D20E08
:1014700001219140024A116000BF00BF7047000087
:1014800000E100E010B5002819DB1A4A03231B0213
:10149000D21883089B00D2588307DC0EFF23A34099
:1014A0009A438B071B0E8407E40EA3401A43114B8B
:1014B000032424021B198408A4001A5118E00E4AC0
:1014C00003071B0F083B9B089B00D2588307DC0EC9
:1014D000FF23A3409A438B071B0E8407E40EA3400F
:1014E0001A43054B0407240F083CA408A4001A5112
:1014F00010BD000000E100E01CED00E002E008C8C3
:10150000121F08C1002AFAD170477047002001E07D
:1015100001C1121F002AFBD17047FFF773F901E0E8
:10152000FFF736FAFCE7000048150008000000202D
:1015300098000000FC140008E01500089800002046
:10154000F80500000C150008000000000000000075
:101550000000000000000000FFFF0000000000008D
:10156000000000000000000000000000000000007B
:10157000000000000000000000000000000000006B
:10158000000000000000000000000000000000005B
:10159000000000000000000000000000000000004B
:1015A000000000000000000000000000000000003B
:1015B000000000000000000000000000000000002B
:1015C0000000000000000000000001020304060704
:1015D000080900000000010203040000006CDC02A6
:04000005080000C12E
:00000001FF
