:10000000020BC47B507A007D097C007FA07E001229
:100010000B2B7BFF7A0079927D02E4FF12088E029F
:020020000DBD14
:10002300020026C0E0C0F0C083C082C0D075D000FB
:10003300C000C001C002C003C004C005C006C007A1
:1000430030980F900091120697E94A60031206FA5E
:10005300C298D007D006D005D004D003D002D00177
:10006300D000D0D0D082D083D0F0D0E0321200A61E
:10007300900041E475F001120459FC740025F0F579
:100083008274003CF583EFF09000407401F0227B12
:10009300FF7A0D79E0020119020A84AB07020D7F92
:0600A3000209DDAF992205
:1000AB00020936E5082448F582E43400F583E005BF
:1000BB000822900045300703900048E475F00112C8
:1000CB0006A00204132000E97F2ED2008018EF5403
:1000DB000F2490D43440D4FF30040BEF24BFB41A58
:1000EB000050032461FFE50960021509050CE50CBE
:1000FB007002050B30070E900045E475F0011206F7
:10010B00A0EF02070002009E7403D2078003E4C233
:10011B0007F5089000451206B7E4F509F50BF50C49
:10012B00E50960077F201200F180F5750AFFC20117
:10013B00C200C202C203C205C206C2081200BDFF42
:10014B00700D3007057F00120102AF0CAE0B22B40D
:10015B00255FC2D5C2041200BDFF24D0B40A0050E3
:10016B001A75F00A780930D50508B6FF0106C6A442
:10017B0026F620D5047002D20380D924CFB41A00FE
:10018B00EF5004C2E5D204020303D20180C6D200B1
:10019B0080C0D20280BCD2D580BAD20580B47F2079
:1001AB001200F12002077401B5090040F11200AEF4
:1001BB00FF1200F102012BD208D20680951200AE7D
:1001CB00FB1200AEFA1200AEF94A4B700679D47AE4
:1001DB00037BFF20022EE509602A7E008E82758349
:1001EB000012042C60060EEE650A70F0C2D5EBC04F
:1001FB00E0EAC0E0E9C0E0EE12034AD0E0F9D0E05B
:10020B00FAD0E0FB120413FF60AAEBC0E0EAC0E0F7
:10021B00E9C0E01200F1D0E02401F9D0E03400FA9B
:10022B00D0E0FBE50A0460DCD50AD980877BFF7A36
:10023B00037946D202809C791080027908C206C2EB
:10024B00088008D2D5790A8004790AC2D5E50A0458
:10025B007002F50AE4FAFDFEFF1200AEFC7B0820EB
:10026B0001131200AEFD7B1030000A1200AEFE121D
:10027B0000AEFF7B20EC3382D592D55013C3E43014
:10028B0000069FFFE49EFEE42001039DFDE49CFC21
:10029B00E4CBF8C201EC700CCFCECDCCE824F8F84F
:1002AB0070F38017C3EF33FFEE33FEED33FDEC330A
:1002BB00FCEB33FB994002FB0FD8E9EB300105F85F
:1002CB00D0E0C448B201C0E00AEC4D4E4F78207B21
:1002DB000070C2EAB50A0040BCC0E012034CD0F07B
:1002EB00D0E0200104C4C0E0C4B201C0F01200DAB7
:1002FB00D0F0D5F0EB02012B12073A01C8530242A2
:10030B005801994C01954202464F024E44024E4908
:10031B0001AE4302545502384602384502384703B2
:10032B00F450019D2D01A12E01C42B01A52301C267
:10033B002003DD2A015D48000001BC3F3F3F0079EF
:10034B000AA2D5200314300509B910020404B90818
:10035B000104A2D52006025001042002689202B5C6
:10036B0009005034C0E07F203003197F30A20272A5
:10037B00067205500F1203A3C202C206C205C208C1
:10038B007F30800F300503E9C0E01200F130050328
:10039B00D0E0F9D0E0B509CC3005177F30B9100C9F
:1003AB001200F17F583004077F788003B9080312DD
:1003BB0000F13002057F2D0200F17F202008F87F2D
:1003CB002B2006F322920280CF286E756C6C2900CD
:1003DB00D2011200AE3001F8C201780930D5010804
:1003EB00F602015D2D504349581200AE2403B405AB
:1003FB00004001E49003EF931200E2743A1200E222
:10040B00D203750904020242BB010689828A83E08A
:10041B00225002E722BBFE02E32289828A83E49305
:10042B0022BB010CE58229F582E5833AF583E022B4
:10043B005006E92582F8E622BBFE06E92582F8E2A2
:10044B0022E58229F582E5833AF583E49322A3F82A
:10045B00E0C5F025F0F0E582158270021583E0C847
:10046B0038F0E822EF2BFFEE3AFEED39FDEC38FCCD
:10047B0022E88FF0A4CC8BF0A42CFCE98EF0A42CFA
:10048B00FC8AF0EDA42CFCEA8EF0A4CDA8F08BF046
:10049B00A42DCC3825F0FDE98FF0A42CCD35F0FC44
:1004AB00EB8EF0A4FEA9F0EB8FF0A4CFC5F02ECD10
:1004BB0039FEE43CFCEAA42DCE35F0FDE43CFC22F5
:1004CB0075F008758200EF2FFFEE33FECD33CDCCE8
:1004DB0033CCC58233C5829BED9AEC99E58298406B
:1004EB000CF582EE9BFEED9AFDEC99FC0FD5F0D648
:1004FB00E4CEFBE4CDFAE4CCF9A88222B800C1B972
:10050B000059BA002DEC8BF084CFCECDFCE5F0CBAF
:10051B00F97818EF2FFFEE33FEED33FDEC33FCEBE8
:10052B0033FB10D703994004EB99FB0FD8E5E4F9A3
:10053B00FA227818EF2FFFEE33FEED33FDEC33FC90
:10054B00C933C910D7059BE99A4007EC9BFCE99A84
:10055B00F90FD8E0E4C9FAE4CCFB2275F010EF2FC9
:10056B00FFEE33FEED33FDCC33CCC833C810D707C9
:10057B009BEC9AE899400AED9BFDEC9AFCE899F804
:10058B000FD5F0DAE4CDFBE4CCFAE4C8F922EF4B5B
:10059B00FFEE4AFEED49FDEC48FC22EB9FF5F0EA3D
:1005AB009E42F0E99D42F0E89C45F022E8600FEC9A
:1005BB00C313FCED13FDEE13FEEF13FFD8F122E88E
:1005CB00600FEFC333FFEE33FEED33FDEC33FCD89E
:1005DB00F122BB010DE58229F582E5833AF5830211
:1005EB00060D5007E92582F8020712BBFE07E92525
:1005FB0082F802071EE58229F582E5833AF583022C
:10060B00072AE0FCA3E0FDA3E0FEA3E0FF22E0F855
:10061B00A3E0F9A3E0FAA3E0FB227401FF3395E01A
:10062B00FEFDFCA3A3A3E0CF2FF0E58215827002A1
:10063B001583E0CE3EF0E582158270021583E0CD86
:10064B003DF0E582158270021583E0CC3CF022EC84
:10065B00F0A3EDF0A3EEF0A3EFF022A8828583F0D8
:10066B00D083D08212067D12067D12067D12067D86
:10067B00E473E493A3C583C5F0C583C8C582C8F0F2
:10068B00A3C583C5F0C583C8C582C822E0FBA3E020
:10069B00FAA3E0F922F8E0FBA3A3E0F925F0F0E5DB
:1006AB0082158270021583E0FA38F022EBF0A3EA90
:1006BB00F0A3E9F022D083D082E4937012740193FB
:1006CB00700DA3A393F8740193F5828883E473747C
:1006DB0002936C70127403936D700C7404936E70B0
:1006EB00067405936F60DDA3A3A3A3A3A380CA8A9B
:1006FB00838982E473BB010689828A83F0225002CC
:10070B00F722BBFE01F322E6FC08E6FD08E6FE0835
:10071B00E6FF22E2FC08E2FD08E2FE08E2FF22E42B
:10072B0093FC740193FD740293FE740393FF22D028
:10073B0083D082F8E4937012740193700DA3A3938A
:10074B00F8740193F5828883E4737402936860EF05
:10075B00A3A3A380DF90004512065A90004912060E
:10076B00660000000043F804E5F85420642070F89C
:10077B009091AAE0FFE4FCFDFE78101205CAC004BC
:10078B00C005C006C007A3E0FFE4FCFDFE7818120D
:10079B0005CAD003D002D001D000120599C004C005
:1007AB0005C006C0079091A9E0FFE4FCFDFE7808A8
:1007BB001205CAD003D002D001D000120599A804AB
:1007CB00A905AA06AB079091A8E0FFE4FCFDFE1279
:1007DB00059990008812065A7FC07E0A7D707C01B5
:1007EB00900088120619D31205A650167F407E6121
:1007FB007D6C7C01900088120619C31205A640027D
:10080B00801274FFFFFEFDFC900088120619C312C4
:10081B0005A6700C90004912066602DC6C00801570
:10082B00E47F02FEFDFC90008812061912047C90F6
:10083B00004912065A90004512060D1206C0086FA9
:10084B0000B71B00086700F42400085F016E360038
:10085B000000086775EE01E47B02800E75EE02E482
:10086B007B03800675EE03E47B04FAF9F8900049EC
:10087B0012060D12050790008C12065A53F8FE5300
:10088B00D9F8229000451206B790C9057407F0EF0E
:10089B006401704FED24FE601C14602E2402703D29
:1008AB0090004512069790006D1206B790C904E0B0
:1008BB004401F080289000451206979000701206B4
:1008CB00B790C904E04402F08013900045120697DC
:1008DB009000731206B790C904E04404F0D2AF4302
:1008EB00B80122ED24FE601B14602C2402703B9097
:1008FB00004512069790006D1206B790C904E044AC
:10090B00FEF0229000451206979000701206B790E9
:10091B00C904E044FDF02290004512069790007345
:10092B001206B790C904E044FBF022C0E0C0F0C04F
:10093B0083C082C0D075D000C000C001C002C0030C
:10094B00C004C005C006C00790C905E030E01C908C
:10095B00C904E030E01590006D120697E94A600378
:10096B001206FA90C9057401F0804C90C905E0306D
:10097B00E11C90C904E030E115900070120697E974
:10098B004A60031206FA90C9057402F0802990C9D7
:10099B0005E030E21C90C904E030E21590007312C0
:1009AB000697E94A60031206FA90C9057404F080B1
:1009BB000690C9057407F0D007D006D005D004D037
:1009CB0003D002D001D000D0D0D082D083D0F0D0D1
:1009DB00E032C0E0C0F0C083C082C0D075D000C090
:1009EB0000C001C002C003C004C005C006C0079010
:1009FB00CA05E030E01C90CA04E030E015900076A8
:100A0B00120697E94A60031206FA90CA057401F0C0
:100A1B00804C90CA05E030E11C90CA04E030E1152F
:100A2B00900079120697E94A60031206FA90CA05FC
:100A3B007402F0802990CA05E030E21C90CA04E0F1
:100A4B0030E21590007C120697E94A60031206FA11
:100A5B0090CA057404F0800690CA057407F0D0079D
:100A6B00D006D005D004D003D002D001D000D0D016
:100A7B00D082D083D0F0D0E032C0E0C0F0C083C0D1
:100A8B0082C0D075D000C000C001C002C003C0043A
:100A9B00C005C006C00790CB05E030E01C90CB042E
:100AAB00E030E01590007F120697E94A60031206CA
:100ABB00FA90CB057401F0804C90CB05E030E11C33
:100ACB0090CB04E030E115900082120697E94A6062
:100ADB00031206FA90CB057402F0802990CB05E047
:100AEB0030E21C90CB04E030E215900085120697A3
:100AFB00E94A60031206FA90CB057404F080069065
:100B0B00CB057407F0D007D006D005D004D003D0A6
:100B1B0002D001D000D0D0D082D083D0F0D0E03240
:100B2B00900045EEF0A3EFF043DF0843E70890C0D9
:100B3B001B7406F090C01D7404F090C01C04F09060
:100B4B00C02004F090C900E04440F0EC90C90DF0D7
:100B5B00ED90C90CF0900046E024FF900045E03486
:100B6B00FFFF90C90FF0900045A3E014FE90C90E53
:100B7B00F090C911EFF090C910EEF0EAFF90C91395
:100B8B00F0AE03EB90C912F090C915EFF090C914B9
:100B9B00EEF090C901E04401F0E04402F090C90688
:100BAB007401F090C905E04401F090C902E04404DF
:100BBB00F090C909E04401F022787FE4F6D8FD7586
:100BCB008121020C0B020DB2E493A3F8E493A34032
:100BDB0003F68001F208DFF48029E493A3F85407AD
:100BEB00240CC8C333C4540F4420C8834004F456A8
:100BFB00800146F6DFE4800B0102040810204080E0
:100C0B00900CC7E47E019360BCA3FF543F30E50911
:100C1B00541FFEE493A360010ECF54C025E060A8DF
:100C2B0040B8E493A3FAE493A3F8E493A3C8C58272
:100C3B00C8CAC583CAF0A3C8C582C8CAC583CADFE0
:100C4B00E9DEE780BE90004912065AE47F10FEFDF4
:100C5B00FC90004D12061912047C90005112065A9A
:100C6B00E47B02FAF9F890005112060D1205079079
:100C7B00004912061912046F900051120619120541
:100C8B000790005112065A900051120619C3E49BAB
:100C9B00FF74049AFEE499FDE498FC90005112064F
:100CAB005A90005112060D78081205B7AB07900049
:100CBB005112060DEB5403F5BA8FAA2244008C0097
:100CCB000000004400880000000041009000430039
:100CDB009100000049006D000000000000000000C2
:100CEB0049007600000000000000000049007F0072
:100CFB0000000000000000004200410000420043E1
:100D0B0000000090004512065A43DE0143E6014302
:100D1B009E01E4900090F0C29FD29EC299C298901F
:100D2B00004512060D90004D12065A90008C1206CB
:100D3B000D120C50D29C53F33F227BFF7A0E790B92
:100D4B0090008C12060D90004812065A1201197B66
:100D5B00FF7A0E7921120119020DC5E4900040F0C3
:100D6B00FF7EC27D01FC120D0E7BFF7A0079707F36
:100D7B0001020D9574FFFDFC8F9920990AED1DAEB4
:100D8B000470011C4E70F3C29922EF6401700AD2F9
:100D9B00AFD2AC9000910206B7C2AC227F007E248A
:100DAB007DF47C00020760120DA7120D66120D4533
:100DBB0080FE90C900E04401F022020003677469D1
:100DCB006D65723020757064617465206972712174
:100DDB0021210D0A006774696D65723020636369A8
:100DEB0065206972712121210D0A006774696D6597
:100DFB00723020626B65206972712121210D0A000E
:100E0B0053797374656D2072756E20617420256C37
:100E1B0064487A0A0D006774696D657230207465D9
:0B0E2B0073742073746172740D0A0070
:00000001FF
