:100000000207C884550000000044005D00000000A5
:10001000815900835A0000008241000082430000A1
:0100200000DF
:100023000208C4E5082448F8E205082278453007A9
:10003300027848E475F0011205E40203812000EB25
:100043007F2ED2008018EF540F2490D43440D4FF75
:1000530030040BEF24BFB41A0050032461FFE509F9
:1000630060021509050CE50C7002050B30070D78CD
:1000730045E475F0011205E4EF02063D0209EC7454
:1000830003D2078003E4C207F50878451205F4E4B8
:10009300F509F50BF50CE50960077F201200618077
:1000A300F5750AFFC201C200C202C203C205C2063D
:1000B300C20812002FFF700D3007057F0012007277
:1000C300AF0CAE0B22B4255FC2D5C20412002FFFC2
:1000D30024D0B40A00501A75F00A780930D50508FF
:1000E300B6FF0106C6A426F620D5047002D203800B
:1000F300D924CFB41A00EF5004C2E5D2040202712E
:10010300D20180C6D20080C0D20280BCD2D580BAD0
:10011300D20580B47F201200612002077401B50963
:100123000040F1120026FF120061020099D208D2AA
:10013300068095120026FB120026FA120026F94AC1
:100143004B700679427A037BFF20022EE509602A71
:100153007E008E8275830012039A60060EEE650A96
:1001630070F0C2D5EBC0E0EAC0E0E9C0E0EE1202F5
:10017300B8D0E0F9D0E0FAD0E0FB120381FF60AA27
:10018300EBC0E0EAC0E0E9C0E0120061D0E0240186
:10019300F9D0E03400FAD0E0FBE50A0460DCD50ACC
:1001A300D980877BFF7A0279B4D202809C79108050
:1001B300027908C206C2088008D2D5790A80047978
:1001C3000AC2D5E50A047002F50AE4FAFDFEFF123D
:1001D3000026FC7B08200113120026FD7B10300053
:1001E3000A120026FE120026FF7B20EC3382D592F2
:1001F300D55013C3E43000069FFFE49EFEE42001C4
:10020300039DFDE49CFCE4CBF8C201EC700CCFCE63
:10021300CDCCE824F8F870F38017C3EF33FFEE3347
:10022300FEED33FDEC33FCEB33FB994002FB0FD8BF
:10023300E9EB300105F8D0E0C448B201C0E00AECB4
:100243004D4E4F78207B0070C2EAB50A0040BCC017
:10025300E01202BAD0F0D0E0200104C4C0E0C4B27E
:1002630001C0F012004AD0F0D5F0EB02009912065B
:100273007701365301B05801074C01034201B44FD3
:1002830001BC4401BC49011C4301C25501A64601FE
:10029300A64501A647036250010B2D010F2E013223
:1002A3002B011323013020034B2A00CB480000010C
:1002B3002A3F3F3F00790AA2D5200314300509B92C
:1002C30010020404B9080104A2D520060250010457
:1002D3002002689202B509005034C0E07F20300349
:1002E300197F30A20272067205500F120311C20267
:1002F300C206C205C2087F30800F300503E9C0E0A3
:10030300120061300503D0E0F9D0E0B509CC300527
:10031300177F30B9100C1200617F583004077F78C3
:100323008003B908031200613002057F2D020061CA
:100333007F202008F87F2B2006F322920280CF280B
:100343006E756C6C2900D2011200263001F8C201CF
:10035300780930D50108F60200CB2D5043495812D5
:1003630000262403B405004001E490035D931200CA
:1003730052743A120052D2037509040201B0BB0150
:100383000689828A83E0225002E722BBFE02E3222F
:1003930089828A83E49322BB010CE58229F582E5F5
:1003A300833AF583E0225006E92582F8E622BBFE74
:1003B30006E92582F8E222E58229F582E5833AF50A
:1003C30083E49322EF2BFFEE3AFEED39FDEC38FC8C
:1003D30022E88FF0A4CC8BF0A42CFCE98EF0A42CA3
:1003E300FC8AF0EDA42CFCEA8EF0A4CDA8F08BF0EF
:1003F300A42DCC3825F0FDE98FF0A42CCD35F0FCED
:10040300EB8EF0A4FEA9F0EB8FF0A4CFC5F02ECDB8
:1004130039FEE43CFCEAA42DCE35F0FDE43CFC229D
:1004230075F008758200EF2FFFEE33FECD33CDCC90
:1004330033CCC58233C5829BED9AEC99E582984013
:100443000CF582EE9BFEED9AFDEC99FC0FD5F0D6F0
:10045300E4CEFBE4CDFAE4CCF9A88222B800C1B91A
:100463000059BA002DEC8BF084CFCECDFCE5F0CB58
:10047300F97818EF2FFFEE33FEED33FDEC33FCEB91
:1004830033FB10D703994004EB99FB0FD8E5E4F94C
:10049300FA227818EF2FFFEE33FEED33FDEC33FC39
:1004A300C933C910D7059BE99A4007EC9BFCE99A2D
:1004B300F90FD8E0E4C9FAE4CCFB2275F010EF2F72
:1004C300FFEE33FEED33FDCC33CCC833C810D70772
:1004D3009BEC9AE899400AED9BFDEC9AFCE899F8AD
:1004E3000FD5F0DAE4CDFBE4CCFAE4C8F922EF4B04
:1004F300FFEE4AFEED49FDEC48FC22EB9FF5F0EAE6
:100503009E42F0E99D42F0E89C45F022E8600FEC42
:10051300C313FCED13FDEE13FEEF13FFD8F122E836
:10052300600FEFC333FFEE33FEED33FDEC33FCD846
:10053300F122BB010DE58229F582E5833AF58302B9
:10054300065B5007E92582F802064FBBFE07E92543
:1005530082F8020565E58229F582E5833AF583028F
:100563000667E2FC08E2FD08E2FE08E2FF22E0F88B
:10057300A3E0F9A3E0FAA3E0FB22E2FB08E2F90817
:10058300E2FA08E2CBF8227401FF3395E0FEFDFCAA
:10059300080808E2CF2FF218E2CE3EF218E2CD3D72
:1005A300F218E2CC3CF222ECF0A3EDF0A3EEF0A3C0
:1005B300EFF022ECF208EDF208EEF208EFF222D0AF
:1005C30083D082E493F208740193F208740293F2E5
:1005D30008740393F2740473E2FB08E2FA08E2F985
:1005E30022FAE2FB0808E2F925F0F218E2CA3AF22D
:1005F30022EBF208EAF208E9F222D083D082E493F4
:100603007012740193700DA3A393F8740193F58290
:100613008883E4737402936C70127403936D700C8B
:100623007404936E70067405936F60DDA3A3A3A394
:10063300A3A380CA8A838982E473BB010689828A61
:1006430083F0225002F722BBFE01F322E6FC08E608
:10065300FD08E6FE08E6FF22E0FCA3E0FDA3E0FEC2
:10066300A3E0FF22E493FC740193FD740293FE74F0
:100673000393FF22D083D082F8E493701274019322
:10068300700DA3A393F8740193F5828883E47374C4
:1006930002936860EFA3A3A380DF78451205B678C1
:1006A300491205C20000000043F804E5F854206431
:1006B3002070F89091AAE0FFE4FCFDFE781012058B
:1006C30022C004C005C006C007A3E0FFE4FCFDFE92
:1006D3007818120522D003D002D001D0001204F101
:1006E300C004C005C006C0079091A9E0FFE4FCFD6B
:1006F300FE7808120522D003D002D001D0001204E4
:10070300F1A804A905AA06AB079091A8E0FFE4FCB1
:10071300FDFE1204F190005D1205AA7FC07E0A7DE2
:10072300707C0190005D120571D31204FE50167F98
:10073300407E617D6C7C0190005D120571C31204E3
:10074300FE4002801274FFFFFEFDFC90005D120567
:1007530071C31204FE700B78491205C202DC6C00EF
:100763008014E47F02FEFDFC90005D12057112030C
:10077300D478491205B678451205651205FD07A719
:1007830000B71B00079F00F424000797016E360093
:100793000000079F75EE01E47B02800E75EE02E414
:1007A3007B03800675EE03E47B04FAF9F8C0007856
:1007B30049120565D00012045F78551205B653F847
:1007C300FE53D9F822787FE4F6D8FD75812102081B
:1007D3000F0209E1E493A3F8E493A34003F6800135
:1007E300F208DFF48029E493A3F85407240CC8C368
:1007F30033C4540F4420C8834004F456800146F6A2
:10080300DFE4800B0102040810204080900003E421
:100813007E019360BCA3FF543F30E509541FFEE4FF
:1008230093A360010ECF54C025E060A840B8E493C1
:10083300A3FAE493A3F8E493A3C8C582C8CAC58303
:10084300CAF0A3C8C582C8CAC583CADFE9DEE78088
:10085300BE78491205B6E47F10FEFDFC784D120503
:100863007D1203D478511205B6E47B02FAF9F8C07D
:10087300007851120565D00012045F784912057D96
:100883001203C7785112057D12045F78511205B621
:10089300785112057DC3E49BFF74049AFEE499FD2D
:1008A300E498FC78511205B6785112056578081260
:1008B300050FAB077851120565EB5403F5BA8FAA00
:1008C30022C0E0C0F0C083C082C0D075D000C00099
:1008D300C001C002C003C004C005C006C0073098F1
:1008E3000E785A1205DBE94A6003120637C298D024
:1008F30007D006D005D004D003D002D001D000D059
:10090300D0D082D083D0F0D0E03278451205B64300
:10091300DE0143E601439E01E47859F2C29FD29E71
:10092300C299C2987845120565784D1205B6785577
:10093300120565120854D29C53F33F227BFF7A09B8
:1009430079F8785512056578481205B61200887B48
:10095300FF7A0A790E1200881209F1E4FD7F011271
:1009630009B380FE1209F5784108E2FD2401F2186B
:10097300E23400F2AE0574002DF8EFF27840740112
:10098300F222E47840F2FF7EC27D01FC12090D7B66
:10099300FF7A0979677F010209C574FFFDFC8F990E
:1009A30020990AED1DAE0470011C4E70F3C299220A
:1009B300EF70055386FB80034386045386FCED42A8
:1009C3008622EF64017009D2AFD2AC785A0205F4E3
:1009D300C2AC227F007E247DF47C0002069D1209B6
:1009E300D612098512093F80FEAB0702099D438693
:1009F3001022AF992253797374656D2072756E203E
:100A0300617420256C64487A0A0D00626565702064
:0E0A13007465737420737461727421200A007C
:00000001FF
