:10000000020DF402041D53F7F8EF24FC600B14609A
:100010000C2402700B43F7032243F7042243F70535
:0200200022229A
:060023000211EFAF99226B
:03002B000210DCE4
:100033000211A2E5B7540FFEAFB6D3EF9401EE94CD
:1000430000400774052FFFE43EFED3EF94FFEE94C8
:0B0053000F40047E0F7FFF2202137E8F
:10006300020A00EF131313541FFEEF54079000D23C
:10007300F0EE700743DF0143E70122EEB4010743CB
:10008300DF0243E70222EEB4020643DF0443E70440
:0B00930022EF8FF553B4EF22020CA700
:0300A300020C004C
:1000AB00020B59BB010689828A83E0225002E722A8
:1000BB00BBFE02E32289828A83E49322BB010CE517
:1000CB008229F582E5833AF583E0225006E9258201
:1000DB00F8E622BBFE06E92582F8E222E58229F545
:1000EB0082E5833AF583E49322BB010689828A83F6
:1000FB00F0225002F722BBFE01F322F8BB010DE503
:10010B008229F582E5833AF583E8F0225006E9254A
:10011B0082C8F622BBFE05E92582C8F222A3F8E0CD
:10012B00C5F025F0F0E582158270021583E0C83822
:10013B00F0E822EF2BFFEE3AFEED39FDEC38FC2216
:10014B00E88FF0A4CC8BF0A42CFCE98EF0A42CFC53
:10015B008AF0EDA42CFCEA8EF0A4CDA8F08BF0A4D1
:10016B002DCC3825F0FDE98FF0A42CCD35F0FCEB30
:10017B008EF0A4FEA9F0EB8FF0A4CFC5F02ECD39F5
:10018B00FEE43CFCEAA42DCE35F0FDE43CFC2275EC
:10019B00F008758200EF2FFFEE33FECD33CDCC335D
:1001AB00CCC58233C5829BED9AEC99E58298400CC5
:1001BB00F582EE9BFEED9AFDEC99FC0FD5F0D6E4A3
:1001CB00CEFBE4CDFAE4CCF9A88222B800C1B90089
:1001DB0059BA002DEC8BF084CFCECDFCE5F0CBF9EA
:1001EB007818EF2FFFEE33FEED33FDEC33FCEB33E2
:1001FB00FB10D703994004EB99FB0FD8E5E4F9FA10
:10020B00227818EF2FFFEE33FEED33FDEC33FCC9F4
:10021B0033C910D7059BE99A4007EC9BFCE99AF987
:10022B000FD8E0E4C9FAE4CCFB2275F010EF2FFFF6
:10023B00EE33FEED33FDCC33CCC833C810D7079B60
:10024B00EC9AE899400AED9BFDEC9AFCE899F80FC3
:10025B00D5F0DAE4CDFBE4CCFAE4C8F922EF4BFF9E
:10026B00EE4AFEED49FDEC48FC22EB9FF5F0EA9ED1
:10027B0042F0E99D42F0E89C45F022E8600FECC3A8
:10028B0013FCED13FDEE13FEEF13FFD8F122E86024
:10029B000FEFC333FFEE33FEED33FDEC33FCD8F140
:1002AB0022BB010DE58229F582E5833AF583020233
:1002BB00DC5007E92582F80203F5BBFE07E925822E
:1002CB00F8020401E58229F582E5833AF5830204FD
:1002DB000DE0FCA3E0FDA3E0FEA3E0FF22E0F8A30A
:1002EB00E0F9A3E0FAA3E0FB227401FF3395E0FEF3
:1002FB00FDFCA3A3A3E0CF2FF0E5821582700215BE
:10030B0083E0CE3EF0E582158270021583E0CD3D91
:10031B00F0E582158270021583E0CC3CF022ECF004
:10032B00A3EDF0A3EEF0A3EFF022A8828583F0D02B
:10033B0083D08212034C12034C12034C12034CE475
:10034B0073E493A3C583C5F0C583C8C582C8F0A366
:10035B00C583C5F0C583C8C582C822E0FBA3E0FAFC
:10036B00A3E0F922F8E0FBA3A3E0F925F0F0E58286
:10037B00158270021583E0FA38F022EBF0A3EAF055
:10038B00A3E9F022D083D082F8E493701274019326
:10039B00700DA3A393F8740193F5828883E47374AF
:1003AB0002936860EFA3A3A380DFD083D082E49392
:1003BB007012740193700DA3A393F8740193F582DB
:1003CB008883E4737402936C70127403936D700CD6
:1003DB007404936E70067405936F60DDA3A3A3A3DF
:1003EB00A3A380CA8A838982E473E6FC08E6FD082E
:1003FB00E6FE08E6FF22E2FC08E2FD08E2FE08E268
:10040B00FF22E493FC740193FD740293FE74039337
:10041B00FF22C0E0C0F0C083C082C0D075D000C046
:10042B0000C001C002C003C004C005C006C0077FE6
:10043B000C12127BEF700302060D7D017F08120F69
:10044B00EC7F04120E80E5AD20E2FBE5F630E0FB1D
:10045B0075F6011200369000C4EEF0A3EFF0C390D6
:10046B0000C5E094AC9000C4E0940D4019A3E09457
:10047B00FF9000C4E0940F500D9000C27409F0A3DC
:10048B0074C4F002057AC39000C5E094809000C458
:10049B00E0940C4019A3E094AC9000C4E0940D5090
:1004AB000D9000C27407F0A374D0F002057AC390CC
:1004BB0000C5E094B89000C4E0940B4018A3E094FE
:1004CB00809000C4E0940C500C9000C27407F0A311
:1004DB0004F002057AC39000C5E0948C9000C4E050
:1004EB00940A4018A3E094B89000C4E0940B500C0D
:1004FB009000C27406F0A37440F08073C39000C5E3
:10050B00E094C49000C4E094094018A3E0948C904C
:10051B0000C4E0940A500C9000C27405F0A37478E8
:10052B00F0804CC39000C5E094989000C4E0940810
:10053B004018A3E094C49000C4E09409500C9000C0
:10054B00C27404F0A374B0F08025C39000C5E0948E
:10055B00D09000C4E094074016A3E094989000C498
:10056B00E09408500A9000C27403F0A374E8F07F83
:10057B0002120E80E5AD20E2FBE5F630E0FB75F6EE
:10058B00011200369000B5EEF0A3EFF07F02120ED1
:10059B0080E5AD20E2FBE5F630E0FB75F6011200DD
:1005AB00369000B5EEF0A3EFF07F02120E80E5ADB2
:1005BB0020E2FBE5F630E0FB75F601120036900009
:1005CB00B5EEF0A3EFF0D39000C3E09F9000C2E034
:1005DB009E501AC39000B6E094FF9000B5E0947F54
:1005EB00500B7D017F0A120FEC7D018009E4FD7F2A
:1005FB000A120FECE4FD7F0B120FECE4FD7F0812E7
:10060B000FEC7F0C121239D007D006D005D004D0D6
:10061B0003D002D001D000D0D0D082D083D0F0D084
:10062B00E0324401160000000044011200000000FB
:10063B004200D01F404200BCFA004200B30000420F
:10064B0000B500004200C600004200C4000042009A
:10065B00AF00004200AD00004200C200644400BE87
:10066B00000000004200B700004200CE0000420034
:10067B00B10000C103C1044200B900004100BB003E
:10068B004100CC004200AB00004100CD00604800AF
:10069B0063000000000000000000000000000000EC
:1006AB00000000000000000000000000000000003F
:1006BB00000000000000000000000000000000002F
:1006CB00000000000000000000000000000000001F
:1006DB0000000000000000000041011A0043011B54
:1006EB0000000043011E0000004900EE0000000066
:1006FB0000000000004900F70000000000000000AF
:10070B00004901000000000000000000004C00E266
:10071B00000000000000000000000000410121006B
:10072B0049010900000000000000000041001B000F
:10073B0041000400440000000000004200050000DE
:10074B0042005D000242005F00004200610000C1F8
:10075B0002C101C100009000D21203299000D612F1
:10076B0003350000000043F804E5F830E5FB9091F9
:10077B00AAE0FFE4FCFDFE7810120299C004C0054C
:10078B00C006C007A3E0FFE4FCFDFE781812029937
:10079B00D003D002D001D000120268C004C005C043
:1007AB0006C0079091A9E0FFE4FCFDFE7808120259
:1007BB0099D003D002D001D000120268A804A90579
:1007CB00AA06AB079091A8E0FFE4FCFDFE120268BD
:1007DB009001121203297FC07E0A7D707C0190016B
:1007EB00121202E8D312027550167F407E617D6CA7
:1007FB007C019001121202E8C312027540028012B2
:10080B0074FFFFFEFDFC9001121202E8C312027589
:10081B00700C9000D612033502DC6C008015E47F5F
:10082B0002FEFDFC9001121202E812014B9000D661
:10083B001203299000D21202DC1203B5086D00B727
:10084B001B00086500F42400085D016E36000000F3
:10085B00086575EE01E47B02800E75EE02E47B0306
:10086B00800675EE03E47B04FAF9F89000D61202C9
:10087B00DC1201D690011612032953F8FE53D9F856
:10088B0022AC07EF131313541F9000D2F0EF540751
:10089B00A3F0ED6060EC75F003A42463F582E434FF
:1008AB0000F583120386D2AFD2A81212399000D270
:1008BB00E0FF7011A3E0FE7401A806088002C333A9
:1008CB00D8FC42E922EFB401139000D3E0FF74018E
:1008DB00A807088002C333D8FC42EA229000D2E07A
:1008EB006402705CA3E0FF7401A807088002C333A5
:1008FB00D8FC42EB22C2A89000D2E0FF7012A3E01A
:10090B00FE7401A806088002C333D8FCF452E92216
:10091B00EFB401149000D3E0FF7401A80708800224
:10092B00C333D8FCF452EA229000D2E0B40211A3F4
:10093B00E0FF7401A807088002C333D8FCF452EB24
:10094B0022EF131313541FFEEF5407FFED604FEE0E
:10095B00701690C000C083C082E0FE7401A8070827
:10096B008002C333D8FC8033EEB4011690C001C0B3
:10097B0083C082E0FE7401A807088002C333D8FC51
:10098B008019EE6402706D90C002C083C082E0FEDD
:10099B007401A807088002C333D8FC4E8051EE7057
:1009AB001890C000C083C082E0FE7401A8070880C5
:1009BB0002C333D8FCF45E8036EEB4011890C0014C
:1009CB00C083C082E0FE7401A807088002C333D83D
:1009DB00FCF45E801AEEB4021B90C002C083C0828E
:1009EB00E0FE7401A807088002C333D8FCF45ED084
:1009FB0082D083F022C0E0C0F0C083C082C0D0752B
:100A0B00D000C000C001C002C003C004C005C006B6
:100A1B00C00790C809E030E01790C808E030E0103C
:100A2B00A37401F09000E2120366E94A605D8058FE
:100A3B0090C809E030E11790C808E030E110A374CA
:100A4B0002F09000E5120366E94A603F803A90C8D5
:100A5B0009E030E21790C808E030E210A37404F00C
:100A6B009000E8120366E94A6021801C90C809E0F7
:100A7B0030E31890C808E030E311A37408F090003D
:100A8B00EB120366E94A60031203EFD007D006D0DE
:100A9B0005D004D003D002D001D000D0D0D082D06A
:100AAB0083D0F0D0E0329000D212038690C9057447
:100ABB0007F0EF6401704FED24FE601C14602E24D0
:100ACB0002703D9000D21203669000EE12038690E6
:100ADB00C904E04401F080289000D2120366900014
:100AEB00F112038690C904E04402F080139000D207
:100AFB001203669000F412038690C904E04404F0DC
:100B0B00D2AF43B80122ED24FE601B14602C2402EB
:100B1B00703B9000D21203669000EE12038690C9D0
:100B2B0004E044FEF0229000D21203669000F11212
:100B3B00038690C904E044FDF0229000D2120366B4
:100B4B009000F412038690C904E044FBF022C0E04D
:100B5B00C0F0C083C082C0D075D000C000C001C03F
:100B6B0002C003C004C005C006C00790C905E03031
:100B7B00E01C90C904E030E0159000EE120366E92A
:100B8B004A60031203EF90C9057401F0804C90C9C1
:100B9B0005E030E11C90C904E030E1159000F11242
:100BAB000366E94A60031203EF90C9057402F080F3
:100BBB002990C905E030E21C90C904E030E21590A1
:100BCB0000F4120366E94A60031203EF90C905743F
:100BDB0004F0800690C9057407F0D007D006D00545
:100BEB00D004D003D002D001D000D0D0D082D0839B
:100BFB00D0F0D0E032C0E0C0F0C083C082C0D0756E
:100C0B00D000C000C001C002C003C004C005C006B4
:100C1B00C00790CA05E030E01C90CA04E030E01534
:100C2B009000F7120366E94A60031203EF90CA05BE
:100C3B007401F0804C90CA05E030E11C90CA04E0CE
:100C4B0030E1159000FA120366E94A60031203EFD4
:100C5B0090CA057402F0802990CA05E030E21C901E
:100C6B00CA04E030E2159000FD120366E94A600306
:100C7B001203EF90CA057404F0800690CA0574073E
:100C8B00F0D007D006D005D004D003D002D001D0CD
:100C9B0000D0D0D082D083D0F0D0E032C0E0C0F012
:100CAB00C083C082C0D075D000C000C001C002C0DC
:100CBB0003C004C005C006C00790CB05E030E01CA4
:100CCB0090CB04E030E015900100120366E94A6016
:100CDB00031203EF90CB057401F0804C90CB05E031
:100CEB0030E11C90CB04E030E11590010312036658
:100CFB00E94A60031203EF90CB057402F080299050
:100D0B00CB05E030E21C90CB04E030E215900106FD
:100D1B00120366E94A60031203EF90CB057404F0EB
:100D2B00800690CB057407F0D007D006D005D00411
:100D3B00D003D002D001D000D0D0D082D083D0F05D
:100D4B00D0E03290C018E4F07F08120066E4FD7F1B
:100D5B0008120EFAE4FD7F08120F737D017F081253
:100D6B000FEC90C01AE4F07F0A120066E4FD7F0AD4
:100D7B00120EFAE4FD7F0A120F737D017F0A120F28
:100D8B00EC90C01BE4F07F0B120066E4FD7F0B12AE
:100D9B000EFAE4FD7F0B120F73E4FD7F0B120FECC9
:100DAB007F0C1200667D017F0C120EFAE4FD7F0CA6
:100DBB00120F737D017F0C12094C7BFF7A00792196
:100DCB007D017F0C12088C53B0FD43B00190C01C09
:100DDB007420F0A3E4F07F0D1200667D017F0D12ED
:100DEB000EFA7D017F0D02094C787FE4F6D8FD7574
:100DFB008120020E3B021153E493A3F8E493A3402A
:100E0B0003F68001F208DFF48029E493A3F854077A
:100E1B00240CC8C333C4540F4420C8834004F45675
:100E2B00800146F6DFE4800B0102040810204080AD
:100E3B0090062DE47E019360BCA3FF543F30E5097F
:100E4B00541FFEE493A360010ECF54C025E060A8AD
:100E5B0040B8E493A3FAE493A3F8E493A3C8C58240
:100E6B00C8CAC583CAF0A3C8C582C8CAC583CADFAE
:100E7B00E9DEE780BEEF12038F0EA0010EAA020E71
:100E8B00B4040EBE080EC8100ED2200EDC400EE6C7
:100E9B008000000EF0E5B454F04401F5B48049E550
:100EAB00B454F04402F5B4803FE5B454F04403F578
:100EBB00B48035E5B454F04404F5B4802BE5B45458
:100ECB00F04405F5B48021E5B454F04406F5B48044
:100EDB0017E5B454F04407F5B4800DE5B454F04471
:100EEB0008F5B4800353B4F053ADFB43AD0422EFCC
:100EFB00131313541FFEEF5407FFED6034EE700D08
:100F0B0004A807088002C333D8FC42F922EEB401CF
:100F1B000E7401A807088002C333D8FC42FA22EEF4
:100F2B006402704304A807088002C333D8FC42FB59
:100F3B0022EE700E04A807088002C333D8FCF452CB
:100F4B00F922EEB4010F7401A807088002C333D84D
:100F5B00FCF452FA22EEB4020E7401A807088002C8
:100F6B00C333D8FCF452FB22EF131313541FFEEFC1
:100F7B005407FFED6034EE700D04A807088002C320
:100F8B0033D8FC429722EEB4010E7401A8070880F7
:100F9B0002C333D8FC42E522EE6402704304A80777
:100FAB00088002C333D8FC42FC22EE700E04A80763
:100FBB00088002C333D8FCF4529722EEB4010F74AD
:100FCB0001A807088002C333D8FCF452E522EEB423
:100FDB00020E7401A807088002C333D8FCF452FC3C
:100FEB0022EF131313541FFEEF5407FFED6034EE83
:100FFB00700D04A807088002C333D8FC428022EE90
:10100B00B4010E7401A807088002C333D8FC4290C8
:10101B0022EE6402704304A807088002C333D8FC95
:10102B0042A022EE700E04A807088002C333D8FC3E
:10103B00F4528022EEB4010F7401A807088002C39A
:10104B0033D8FCF4529022EEB4020E7401A80708B8
:10105B008002C333D8FCF452A0229000D61203298D
:10106B00E47F10FEFDFC9000DA1202E812014B90B7
:10107B0000DE120329E47B02FAF9F89000DE12027B
:10108B00DC1201D69000D61202E812013E9000DE6F
:10109B001202E81201D69000DE1203299000DE1234
:1010AB0002E8C3E49BFF74049AFEE499FDE498FC08
:1010BB009000DE1203299000DE1202DC7808120287
:1010CB0086AB079000DE1202DCEB5403F5BA8FAA55
:1010DB0022C0E0C0F0C083C082C0D075D000C00079
:1010EB00C001C002C003C004C005C006C007E5C8EC
:1010FB0030E11053C8FD900109120366E94A600301
:10110B001203EFE5C930E11053C9FD90010C120336
:10111B0066E94A60031203EFE5CA30E11053CAFDDA
:10112B0090010F120366E94A60031203EFD007D058
:10113B0006D005D004D003D002D001D000D0D0D03F
:10114B0082D083D0F0D0E0321213F6120D4E121370
:10115B009C7D0F7C007F647E001212B67BFF7A149D
:10116B0079097D017F01120AB11214019000D67426
:10117B0001F0FB7A00E4FD7F011213267F031200BE
:10118B00067F06120094E4FF1213C77F011213B5FA
:10119B007F011213EA80FEC0E0C0F0C083C082C0A2
:1011AB00D075D000C000C001C002C003C004C00590
:1011BB00C006C007E5F630E00D90011E120366E98C
:1011CB004A60031203EF75F601D007D006D005D0A5
:1011DB0004D003D002D001D000D0D0D082D083D0A5
:1011EB00F0D0E032C0E0C0F0C083C082C0D075D078
:1011FB0000C000C001C002C003C004C005C006C0CF
:10120B000730980F90011B120366E94A6003120323
:10121B00EFC298D007D006D005D004D003D002D0AF
:10122B0001D000D0D0D082D083D0F0D0E032EF13F9
:10123B001313541FFEEF5407FFEE700E04A807089C
:10124B008002C333D8FCF452E122EEB4010F7401D7
:10125B00A807088002C333D8FCF452E222EEB40292
:10126B000E7401A807088002C333D8FCF452E322A2
:10127B00EF131313541FFEEF5407FFEE700DE5E150
:10128B00A807088002C313D8FC801CEEB4010DE53F
:10129B00E2A807088002C313D8FC800BE5E3A8077C
:1012AB00088002C313D8FC5401FF22AB07AA0643E4
:1012BB00DF0843E70890C900E04440F0EC90C90D0B
:1012CB00F0ED90C90CF0EB24FFEA34FF90C90FF05E
:1012DB00EB1490C90EF090C9067401F090C905E0AB
:1012EB004401F0229000D212032943DE0143E601B0
:1012FB00439E01E490011AF0C29FD29EC299C298FC
:10130B009000D21202DC9000DA120329900116121F
:10131B0002DC121065D29C53F33F229000D6E0649E
:10132B0001702743DE1043E610EFC4333354C0FF84
:10133B00E5AC54BF4FF5ACE4F5FEF5FFEBF5FEEA7B
:10134B00F5FFE5FD54FE4DF5FD2253DEEF53E6EFC1
:10135B002212002690005FE475F001120128FC7444
:10136B001C25F0F58274003CF583EFF090005C7463
:10137B0001F022C0E0C083C082E5A630E3099001F2
:10138B00217401F075A32075A3FFD082D083D0E028
:10139B0032E490005CF0FF7EC27D01FC1212EF7B09
:1013AB00FF7A13795C7F010213D9EFB4010753ADB8
:1013BB00FE53ADFD2243AD0243AD012243AC20EF02
:1013CB00700553ACFD800343AC0253B5FE22EFB462
:1013DB00010AD2AFD2AC90011B020386C2AC22EF42
:1013EB00B4010443AC012253ACFE227F007E247D6A
:1013FB00F47C0002076190C900E04401F022E49004
:04140B0000CDF022FE
:00000001FF
