:10000000020C02E4900068F0FF7EC27D01FC121039
:100010002D7BFF7A1079C37F010210FBAB07021022
:01002000E5FA
:10002300020F62BB010689828A83E0225002E72223
:10003300BBFE02E32289828A83E49322BB010CE59F
:100043008229F582E5833AF583E0225006E9258289
:10005300F8E622BBFE06E92582F8E222E58229F5CD
:1000630082E5833AF583E49322BB010689828A837E
:10007300F0225002F722BBFE01F322F8BB010DE58B
:100083008229F582E5833AF583E8F0225006E925D3
:1000930082C8F622BBFE05E92582C8F222C5F0F824
:1000A300A3E028F0C5F0F8E582158270021583E01D
:1000B30038F022A3F8E0C5F025F0F0E58215827050
:1000C300021583E0C838F0E822EF2BFFEE3AFEED8D
:1000D30039FDEC38FC22E88FF0A4CC8BF0A42CFC87
:1000E300E98EF0A42CFC8AF0EDA42CFCEA8EF0A49B
:1000F300CDA8F08BF0A42DCC3825F0FDE98FF0A42A
:100103002CCD35F0FCEB8EF0A4FEA9F0EB8FF0A420
:10011300CFC5F02ECD39FEE43CFCEAA42DCE35F05C
:10012300FDE43CFC2275F008758200EF2FFFEE33EF
:10013300FECD33CDCC33CCC58233C5829BED9AEC57
:1001430099E58298400CF582EE9BFEED9AFDEC99C1
:10015300FC0FD5F0D6E4CEFBE4CDFAE4CCF9A882CB
:1001630022B800C1B90059BA002DEC8BF084CFCE70
:10017300CDFCE5F0CBF97818EF2FFFEE33FEED332E
:10018300FDEC33FCEB33FB10D703994004EB99FBF5
:100193000FD8E5E4F9FA227818EF2FFFEE33FEEDDE
:1001A30033FDEC33FCC933C910D7059BE99A4007EB
:1001B300EC9BFCE99AF90FD8E0E4C9FAE4CCFB2202
:1001C30075F010EF2FFFEE33FEED33FDCC33CCC8CB
:1001D30033C810D7079BEC9AE899400AED9BFDECD6
:1001E3009AFCE899F80FD5F0DAE4CDFBE4CCFAE415
:1001F300C8F922EF4BFFEE4AFEED49FDEC48FC2225
:10020300EB9FF5F0EA9E42F0E99D42F0E89C45F051
:1002130022E8600FECC313FCED13FDEE13FEEF13A6
:10022300FFD8F122E8600FEFC333FFEE33FEED3367
:10023300FDEC33FCD8F122BB010DE58229F582E503
:10024300833AF58302026A5007E92582F802035DC7
:10025300BBFE07E92582F8020369E58229F582E5F9
:10026300833AF583020375E0FCA3E0FDA3E0FEA35C
:10027300E0FF22E0F8A3E0F9A3E0FAA3E0FB227495
:1002830001FF3395E0FEFDFCA3A3A3E0CF2FF0E530
:1002930082158270021583E0CE3EF0E582158270EE
:1002A300021583E0CD3DF0E582158270021583E0EF
:1002B300CC3CF022ECF0A3EDF0A3EEF0A3EFF022A0
:1002C300A8828583F0D083D0821202DA1202DA1276
:1002D30002DA1202DAE473E493A3C583C5F0C5839B
:1002E300C8C582C8F0A3C583C5F0C583C8C582C885
:1002F30022E0FBA3E0FAA3E0F922F8E0FBA3A3E0EA
:10030300F925F0F0E582158270021583E0FA38F0E2
:1003130022EBF0A3EAF0A3E9F022D083D082E493A6
:100323007012740193700DA3A393F8740193F58273
:100333008883E4737402936C70127403936D700C6E
:100343007404936E70067405936F60DDA3A3A3A377
:10035300A3A380CA8A838982E473E6FC08E6FD08C6
:10036300E6FE08E6FF22E2FC08E2FD08E2FE08E200
:10037300FF22E493FC740193FD740293FE740393D0
:10038300FF22D083D082F8E4937012740193700D2E
:10039300A3A393F8740193F5828883E4737402939F
:1003A3006860EFA3A3A380DFE5082497F582E43414
:1003B30000F583E00508229000943007039000972E
:1003C300E475F0011202FD0200262000E97F2ED21F
:1003D300008018EF540F2490D43440D4FF30040B22
:1003E300EF24BFB41A0050032461FFE5096002152E
:1003F30009050CE50C7002050B30070E900094E420
:1004030075F0011202FDEF02006C02001C7403D2AE
:10041300078003E4C207F508900094120314E4F57F
:1004230009F50BF50CE50960077F201203EE80F553
:10043300750AFFC201C200C202C203C205C206C2DC
:10044300081203BAFF700D3007057F001203FFAFD8
:100453000CAE0B22B4255FC2D5C2041203BAFF242B
:10046300D0B40A00501A75F00A780930D50508B6D9
:10047300FF0106C6A426F620D5047002D20380D954
:1004830024CFB41A00EF5004C2E5D204020600D20E
:100493000180C6D20080C0D20280BCD2D580BAD23D
:1004A3000580B47F201203EE2002077401B5090012
:1004B30040F11203ABFF1203EE020428D208D20666
:1004C30080951203ABFB1203ABFA1203ABF94A4B51
:1004D300700679D17A067BFF20022EE509602A7E19
:1004E300008E8275830012003F60060EEE650A706F
:1004F300F0C2D5EBC0E0EAC0E0E9C0E0EE12064787
:10050300D0E0F9D0E0FAD0E0FB120026FF60AAEBBE
:10051300C0E0EAC0E0E9C0E01203EED0E02401F954
:10052300D0E03400FAD0E0FBE50A0460DCD50AD958
:1005330080877BFF7A067943D202809C7910800200
:100543007908C206C2088008D2D5790A8004790ADC
:10055300C2D5E50A047002F50AE4FAFDFEFF1203B0
:10056300ABFC7B082001131203ABFD7B1030000AA8
:100573001203ABFE1203ABFF7B20EC3382D592D583
:100583005013C3E43000069FFFE49EFEE420010302
:100593009DFDE49CFCE4CBF8C201EC700CCFCECD06
:1005A300CCE824F8F870F38017C3EF33FFEE33FE83
:1005B300ED33FDEC33FCEB33FB994002FB0FD8E941
:1005C300EB300105F8D0E0C448B201C0E00AEC4DBD
:1005D3004E4F78207B0070C2EAB50A0040BCC0E0F1
:1005E300120649D0F0D0E0200104C4C0E0C4B20137
:1005F300C0F01203D7D0F0D5F0EB02042812038524
:1006030004C553053F5804964C04924205434F05D5
:100613004B44054B4904AB43055155053546053558
:100623004505354706F150049A2D049E2E04C12B2F
:1006330004A22304BF2006DA2A045A48000004B99E
:100643003F3F3F00790AA2D5200314300509B910B2
:10065300020404B9080104A2D520060250010420B3
:1006630002689202B509005034C0E07F20300319BC
:100673007F30A20272067205500F1206A0C202C298
:1006830006C205C2087F30800F300503E9C0E012BF
:1006930003EE300503D0E0F9D0E0B509CC300517FF
:1006A3007F30B9100C1203EE7F583004077F788037
:1006B30003B908031203EE3002057F2D0203EE7F18
:1006C300202008F87F2B2006F322920280CF286E89
:1006D300756C6C2900D2011203AB3001F8C20178AA
:1006E3000930D50108F602045A2D50434958120324
:1006F300AB2403B405004001E49006EC931203DF3E
:10070300743A1203DFD20375090402053F90006FA8
:10071300EDF090006DEEF0A3EFF0121095900074E1
:100723001202C30000000090007012026A9000746D
:10073300120276C3120203505990007412026A9097
:10074300006EE02FFF90006DE03EFE121123EFF4E8
:10075300602590006DE0FEA3E0FFE4FCFD900074D3
:100763001202761200CC9000971202B77BFF7A1127
:10077300796A120416801B90007412026AEF240136
:10078300FFE43EFEE43DFDE43CFC9000741202B73E
:1007930080959000741202C3000000009000701254
:1007A300026A900074120276C31202035032900060
:1007B3006FE0FB90007412026A74142FF582E43424
:1007C30000F583EBF090007412026AEF2401FFE45A
:1007D3003EFEE43DFDE43CFC9000741202B780BC95
:1007E3007B017A00791490007012026A90007D12E6
:1007F30002B790006DE0FEA3E0FF120E567B017A74
:1008030000790090007012026A90007D1202B79086
:10081300006DE0FEA3E0FF120C8E900070120276D2
:10082300C312020360030208C09000741202C300E3
:1008330000000090007012026A900074120276C3E6
:10084300120203507890007412026A74002FF5822A
:10085300E43400F583E0FF90006FE0FEEF6E602369
:1008630090006DE0FEA3E0FFE4FCFD900074120233
:10087300761200CC9000971202B77BFF7A1179852C
:100883000204167BFF7A11795790007412026A747E
:10089300002FF582E43400F583E0900097F0120412
:1008A3001690007412026AEF2401FFE43EFEE43D59
:1008B300FDE43CFC9000741202B70208362290005B
:1008C3006D1202B79000711202C30000000043F8DA
:1008D30004E5F85420642070F89091AAE0FFE4FC4A
:1008E300FDFE7810120227C004C005C006C007A38E
:1008F300E0FFE4FCFDFE7818120227D003D002D0FB
:1009030001D0001201F6C004C005C006C0079091D3
:10091300A9E0FFE4FCFDFE7808120227D003D00211
:10092300D001D0001201F6A804A905AA06AB0790CE
:1009330091A8E0FFE4FCFDFE1201F69000BC120258
:10094300B77FC07E0A7D707C019000BC120276D313
:1009530012020350167F407E617D6C7C019000BCC7
:10096300120276C31202034002801274FFFFFEFDDF
:10097300FC9000BC120276C3120203700C9000714B
:100983001202C302DC6C008015E47F02FEFDFC90C2
:1009930000BC1202761200D99000711202B79000C7
:1009A3006D12026A12031D09D000B71B0009C800AB
:1009B300F4240009C0016E3600000009C875EE0179
:1009C300E47B02800E75EE02E47B03800675EE0382
:1009D300E47B04FAF9F890007112026A1201649040
:1009E30000C01202B753F8FE53D9F82290008912BF
:1009F30002C30000000090924812026A900089121C
:100A030002B790008912026A7818120214EF1200DA
:100A13006C90008912026A7810120214900001EFA0
:100A230012007E90008912026A7808120214900064
:100A330002EF12007E90008912026A900003EF1207
:100A4300007E90924CE0FFE4FCFDFE9000891202D0
:100A5300B790008912026A900004EF12007E909210
:100A630050E0FFE4FCFDFE9000891202B79000897C
:100A730012026A900005EF12007E909252E0FFE4AA
:100A8300FCFDFE9000891202B790008912026A9061
:100A93000006EF12007E909256E0FFE4FCFDFE900C
:100AA30000891202B790008912026A900007EF02D0
:100AB300007E90006DEEF0A3EFF0A3EBF0900072D8
:100AC300EDF090006FE0FF900072E0FEC39F4003E3
:100AD300020B62EE25E0FE90006EE02400FF900022
:100AE3006DE03EFE121095E4900070F0A3F09000CC
:100AF30070E0FCA3E0FDC3EC9402505AA3E025E0B0
:100B0300FE90006EE02400FF90006DE03ECF2DCFFD
:100B13003CFE121123EFF460317BFF7A11796A9066
:100B23000072E025E0FE90006EE02400FF90006D6F
:100B3300E03EFE900071E02FFF900070E03E9000D9
:100B430097F0A3EFF0120416800C900070E475F098
:100B5300011200A08098900072E004F0020AC522FE
:100B63007BFF7A1179B31204167B017A00796D1237
:100B730010647BFF7A1179DD1204167B017A007908
:100B83006D7F107E007D007C00120DEA7BFF7A11E1
:100B930079EC1204167BFF7A1279011204167B0199
:100BA3007A00797D1209EF7BFF7A12792B120416F2
:100BB3007B017A00797D7F087E007D007C00120D29
:100BC300EA7BFF7A1179EC1204167BFF7A12793AE9
:100BD3001204167B017A007985120EBB7BFF7A1211
:100BE30079651204167B017A0079857F047E007D86
:100BF300007C00120DEA7BFF7A1179EC020416786F
:100C03007FE4F6D8FD758121020C49021118E493A3
:100C1300A3F8E493A34003F68001F208DFF48029EC
:100C2300E493A3F85407240CC8C333C4540F4420DB
:100C3300C8834004F456800146F6DFE4800B0102CA
:100C4300040810204080900F11E47E019360BCA340
:100C5300FF543F30E509541FFEE493A360010ECF18
:100C630054C025E060A840B8E493A3FAE493A3F842
:100C7300E493A3C8C582C8CAC583CAF0A3C8C58202
:100C8300C8CAC583CADFE9DEE780BE900078EEF00C
:100C9300A3EFF0A31203149000811202C30000001B
:100CA3000090007D12026A900081120276C3120244
:100CB30003504A90008112026A900079E02FFF905E
:100CC3000078E03E8F82F583E493FFC007900081B4
:100CD30012026A90007A1202F48F828E83D0E0129D
:100CE300007E90008112026AEF2401FFE43EFEE4DD
:100CF3003DFDE43CFC9000811202B780A49000818A
:100D030002026A9000711202B7E47F10FEFDFC90AC
:100D130000751202761200D99000791202B7E47BB3
:100D230002FAF9F890007912026A120164900071D4
:100D33001202761200CC90007912027612016490AE
:100D430000791202B7900079120276C3E49BFF7414
:100D5300049AFEE499FDE498FC9000791202B7909E
:100D6300007912026A7808120214AB079000791214
:100D7300026AEB5403F5BA8FAA227BFF7A127975C4
:100D83009000C012026A9000971202B712041690E4
:100D930000C012026A120FF37BFF7A12798B1204DE
:100DA300167B01E4FDFF7E20120AB57BFF7A1279E0
:100DB300BE1204167F0A7E007D007C00120FAC7BFE
:100DC300FF7A1279EF1204169000701202C300002A
:100DD30000147D5A7F007E201207107BFF7A13795F
:100DE30021120416020B6390008912031490008CE5
:100DF3001202B79000901202C30000000090008C12
:100E030012026A900090120276C3120203503B90C2
:100E1300009012026A9000891202F48F828E83126C
:100E2300003F900097F07BFF7A13795112041690DC
:100E3300009012026AEF2401FFE43EFEE43DFDE46C
:100E43003CFC9000901202B780B37BFF7A13795871
:100E5300020416900078EEF0A3EFF0A3120314A29D
:100E6300AF9200C2AF53A7F843A70190007D74FF70
:100E7300120284EC4D4E4F6037900078E475F00118
:100E83001200B6AFF0F5D28FD190007AE475F0017D
:100E93001202FD120026F5D343D40843D440E5D40F
:100EA30030E1FB43D480E5D420E7FB53D4BF80BBC0
:100EB30053A7FEA20092AF229000891202C3000042
:100EC300000090919C12026A9000891202B7900070
:100ED3008912026A7818120214EF12006C900089CA
:100EE30012026A7810120214900001EF12007E9031
:100EF300008912026A7808120214900002EF1200AD
:100F03007E90008912026A900003EF02007E440083
:100F1300C0000000004400BC000000004100C40009
:100F23004300C5000000420069000042006B00005E
:100F33005400140000000000000000000000000046
:100F4300000000000000005400000000000000004A
:100F5300000000000000000000000000000000C0CE
:100F6300E0C0F0C083C082C0D075D000C000C00113
:100F7300C002C003C004C005C006C00730980F906C
:100F830000C51202F4E94A6003120357C298D0075E
:100F9300D006D005D004D003D002D001D000D0D0E9
:100FA300D082D083D0F0D0E03290006D1202B7909F
:100FB30000711202C30000000090006D12026A90DB
:100FC3000071120276D31202035024007F157E9221
:100FD300DEFEDFFC90007112026AEF2401FFE43EA3
:100FE300FEE43DFDE43CFC9000711202B780CA228E
:100FF30090006D1202B77F807E847D1E7C0090007E
:101003006D120276C3120203401F7B407A42790FAE
:10101300780090006D12026A120164900071EFF083
:1010230075A10F75A33FE4F5A22290006D1202B7DC
:1010330043DE0143E601439E01E49000C4F0C29FF6
:10104300D29EC299C29890006D12026A90007512E6
:1010530002B79000C012026A120D06D29C53F33FEE
:1010630022900089120314E4FFEFC3941074809458
:1010730080501EEF2448FDE434928D82F583E0FE18
:10108300900089E475F0011202FDEE12006C0F80EE
:10109300D822A2AF9200C2AF53A7F843A7028ED2C1
:1010A3008FD143D40843D440E5D430E1FB43D4800B
:1010B300E5D420E7FB53D4BF53A7FDA20092AF2290
:1010C30012112B900069E475F0011200B6FC74282C
:1010D30025F0F58274003CF583EFF090006874010D
:1010E300F02274FFFDFC8F9920990AED1DAE047068
:1010F300011C4E70F3C29922EF6401700AD2AFD281
:10110300AC9000C5020314C2AC227F007E247DF4A0
:101113007C000208C112110D120003120D7D80FE26
:101123008F828E83E493FF22AF99224572726F728E
:101133003A20386269742052656164206E6F7420AE
:10114300657175616C207772697465215B307825F0
:10115300785D0A00726561645F646174613A5B3053
:10116300782562785D0A004572726F723A20657263
:10117300617365206661696C215B3078256C785DED
:101183000A004572726F723A206D756C74696279E8
:1011930074652052656164206E6F7420657175619A
:1011A3006C205772697465215B307825785D0A007D
:1011B3002D2D2D2D2D2D2D2D7265616420636869D4
:1011C3007020736E20666F722031362062797465E9
:1011D300732D2D2D2D2D2D2D0A00534E28313662C2
:1011E30079746573293A200A002D2D2D2D2D2D2D6F
:1011F3002D656E642D2D2D2D2D2D2D0A0A002D2DDF
:101203002D2D2D2D2D2D726561642063686970204D
:1012130055494420666F7220382062797465732DB6
:101223002D2D2D2D2D2D0A00554944283862797412
:101233006573293A200A002D2D2D2D2D2D2D2D726C
:101243006561642063686970205663617020666F0E
:101253007220342062797465732D2D2D2D2D2D2D43
:101263000A005663617028346279746573293A20E1
:101273000A0053797374656D2072756E2061742052
:10128300256C64487A0A0D003078323030302D20D6
:1012930030783232303020777269746520616E6441
:1012A30020726561642062792062797465207465B7
:1012B30073742073746172740D0A003078323030A5
:1012C300302D2030783232303020777269746520C7
:1012D300616E64207265616420627920627974654D
:1012E300207465737420656E640D0A0030783230A3
:1012F300303020777269746520616E642072656195
:1013030064206279206D756C7469206279746573E9
:1013130020746573742073746172740D0A003078DD
:101323003230303020777269746520616E642072C8
:10133300656164206279206D756C746920627974CB
:101343006573207465737420656E640D0A00252E21
:0E13530032627820000A00252E386C782000C7
:00000001FF
