:1000000002106AD3900152E09464900151E0940090
:10001000400DA3E0249CFF900151E034FFFE22E458
:06002000FEFF220214564F
:03002B000212DBE3
:100033000214097D177C0074FFFFFE12151F90C97F
:1000430004E4F0A37407F090C90AE4F0A3F00216E5
:0B005300BD90C9057407F022021615CD
:10006300020D36EF131313541FFEEF5407900226AD
:10007300F0EE700743DF0143E70122EEB4010743CB
:10008300DF0243E70222EEB4020643DF0443E70440
:0B00930022EF8FF553B4EF22020F356F
:0300A300020E8EBC
:1000AB00020DE790016CE0FFA3E0900238CFF0A3C4
:1000BB00EFF0E4900246F0C3900239E09410900206
:1000CB0038E09400500CE490016BF0900175F0A3B4
:1000DB00F022900000E0FEA3E0FF900177EEF0A38A
:1000EB00EFF0900179EEF0A3EFF0900226120820CA
:1000FB0000000000E4900235F0A3F0900232F0A370
:10010B00F0900238E0FEA3E0FF900232E0FCA3E0A7
:10011B00FDC39FEC9E4003020300ED25E0FFEC3393
:10012B00FE74002FF58274003EF583E0FEA3E0FF22
:10013B0090023AEEF0A3EFF0D3900178E09F90019C
:10014B0077E09E400F90023AE0FFA3E0900177CF5B
:10015B00F0A3EFF0900179E0FEA3E0FF90023AE00C
:10016B00FCA3E0FDD39FEC9E4008900179ECF0A33B
:10017B00EDF09002261207D390023AE0FEA3E0FFC7
:10018B00E4FCFD12061B900226120814900235E0C7
:10019B00FFC39404502290023AE0FCA3E0FDEF254C
:1001AB00E02440F582E43401F583ECF0A3EDF0900C
:1001BB000235E004F0020245E4900237F09002347D
:1001CB0004F0900234E0FFC39404503A900237E0FD
:1001DB0025E02440F582E43401F583E0FCA3E0FD47
:1001EB00EF25E02440F582E43401F583E0FEA3E043
:1001FB00C39DEE9C5008900234E0900237F09002C1
:10020B0034E004F080BC900237E0F925E02440F59F
:10021B0082E43401F583E0FEA3E0FF90023AE0FCB8
:10022B00A3E0FDD39FEC9E4011E925E02440F5822D
:10023B00E43401F583ECF0A3EDF0900236E0FFC35C
:10024B009408502290023AE0FCA3E0FDEF25E02455
:10025B0053F582E43401F583ECF0A3EDF090023614
:10026B00E004F00202F3E4900237F090023404F061
:10027B00900234E0FFC39408503A900237E025E037
:10028B002453F582E43401F583E0FCA3E0FDEF2574
:10029B00E02453F582E43401F583E0FEA3E0D39D23
:1002AB00EE9C4008900234E0900237F0900234E06C
:1002BB0004F080BC900237E0F925E02453F582E48A
:1002CB003401F583E0FEA3E0FF90023AE0FCA3E0EB
:1002DB00FDC39FEC9E5011E925E02453F582E434D5
:1002EB0001F583ECF0A3EDF0900232E475F001120E
:1002FB0005B702010C900238E0FEA3E0FFFBAA0653
:10030B00E4F9F89002261207C71206C1900171EEAC
:10031B00F0A3EFF090022A12082000000000E490F6
:10032B000234F0900235E0FF900234E0C39F502E70
:10033B0090022A1207D3900234E025E02440F58284
:10034B00E43401F583E0FEA3E0FFE4FCFD12061BA1
:10035B0090022A120814900234E004F080C5900237
:10036B002E12082000000000E4900234F0900236B8
:10037B00E0FF900234E0C39F502E90022E1207D361
:10038B00900234E025E02453F582E43401F583E058
:10039B00FEA3E0FFE4FCFD12061B90022E120814D4
:1003AB00900234E004F080C5900235E0FF6010FB52
:1003BB00E4FAF9F890022A1207C71206C180047EEC
:1003CB00007F0090023EEEF0A3EFF0900236E0FFCC
:1003DB006010FBE4FAF9F890022E1207C71206C15F
:1003EB0080047E007F0090023CEEF0A3EFF0A3E0D0
:1003FB00FCA3E0FDD39FEC9E401690023CE0FEA3D5
:10040B00E0FFED9FFFEC9E900175F0A3EFF08007EE
:10041B00E4900175F0A3F090023CE0FFA3E09001A3
:10042B004BCFF0A3EFF0900169ECF0A3EDF090014E
:10043B0051E0FFA3E0900240CFF0A3EFF0120003D6
:10044B00900242EEF0A3EFF0900163E060427B017B
:10045B007A007900900238E0FCA3E0FD90023CE0CA
:10046B00FFA3E090024CCFF0A3EFF0900242120CEE
:10047B006C900244EEF0A3EFF0900242E0FEA3E09A
:10048B00FFC3900176E09F900175E09E404880404D
:10049B007B017A007900900238E0FCA3E0FD90022A
:1004AB003CE0FFA3E090024CCFF0A3EFF0900240B2
:1004BB00120C6C900244EEF0A3EFF0900240E0FEC1
:1004CB00A3E0FFC3900176E09F900175E09E40068C
:1004DB009002467401F0900244E0FFA3E0900167A4
:1004EB00CFF0A3EFF0900238E0FEA3E0FF7C007D9D
:1004FB00231208E0E47B64FAF9F81206C1C3EF9407
:10050B0002EE940050047E007F02900244E0FCA3B4
:10051B00E0FDC39402EC94005003E4A3F0D3ED9FF1
:10052B00EC9E4005E4900246F0900246E090016B91
:10053B00F022BB010689828A83E0225002E722BBAC
:10054B00FE02E32289828A83E49322BB010CE582BB
:10055B0029F582E5833AF583E0225006E92582F8F6
:10056B00E622BBFE06E92582F8E222E58229F58226
:10057B00E5833AF583E49322BB010689828A83F0F3
:10058B00225002F722BBFE01F322F8BB010DE582DC
:10059B0029F582E5833AF583E8F0225006E92582B6
:1005AB00C8F622BBFE05E92582C8F222C5F0F8A3E6
:1005BB00E028F0C5F0F8E582158270021583E0386B
:1005CB00F022A3F8E0C5F025F0F0E5821582700269
:1005DB001583E0C838F0E822BB0110E58229F582CB
:1005EB00E5833AF583E0F5F0A3E0225009E9258293
:1005FB00F886F008E622BBFE0AE92582F8E2F5F060
:10060B0008E222E5832AF583E993F5F0A3E9932227
:10061B00EF2BFFEE3AFEED39FDEC38FC22C3EF9BDE
:10062B00FFEE9AFEED99FDEC98FC22E88FF0A4CC3E
:10063B008BF0A42CFCE98EF0A42CFC8AF0EDA42CFE
:10064B00FCEA8EF0A4CDA8F08BF0A42DCC3825F0CD
:10065B00FDE98FF0A42CCD35F0FCEB8EF0A4FEA9B8
:10066B00F0EB8FF0A4CFC5F02ECD39FEE43CFCEAC5
:10067B00A42DCE35F0FDE43CFC2275F0087582000C
:10068B00EF2FFFEE33FECD33CDCC33CCC58233C54C
:10069B00829BED9AEC99E58298400CF582EE9BFEDD
:1006AB00ED9AFDEC99FC0FD5F0D6E4CEFBE4CDFA38
:1006BB00E4CCF9A88222B800C1B90059BA002DECDC
:1006CB008BF084CFCECDFCE5F0CBF97818EF2FFF74
:1006DB00EE33FEED33FDEC33FCEB33FB10D703991C
:1006EB004004EB99FB0FD8E5E4F9FA227818EF2FC9
:1006FB00FFEE33FEED33FDEC33FCC933C910D705E8
:10070B009BE99A4007EC9BFCE99AF90FD8E0E4C906
:10071B00FAE4CCFB2275F010EF2FFFEE33FEED3336
:10072B00FDCC33CCC833C810D7079BEC9AE8994063
:10073B000AED9BFDEC9AFCE899F80FD5F0DAE4CDC5
:10074B00FBE4CCFAE4C8F922EF4BFFEE4AFEED498D
:10075B00FDEC48FC22EB9FF5F0EA9E42F0E99D424E
:10076B00F0E89C45F022E8600FECC313FCED13FDA1
:10077B00EE13FEEF13FFD8F122E8600FEFC333FF48
:10078B00EE33FEED33FDEC33FCD8F122BB010DE56E
:10079B008229F582E5833AF5830207C75007E925DD
:1007AB0082F802090DBBFE07E92582F8020919E55B
:1007BB008229F582E5833AF583020925E0FCA3E063
:1007CB00FDA3E0FEA3E0FF22E0F8A3E0F9A3E0FA2B
:1007DB00A3E0FB227401FF3395E0FEFDFCA3A3A372
:1007EB00E0CF2FF0E582158270021583E0CE3EF04C
:1007FB00E582158270021583E0CD3DF0E58215820E
:10080B0070021583E0CC3CF022ECF0A3EDF0A3EEEC
:10081B00F0A3EFF022A8828583F0D083D082120858
:10082B0037120837120837120837E473E493A3C55D
:10083B0083C5F0C583C8C582C8F0A3C583C5F0C501
:10084B0083C8C582C822E0FBA3E0FAA3E0F922F833
:10085B00E0FBA3A3E0F925F0F0E582158270021509
:10086B0083E0FA38F022EBF0A3EAF0A3E9F022D010
:10087B0083D082F8E4937012740193700DA3A39349
:10088B00F8740193F5828883E4737402936860EFC4
:10089B00A3A3A380DFD083D082E49370127401935F
:1008AB00700DA3A393F8740193F5828883E473749A
:1008BB0002936C70127403936D700C7404936E70CE
:1008CB00067405936F60DDA3A3A3A3A3A380CA8AB9
:1008DB00838982E473EC8EF0A4CCC5F0CCCDF8EF19
:1008EB00A4CEC5F02DFDE43CFCE8A42EC8C5F03D1C
:1008FB00FDE43CFCEFA4FFE5F028FEE43DFDE43C09
:10090B00FC22E6FC08E6FD08E6FE08E6FF22E2FC18
:10091B0008E2FD08E2FE08E2FF22E493FC74019377
:10092B00FD740293FE740393FF2244028A000000BD
:10093B00004402860000000042016E0000420149A3
:10094B000000420151032042016C0000410165008F
:10095B004201770000420179000042017100004220
:10096B00014B000042016900004201750000420189
:10097B0067000041016B00410163004101480041E8
:10098B000170004101640044014D00001900410158
:10099B0066004201730000604801DE0000000000A9
:1009AB00000000000000000000000000000000003C
:1009BB00000000000000000000000000000000002C
:1009CB00000000000000000000000000000000001C
:1009DB00000000000000000000000000000000000C
:1009EB0000000041028E0043028F00000043029280
:1009FB0000000049026200000000000000000049F6
:100A0B00026B0000000000000000004902740000AF
:100A1B00000000000000004C025600000000000027
:100A2B000000000000004102950049027D0000001B
:100A3B000000000000004101960041017F004401CD
:100A4B007B0000000042018000004201D8000242FE
:100A5B0001DA00004201DC0000C102C101C100004B
:100A6B0090022612081490022A120820000000009F
:100A7B0043F804E5F830E5FB9091AAE0FFE4FCFDB8
:100A8B00FE7810120784C004C005C006C007A3E09F
:100A9B00FFE4FCFDFE7818120784D003D002D001CE
:100AAB00D000120753C004C005C006C0079091A91F
:100ABB00E0FFE4FCFDFE7808120784D003D002D0DF
:100ACB0001D000120753A804A905AA06AB07909101
:100ADB00A8E0FFE4FCFDFE120753900286120814F7
:100AEB007FC07E0A7D707C019002861207D3D312E1
:100AFB00076050167F407E617D6C7C0190028612F0
:100B0B0007D3C31207604002801274FFFFFEFDFC87
:100B1B009002861207D3C3120760700C90022A1240
:100B2B00082002DC6C008015E47F02FEFDFC9002C5
:100B3B00861207D312063690022A12081490022648
:100B4B001207C71208A00B7700B71B000B6F00F43E
:100B5B0024000B67016E360000000B6F75EE01E48D
:100B6B007B02800E75EE02E47B03800675EE03E4D8
:100B7B007B04FAF9F890022A1207C71206C19002F9
:100B8B008A12081453F8FE53D9F8227F041215EF7A
:100B9B00D3EF94FFEE940F40047E0F7FFF9001493B
:100BAB00EEF0A3EFF01214E1900226EEF0A3EFF0BB
:100BBB00900166E0702404F0900226E0FAA3E0FBBB
:100BCB00FFAE02E4FCFD780312078490014D12087E
:100BDB0014900151EAF0A3EBF02290014D1207C7DC
:100BEB00C004C005C006C00790014D1207C77803AB
:100BFB00120771A804A905AA06AB07D007D006D027
:100C0B0005D00412062890014D12081490014D12C4
:100C1B0007D3900226E0FEA3E0FFE4FCFD12061BC7
:100C2B0090014D12081490014D1207C7780312075B
:100C3B0071900151EEF0A3EFF0C3900152E09420BC
:100C4B00900151E094035002800FD3900152E09435
:100C5B0020900151E0940340077403F0A37420F03B
:100C6B0022E0FFA3E090024ECFF0A3EFF0900247FB
:100C7B0012087190024AECF0A3EDF0E4900252F0EE
:100C8B00A3F090024CE0FEA3E0FBAA06E4F9F8A364
:100C9B00E0FEA3E0FFE4FCFD12061BE47BFF7A0FF2
:100CAB00C3120760500C900254740FF0A374FFF042
:100CBB00801A90024EE0FEA3E0FF90024DE02FFF62
:100CCB0090024CE03E900254F0A3EFF0E4900250FF
:100CDB00F0A3F090024AE0FEA3E0FF900250E0FC8C
:100CEB00A3E0FDC39FEC9E5039ED25E0FFEC33FEF6
:100CFB009002471208518F828E831205E3FFD39027
:100D0B000255E09F900254E095F0500A900252E495
:100D1B0075F0011205B7900250E475F0011205B79A
:100D2B0080B1900252E0FEA3E0FF22C0E0C0F0C011
:100D3B0083C082C0D075D000C000C001C002C00308
:100D4B00C004C005C006C00790C809E030E017908A
:100D5B00C808E030E010A37401F09002561208515D
:100D6B00E94A605D805890C809E030E11790C808E7
:100D7B00E030E110A37402F0900259120851E94AD5
:100D8B00603F803A90C809E030E21790C808E03025
:100D9B00E210A37404F090025C120851E94A60213E
:100DAB00801C90C809E030E31890C808E030E311CC
:100DBB00A37408F090025F120851E94A600312080D
:100DCB00DAD007D006D005D004D003D002D001D0A2
:100DDB0000D0D0D082D083D0F0D0E032C0E0C0F0D1
:100DEB00C083C082C0D075D000C000C001C002C09B
:100DFB0003C004C005C006C00790C905E030E01C65
:100E0B0090C904E030E015900262120851E94A6083
:100E1B00031208DA90C9057401F0804C90C905E003
:100E2B0030E11C90C904E030E115900265120851C5
:100E3B00E94A60031208DA90C9057402F080299020
:100E4B00C905E030E21C90C904E030E2159002685D
:100E5B00120851E94A60031208DA90C9057404F0CC
:100E6B00800690C9057407F0D007D006D005D004D2
:100E7B00D003D002D001D000D0D0D082D083D0F01C
:100E8B00D0E032C0E0C0F0C083C082C0D075D000CB
:100E9B00C000C001C002C003C004C005C006C0072B
:100EAB0090CA05E030E01C90CA04E030E0159002D7
:100EBB006B120851E94A60031208DA90CA057401F3
:100ECB00F0804C90CA05E030E11C90CA04E030E1A0
:100EDB001590026E120851E94A60031208DA90CAA3
:100EEB00057402F0802990CA05E030E21C90CA0418
:100EFB00E030E215900271120851E94A60031208C2
:100F0B00DA90CA057404F0800690CA057407F0D015
:100F1B0007D006D005D004D003D002D001D000D02A
:100F2B00D0D082D083D0F0D0E032C0E0C0F0C0830C
:100F3B00C082C0D075D000C000C001C002C003C0C9
:100F4B0004C005C006C00790CB05E030E01C90CB79
:100F5B0004E030E015900274120851E94A60031264
:100F6B0008DA90CB057401F0804C90CB05E030E1B2
:100F7B001C90CB04E030E115900277120851E94A3E
:100F8B0060031208DA90CB057402F0802990CB0530
:100F9B00E030E21C90CB04E030E21590027A1208AC
:100FAB0051E94A60031208DA90CB057404F080060D
:100FBB0090CB057407F0D007D006D005D004D00332
:100FCB00D002D001D000D0D0D082D083D0F0D0E0EE
:100FDB0032E4900228F0A3F0900165F01216877F9F
:100FEB000112169712164EC3EF944CEE9404505701
:100FFB007F021215EF900226EEF0A3EFF090016E38
:10100B00EEF0A3EFF0900228E0FEA3E0FFC394A064
:10101B00EE9400502A900226E0FCA3E0FDEF25E0C1
:10102B00FFEE33FE74002FF58274003EF583ECF077
:10103B00A3EDF0900228E475F0011205B780A5909E
:10104B0001657401F0809D120054E4FF1216979015
:10105B000228E0FFA3E090016CCFF0A3EFF0227821
:10106B007FE4F6D8FD7581200210B10214A0E49341
:10107B00A3F8E493A34003F68001F208DFF4802980
:10108B00E493A3F85407240CC8C333C4540F44206F
:10109B00C8834004F456800146F6DFE4800B01025E
:1010AB00040810204080900935E47E019360BCA3B6
:1010BB00FF543F30E509541FFEE493A360010ECFAC
:1010CB0054C025E060A840B8E493A3FAE493A3F8D6
:1010DB00E493A3C8C582C8CAC583CAF0A3C8C58296
:1010EB00C8CAC583CADFE9DEE780BEEF12087A11F2
:1010FB001601112002112A04113408113E10114857
:10110B0020115240115C8000001166E5B454F0448C
:10111B0001F5B48049E5B454F04402F5B4803FE5E1
:10112B00B454F04403F5B48035E5B454F04404F5FD
:10113B00B4802BE5B454F04405F5B48021E5B454E8
:10114B00F04406F5B48017E5B454F04407F5B480C9
:10115B000DE5B454F04408F5B4800353B4F053AD2B
:10116B00FB43AD0422EF131313541FFEEF5407FF81
:10117B00ED6034EE700D04A807088002C333D8FC71
:10118B0042F922EEB4010E7401A807088002C333A2
:10119B00D8FC42FA22EE6402704304A807088002CE
:1011AB00C333D8FC42FB22EE700E04A80708800262
:1011BB00C333D8FCF452F922EEB4010F7401A80723
:1011CB00088002C333D8FCF452FA22EEB4020E7438
:1011DB0001A807088002C333D8FCF452FB22EF139B
:1011EB001313541FFEEF5407FFED6034EE700D0424
:1011FB00A807088002C333D8FC429722EEB4010E35
:10120B007401A807088002C333D8FC42E522EE64C0
:10121B0002704304A807088002C333D8FC42FC22A7
:10122B00EE700E04A807088002C333D8FCF4529763
:10123B0022EEB4010F7401A807088002C333D8FC57
:10124B00F452E522EEB4020E7401A807088002C323
:10125B0033D8FCF452FC22EF131313541FFEEF543C
:10126B0007FFED6034EE700D04A807088002C3334E
:10127B00D8FC428022EEB4010E7401A8070880024C
:10128B00C333D8FC429022EE6402704304A80708D3
:10129B008002C333D8FC42A022EE700E04A80708CC
:1012AB008002C333D8FCF4528022EEB4010F7401D8
:1012BB00A807088002C333D8FCF4529022EEB40284
:1012CB000E7401A807088002C333D8FCF452A02285
:1012DB00C0E0C0F0C083C082C0D075D000C000C0D9
:1012EB0001C002C003C004C005C006C007E5C8307A
:1012FB00E11053C8FD90027D120851E94A600312B8
:10130B0008DAE5C930E11053C9FD9002801208518B
:10131B00E94A60031208DAE5CA30E11053CAFD90BE
:10132B000283120851E94A60031208DAD007D0068B
:10133B00D005D004D003D002D001D000D0D0D082C1
:10134B00D083D0F0D0E03290C018E4F07F081200C8
:10135B0066E4FD7F08121170E4FD7F081211E9E4C9
:10136B00FD7F0812126290C01AE4F07F0A12006629
:10137B00E4FD7F0A121170E4FD7F0A1211E9E4FD0E
:10138B007F0A12126290C01BE4F07F0B120066E41E
:10139B00FD7F0B121170E4FD7F0B1211E9E4FD7F51
:1013AB000B12126290C01DE4F090C020F02290014D
:1013BB006BE06023E4900164F0900170E0C394FF54
:1013CB005003E004F0900170E0C39402402F9001B1
:1013DB0063E07029048021E4900170F0900164E0D7
:1013EB00C394FF5003E004F0900164E0C394044005
:1013FB000C900163E06006E4F0FF12155822C0E088
:10140B00C0F0C083C082C0D075D000C000C001C086
:10141B0002C003C004C005C006C007E5F630E00DEE
:10142B00900292120851E94A60031208DA75F6012C
:10143B00D007D006D005D004D003D002D001D00005
:10144B00D0D0D082D083D0F0D0E032C0E0C0F0C09A
:10145B0083C082C0D075D000C000C001C002C003E1
:10146B00C004C005C006C00730980F90028F120849
:10147B0051E94A60031208DAC298D007D006D005AA
:10148B00D004D003D002D001D000D0D0D082D083F2
:10149B00D0F0D0E0321216B21213521215C5120050
:1014AB0036120B96C2AFE4FF121558120FDC120066
:1014BB00AE1213B9900173E475F0011205B7C39026
:1014CB000174E0945B900173E0940040DEE4F0A3C0
:1014DB00F0120B9680D5AB07AA06D3EB94FFEA94D8
:1014EB000F40047A0F7BFF900228120820000000A7
:1014FB0000AE02AF03E4FCFD9002281207D31206E4
:10150B0036E47BFF7A0FF9F81206C1EF2420FFEEC9
:10151B003403FE22AB07AA0643DF0843E70890C952
:10152B0000E04440F0EC90C90DF0ED90C90CF0EBED
:10153B0024FFEA34FF90C90FF0EB1490C90EF09022
:10154B00C9067401F090C905E04401F0229002260F
:10155B00EFF07F0060027F01900227EFF060047DC7
:10156B00018002E4FD7F08121262900226E0600403
:10157B007D018002E4FD7F0B121262900227E09046
:10158B000148F02290022AE06401702743DE1043E9
:10159B00E610EFC4333354C0FFE5AC54BF4FF5AC8A
:1015AB00E4F5FEF5FFEBF5FEEAF5FFE5FD54FE4D28
:1015BB00F5FD2253DEEF53E6EF2290022A7401F081
:1015CB007B047A00E4FD7F0112158F7F0512163321
:1015DB007F06120094E4FF1216757F011216637FCB
:1015EB00010216A61210F6E5AD20E2FBE5F630E09F
:1015FB00FB75F601E5B7540FFEADB6EDFFD394FFC7
:10160B00EE940F40047E0F7FFF22C0E0C083C082A8
:10161B00E5A630E3099002957401F075A32075A33C
:10162B00FFD082D083D0E03253F7F8EF24FC600B6D
:10163B0014600C2402700B43F7032243F70422437C
:10164B00F7052290C90BE0FF90C90AE0FDA3E0FE6D
:10165B00EFB506EFFEEDFF22EFB4010753ADFE53DE
:10166B00ADFD2243AD0243AD012243AC20EF70052B
:10167B0053ACFD800343AC0253B5FE2290C90574F5
:10168B0007F090C90AE4F0A3F00216BDEF60047DE9
:10169B00018002E4FD7F0A12126222EFB4010443BF
:1016AB00AC012253ACFE227F007E367D6E7C0102A4
:0A16BB000A6B90C900E04401F02220
:00000001FF
